{
	"CertificateRegistry.sol": {
		"CertificateRegistry": {
			"abi": [
				{
					"inputs": [],
					"stateMutability": "nonpayable",
					"type": "constructor"
				},
				{
					"inputs": [
						{
							"internalType": "address",
							"name": "owner",
							"type": "address"
						}
					],
					"name": "OwnableInvalidOwner",
					"type": "error"
				},
				{
					"inputs": [
						{
							"internalType": "address",
							"name": "account",
							"type": "address"
						}
					],
					"name": "OwnableUnauthorizedAccount",
					"type": "error"
				},
				{
					"anonymous": false,
					"inputs": [
						{
							"indexed": true,
							"internalType": "bytes32",
							"name": "certId",
							"type": "bytes32"
						},
						{
							"indexed": true,
							"internalType": "address",
							"name": "student",
							"type": "address"
						},
						{
							"indexed": false,
							"internalType": "string",
							"name": "studentName",
							"type": "string"
						},
						{
							"indexed": false,
							"internalType": "string",
							"name": "courseName",
							"type": "string"
						},
						{
							"indexed": false,
							"internalType": "uint256",
							"name": "issueDate",
							"type": "uint256"
						}
					],
					"name": "CertificateIssued",
					"type": "event"
				},
				{
					"anonymous": false,
					"inputs": [
						{
							"indexed": true,
							"internalType": "address",
							"name": "previousOwner",
							"type": "address"
						},
						{
							"indexed": true,
							"internalType": "address",
							"name": "newOwner",
							"type": "address"
						}
					],
					"name": "OwnershipTransferred",
					"type": "event"
				},
				{
					"inputs": [
						{
							"internalType": "address",
							"name": "student",
							"type": "address"
						}
					],
					"name": "getCertificatesByStudent",
					"outputs": [
						{
							"internalType": "bytes32[]",
							"name": "ids",
							"type": "bytes32[]"
						}
					],
					"stateMutability": "view",
					"type": "function"
				},
				{
					"inputs": [
						{
							"internalType": "address",
							"name": "student",
							"type": "address"
						},
						{
							"internalType": "string",
							"name": "studentName",
							"type": "string"
						},
						{
							"internalType": "string",
							"name": "courseName",
							"type": "string"
						},
						{
							"internalType": "uint256",
							"name": "issueDate",
							"type": "uint256"
						}
					],
					"name": "issueCertificate",
					"outputs": [
						{
							"internalType": "bytes32",
							"name": "certId",
							"type": "bytes32"
						}
					],
					"stateMutability": "nonpayable",
					"type": "function"
				},
				{
					"inputs": [],
					"name": "owner",
					"outputs": [
						{
							"internalType": "address",
							"name": "",
							"type": "address"
						}
					],
					"stateMutability": "view",
					"type": "function"
				},
				{
					"inputs": [],
					"name": "renounceOwnership",
					"outputs": [],
					"stateMutability": "nonpayable",
					"type": "function"
				},
				{
					"inputs": [
						{
							"internalType": "address",
							"name": "newOwner",
							"type": "address"
						}
					],
					"name": "transferOwnership",
					"outputs": [],
					"stateMutability": "nonpayable",
					"type": "function"
				},
				{
					"inputs": [
						{
							"internalType": "bytes32",
							"name": "certId",
							"type": "bytes32"
						}
					],
					"name": "verifyCertificate",
					"outputs": [
						{
							"internalType": "address",
							"name": "student",
							"type": "address"
						},
						{
							"internalType": "string",
							"name": "studentName",
							"type": "string"
						},
						{
							"internalType": "string",
							"name": "courseName",
							"type": "string"
						},
						{
							"internalType": "string",
							"name": "issueDate",
							"type": "string"
						},
						{
							"internalType": "bool",
							"name": "valid",
							"type": "bool"
						}
					],
					"stateMutability": "view",
					"type": "function"
				}
			],
			"devdoc": {
				"errors": {
					"OwnableInvalidOwner(address)": [
						{
							"details": "The owner is not a valid owner account. (eg. `address(0)`)"
						}
					],
					"OwnableUnauthorizedAccount(address)": [
						{
							"details": "The caller account is not authorized to perform an operation."
						}
					]
				},
				"kind": "dev",
				"methods": {
					"getCertificatesByStudent(address)": {
						"params": {
							"student": "Endereço do aluno."
						},
						"returns": {
							"ids": "Array de certIds emitidos para o aluno."
						}
					},
					"issueCertificate(address,string,string,uint256)": {
						"params": {
							"courseName": "Nome do curso ou evento.",
							"issueDate": "Timestamp Unix da emissão.",
							"student": "Endereço de carteira do aluno.",
							"studentName": "Nome completo do aluno."
						},
						"returns": {
							"certId": "Identificador único do certificado."
						}
					},
					"owner()": {
						"details": "Returns the address of the current owner."
					},
					"renounceOwnership()": {
						"details": "Leaves the contract without owner. It will not be possible to call `onlyOwner` functions. Can only be called by the current owner. NOTE: Renouncing ownership will leave the contract without an owner, thereby disabling any functionality that is only available to the owner."
					},
					"transferOwnership(address)": {
						"details": "Transfers ownership of the contract to a new account (`newOwner`). Can only be called by the current owner."
					},
					"verifyCertificate(bytes32)": {
						"params": {
							"certId": "Identificador único do certificado."
						},
						"returns": {
							"courseName": "Nome do curso/evento.",
							"issueDate": "Data da emissão em formato legível.",
							"student": "Endereço do aluno.",
							"studentName": "Nome do aluno.",
							"valid": "Se o certificado existe."
						}
					}
				},
				"version": 1
			},
			"evm": {
				"assembly": "    /* \"CertificateRegistry.sol\":116:4229  contract CertificateRegistry is Ownable {... */\n  mstore(0x40, 0x80)\n    /* \"CertificateRegistry.sol\":597:633  constructor() Ownable(msg.sender) {} */\n  callvalue\n  dup1\n  iszero\n  tag_1\n  jumpi\n  revert(0x00, 0x00)\ntag_1:\n  pop\n    /* \"CertificateRegistry.sol\":619:629  msg.sender */\n  caller\n    /* \"@openzeppelin/contracts/access/Ownable.sol\":1297:1298  0 */\n  0x00\n    /* \"@openzeppelin/contracts/access/Ownable.sol\":1273:1299  initialOwner == address(0) */\n  0xffffffffffffffffffffffffffffffffffffffff\n  and\n    /* \"@openzeppelin/contracts/access/Ownable.sol\":1273:1285  initialOwner */\n  dup2\n    /* \"@openzeppelin/contracts/access/Ownable.sol\":1273:1299  initialOwner == address(0) */\n  0xffffffffffffffffffffffffffffffffffffffff\n  and\n  sub\n    /* \"@openzeppelin/contracts/access/Ownable.sol\":1269:1364  if (initialOwner == address(0)) {... */\n  tag_5\n  jumpi\n    /* \"@openzeppelin/contracts/access/Ownable.sol\":1350:1351  0 */\n  0x00\n    /* \"@openzeppelin/contracts/access/Ownable.sol\":1322:1353  OwnableInvalidOwner(address(0)) */\n  mload(0x40)\n  0x1e4fbdf700000000000000000000000000000000000000000000000000000000\n  dup2\n  mstore\n  0x04\n  add\n  tag_6\n  swap2\n  swap1\n  tag_7\n  jump\t// in\ntag_6:\n  mload(0x40)\n  dup1\n  swap2\n  sub\n  swap1\n  revert\n    /* \"@openzeppelin/contracts/access/Ownable.sol\":1269:1364  if (initialOwner == address(0)) {... */\ntag_5:\n    /* \"@openzeppelin/contracts/access/Ownable.sol\":1373:1405  _transferOwnership(initialOwner) */\n  tag_8\n    /* \"@openzeppelin/contracts/access/Ownable.sol\":1392:1404  initialOwner */\n  dup2\n    /* \"@openzeppelin/contracts/access/Ownable.sol\":1373:1391  _transferOwnership */\n  shl(0x20, tag_9)\n    /* \"@openzeppelin/contracts/access/Ownable.sol\":1373:1405  _transferOwnership(initialOwner) */\n  0x20\n  shr\n  jump\t// in\ntag_8:\n    /* \"@openzeppelin/contracts/access/Ownable.sol\":1225:1412  constructor(address initialOwner) {... */\n  pop\n    /* \"CertificateRegistry.sol\":116:4229  contract CertificateRegistry is Ownable {... */\n  jump(tag_11)\n    /* \"@openzeppelin/contracts/access/Ownable.sol\":2912:3099  function _transferOwnership(address newOwner) internal virtual {... */\ntag_9:\n    /* \"@openzeppelin/contracts/access/Ownable.sol\":2985:3001  address oldOwner */\n  0x00\n    /* \"@openzeppelin/contracts/access/Ownable.sol\":3004:3010  _owner */\n  0x00\n  0x00\n  swap1\n  sload\n  swap1\n  0x0100\n  exp\n  swap1\n  div\n  0xffffffffffffffffffffffffffffffffffffffff\n  and\n    /* \"@openzeppelin/contracts/access/Ownable.sol\":2985:3010  address oldOwner = _owner */\n  swap1\n  pop\n    /* \"@openzeppelin/contracts/access/Ownable.sol\":3029:3037  newOwner */\n  dup2\n    /* \"@openzeppelin/contracts/access/Ownable.sol\":3020:3026  _owner */\n  0x00\n  0x00\n    /* \"@openzeppelin/contracts/access/Ownable.sol\":3020:3037  _owner = newOwner */\n  0x0100\n  exp\n  dup2\n  sload\n  dup2\n  0xffffffffffffffffffffffffffffffffffffffff\n  mul\n  not\n  and\n  swap1\n  dup4\n  0xffffffffffffffffffffffffffffffffffffffff\n  and\n  mul\n  or\n  swap1\n  sstore\n  pop\n    /* \"@openzeppelin/contracts/access/Ownable.sol\":3083:3091  newOwner */\n  dup2\n    /* \"@openzeppelin/contracts/access/Ownable.sol\":3052:3092  OwnershipTransferred(oldOwner, newOwner) */\n  0xffffffffffffffffffffffffffffffffffffffff\n  and\n    /* \"@openzeppelin/contracts/access/Ownable.sol\":3073:3081  oldOwner */\n  dup2\n    /* \"@openzeppelin/contracts/access/Ownable.sol\":3052:3092  OwnershipTransferred(oldOwner, newOwner) */\n  0xffffffffffffffffffffffffffffffffffffffff\n  and\n  0x8be0079c531659141344cd1fd0a4f28419497f9722a3daafe3b4186f6b6457e0\n  mload(0x40)\n  mload(0x40)\n  dup1\n  swap2\n  sub\n  swap1\n  log3\n    /* \"@openzeppelin/contracts/access/Ownable.sol\":2975:3099  {... */\n  pop\n    /* \"@openzeppelin/contracts/access/Ownable.sol\":2912:3099  function _transferOwnership(address newOwner) internal virtual {... */\n  pop\n  jump\t// out\n    /* \"#utility.yul\":7:133   */\ntag_13:\n    /* \"#utility.yul\":44:51   */\n  0x00\n    /* \"#utility.yul\":84:126   */\n  0xffffffffffffffffffffffffffffffffffffffff\n    /* \"#utility.yul\":77:82   */\n  dup3\n    /* \"#utility.yul\":73:127   */\n  and\n    /* \"#utility.yul\":62:127   */\n  swap1\n  pop\n    /* \"#utility.yul\":7:133   */\n  swap2\n  swap1\n  pop\n  jump\t// out\n    /* \"#utility.yul\":139:235   */\ntag_14:\n    /* \"#utility.yul\":176:183   */\n  0x00\n    /* \"#utility.yul\":205:229   */\n  tag_19\n    /* \"#utility.yul\":223:228   */\n  dup3\n    /* \"#utility.yul\":205:229   */\n  tag_13\n  jump\t// in\ntag_19:\n    /* \"#utility.yul\":194:229   */\n  swap1\n  pop\n    /* \"#utility.yul\":139:235   */\n  swap2\n  swap1\n  pop\n  jump\t// out\n    /* \"#utility.yul\":241:359   */\ntag_15:\n    /* \"#utility.yul\":328:352   */\n  tag_21\n    /* \"#utility.yul\":346:351   */\n  dup2\n    /* \"#utility.yul\":328:352   */\n  tag_14\n  jump\t// in\ntag_21:\n    /* \"#utility.yul\":323:326   */\n  dup3\n    /* \"#utility.yul\":316:353   */\n  mstore\n    /* \"#utility.yul\":241:359   */\n  pop\n  pop\n  jump\t// out\n    /* \"#utility.yul\":365:587   */\ntag_7:\n    /* \"#utility.yul\":458:462   */\n  0x00\n    /* \"#utility.yul\":496:498   */\n  0x20\n    /* \"#utility.yul\":485:494   */\n  dup3\n    /* \"#utility.yul\":481:499   */\n  add\n    /* \"#utility.yul\":473:499   */\n  swap1\n  pop\n    /* \"#utility.yul\":509:580   */\n  tag_23\n    /* \"#utility.yul\":577:578   */\n  0x00\n    /* \"#utility.yul\":566:575   */\n  dup4\n    /* \"#utility.yul\":562:579   */\n  add\n    /* \"#utility.yul\":553:559   */\n  dup5\n    /* \"#utility.yul\":509:580   */\n  tag_15\n  jump\t// in\ntag_23:\n    /* \"#utility.yul\":365:587   */\n  swap3\n  swap2\n  pop\n  pop\n  jump\t// out\n    /* \"CertificateRegistry.sol\":116:4229  contract CertificateRegistry is Ownable {... */\ntag_11:\n  dataSize(sub_0)\n  dup1\n  dataOffset(sub_0)\n  0x00\n  codecopy\n  0x00\n  return\nstop\n\nsub_0: assembly {\n        /* \"CertificateRegistry.sol\":116:4229  contract CertificateRegistry is Ownable {... */\n      mstore(0x40, 0x80)\n      callvalue\n      dup1\n      iszero\n      tag_1\n      jumpi\n      revert(0x00, 0x00)\n    tag_1:\n      pop\n      jumpi(tag_2, lt(calldatasize, 0x04))\n      shr(0xe0, calldataload(0x00))\n      dup1\n      0x715018a6\n      eq\n      tag_3\n      jumpi\n      dup1\n      0x850c1768\n      eq\n      tag_4\n      jumpi\n      dup1\n      0x8da5cb5b\n      eq\n      tag_5\n      jumpi\n      dup1\n      0xdc02992e\n      eq\n      tag_6\n      jumpi\n      dup1\n      0xea092518\n      eq\n      tag_7\n      jumpi\n      dup1\n      0xf2fde38b\n      eq\n      tag_8\n      jumpi\n    tag_2:\n      revert(0x00, 0x00)\n        /* \"@openzeppelin/contracts/access/Ownable.sol\":2293:2394  function renounceOwnership() public virtual onlyOwner {... */\n    tag_3:\n      tag_9\n      tag_10\n      jump\t// in\n    tag_9:\n      stop\n        /* \"CertificateRegistry.sol\":2154:2739  function verifyCertificate(bytes32 certId)... */\n    tag_4:\n      tag_11\n      0x04\n      dup1\n      calldatasize\n      sub\n      dup2\n      add\n      swap1\n      tag_12\n      swap2\n      swap1\n      tag_13\n      jump\t// in\n    tag_12:\n      tag_14\n      jump\t// in\n    tag_11:\n      mload(0x40)\n      tag_15\n      swap6\n      swap5\n      swap4\n      swap3\n      swap2\n      swap1\n      tag_16\n      jump\t// in\n    tag_15:\n      mload(0x40)\n      dup1\n      swap2\n      sub\n      swap1\n      return\n        /* \"@openzeppelin/contracts/access/Ownable.sol\":1638:1723  function owner() public view virtual returns (address) {... */\n    tag_5:\n      tag_17\n      tag_18\n      jump\t// in\n    tag_17:\n      mload(0x40)\n      tag_19\n      swap2\n      swap1\n      tag_20\n      jump\t// in\n    tag_19:\n      mload(0x40)\n      dup1\n      swap2\n      sub\n      swap1\n      return\n        /* \"CertificateRegistry.sol\":1010:1761  function issueCertificate(... */\n    tag_6:\n      tag_21\n      0x04\n      dup1\n      calldatasize\n      sub\n      dup2\n      add\n      swap1\n      tag_22\n      swap2\n      swap1\n      tag_23\n      jump\t// in\n    tag_22:\n      tag_24\n      jump\t// in\n    tag_21:\n      mload(0x40)\n      tag_25\n      swap2\n      swap1\n      tag_26\n      jump\t// in\n    tag_25:\n      mload(0x40)\n      dup1\n      swap2\n      sub\n      swap1\n      return\n        /* \"CertificateRegistry.sol\":2919:3071  function getCertificatesByStudent(address student) external view returns (bytes32[] memory ids) {... */\n    tag_7:\n      tag_27\n      0x04\n      dup1\n      calldatasize\n      sub\n      dup2\n      add\n      swap1\n      tag_28\n      swap2\n      swap1\n      tag_29\n      jump\t// in\n    tag_28:\n      tag_30\n      jump\t// in\n    tag_27:\n      mload(0x40)\n      tag_31\n      swap2\n      swap1\n      tag_32\n      jump\t// in\n    tag_31:\n      mload(0x40)\n      dup1\n      swap2\n      sub\n      swap1\n      return\n        /* \"@openzeppelin/contracts/access/Ownable.sol\":2543:2758  function transferOwnership(address newOwner) public virtual onlyOwner {... */\n    tag_8:\n      tag_33\n      0x04\n      dup1\n      calldatasize\n      sub\n      dup2\n      add\n      swap1\n      tag_34\n      swap2\n      swap1\n      tag_29\n      jump\t// in\n    tag_34:\n      tag_35\n      jump\t// in\n    tag_33:\n      stop\n        /* \"@openzeppelin/contracts/access/Ownable.sol\":2293:2394  function renounceOwnership() public virtual onlyOwner {... */\n    tag_10:\n        /* \"@openzeppelin/contracts/access/Ownable.sol\":1531:1544  _checkOwner() */\n      tag_37\n        /* \"@openzeppelin/contracts/access/Ownable.sol\":1531:1542  _checkOwner */\n      tag_38\n        /* \"@openzeppelin/contracts/access/Ownable.sol\":1531:1544  _checkOwner() */\n      jump\t// in\n    tag_37:\n        /* \"@openzeppelin/contracts/access/Ownable.sol\":2357:2387  _transferOwnership(address(0)) */\n      tag_40\n        /* \"@openzeppelin/contracts/access/Ownable.sol\":2384:2385  0 */\n      0x00\n        /* \"@openzeppelin/contracts/access/Ownable.sol\":2357:2375  _transferOwnership */\n      tag_41\n        /* \"@openzeppelin/contracts/access/Ownable.sol\":2357:2387  _transferOwnership(address(0)) */\n      jump\t// in\n    tag_40:\n        /* \"@openzeppelin/contracts/access/Ownable.sol\":2293:2394  function renounceOwnership() public virtual onlyOwner {... */\n      jump\t// out\n        /* \"CertificateRegistry.sol\":2154:2739  function verifyCertificate(bytes32 certId)... */\n    tag_14:\n        /* \"CertificateRegistry.sol\":2261:2276  address student */\n      0x00\n        /* \"CertificateRegistry.sol\":2291:2316  string memory studentName */\n      0x60\n        /* \"CertificateRegistry.sol\":2331:2355  string memory courseName */\n      dup1\n        /* \"CertificateRegistry.sol\":2370:2393  string memory issueDate */\n      0x60\n        /* \"CertificateRegistry.sol\":2408:2418  bool valid */\n      0x00\n        /* \"CertificateRegistry.sol\":2446:2469  Certificate memory cert */\n      0x00\n        /* \"CertificateRegistry.sol\":2472:2484  certificates */\n      0x01\n        /* \"CertificateRegistry.sol\":2472:2492  certificates[certId] */\n      0x00\n        /* \"CertificateRegistry.sol\":2485:2491  certId */\n      dup9\n        /* \"CertificateRegistry.sol\":2472:2492  certificates[certId] */\n      dup2\n      mstore\n      0x20\n      add\n      swap1\n      dup2\n      mstore\n      0x20\n      add\n      0x00\n      keccak256\n        /* \"CertificateRegistry.sol\":2446:2492  Certificate memory cert = certificates[certId] */\n      mload(0x40)\n      dup1\n      0xa0\n      add\n      0x40\n      mstore\n      swap1\n      dup2\n      0x00\n      dup3\n      add\n      0x00\n      swap1\n      sload\n      swap1\n      0x0100\n      exp\n      swap1\n      div\n      0xffffffffffffffffffffffffffffffffffffffff\n      and\n      0xffffffffffffffffffffffffffffffffffffffff\n      and\n      0xffffffffffffffffffffffffffffffffffffffff\n      and\n      dup2\n      mstore\n      0x20\n      add\n      0x01\n      dup3\n      add\n      dup1\n      sload\n      tag_43\n      swap1\n      tag_44\n      jump\t// in\n    tag_43:\n      dup1\n      0x1f\n      add\n      0x20\n      dup1\n      swap2\n      div\n      mul\n      0x20\n      add\n      mload(0x40)\n      swap1\n      dup2\n      add\n      0x40\n      mstore\n      dup1\n      swap3\n      swap2\n      swap1\n      dup2\n      dup2\n      mstore\n      0x20\n      add\n      dup3\n      dup1\n      sload\n      tag_45\n      swap1\n      tag_44\n      jump\t// in\n    tag_45:\n      dup1\n      iszero\n      tag_46\n      jumpi\n      dup1\n      0x1f\n      lt\n      tag_47\n      jumpi\n      0x0100\n      dup1\n      dup4\n      sload\n      div\n      mul\n      dup4\n      mstore\n      swap2\n      0x20\n      add\n      swap2\n      jump(tag_46)\n    tag_47:\n      dup3\n      add\n      swap2\n      swap1\n      0x00\n      mstore\n      keccak256(0x00, 0x20)\n      swap1\n    tag_48:\n      dup2\n      sload\n      dup2\n      mstore\n      swap1\n      0x01\n      add\n      swap1\n      0x20\n      add\n      dup1\n      dup4\n      gt\n      tag_48\n      jumpi\n      dup3\n      swap1\n      sub\n      0x1f\n      and\n      dup3\n      add\n      swap2\n    tag_46:\n      pop\n      pop\n      pop\n      pop\n      pop\n      dup2\n      mstore\n      0x20\n      add\n      0x02\n      dup3\n      add\n      dup1\n      sload\n      tag_49\n      swap1\n      tag_44\n      jump\t// in\n    tag_49:\n      dup1\n      0x1f\n      add\n      0x20\n      dup1\n      swap2\n      div\n      mul\n      0x20\n      add\n      mload(0x40)\n      swap1\n      dup2\n      add\n      0x40\n      mstore\n      dup1\n      swap3\n      swap2\n      swap1\n      dup2\n      dup2\n      mstore\n      0x20\n      add\n      dup3\n      dup1\n      sload\n      tag_50\n      swap1\n      tag_44\n      jump\t// in\n    tag_50:\n      dup1\n      iszero\n      tag_51\n      jumpi\n      dup1\n      0x1f\n      lt\n      tag_52\n      jumpi\n      0x0100\n      dup1\n      dup4\n      sload\n      div\n      mul\n      dup4\n      mstore\n      swap2\n      0x20\n      add\n      swap2\n      jump(tag_51)\n    tag_52:\n      dup3\n      add\n      swap2\n      swap1\n      0x00\n      mstore\n      keccak256(0x00, 0x20)\n      swap1\n    tag_53:\n      dup2\n      sload\n      dup2\n      mstore\n      swap1\n      0x01\n      add\n      swap1\n      0x20\n      add\n      dup1\n      dup4\n      gt\n      tag_53\n      jumpi\n      dup3\n      swap1\n      sub\n      0x1f\n      and\n      dup3\n      add\n      swap2\n    tag_51:\n      pop\n      pop\n      pop\n      pop\n      pop\n      dup2\n      mstore\n      0x20\n      add\n      0x03\n      dup3\n      add\n      sload\n      dup2\n      mstore\n      0x20\n      add\n      0x04\n      dup3\n      add\n      0x00\n      swap1\n      sload\n      swap1\n      0x0100\n      exp\n      swap1\n      div\n      0xff\n      and\n      iszero\n      iszero\n      iszero\n      iszero\n      dup2\n      mstore\n      pop\n      pop\n      swap1\n      pop\n        /* \"CertificateRegistry.sol\":2503:2530  string memory formattedDate */\n      0x00\n        /* \"CertificateRegistry.sol\":2533:2560  _formatDate(cert.issueDate) */\n      tag_54\n        /* \"CertificateRegistry.sol\":2545:2549  cert */\n      dup3\n        /* \"CertificateRegistry.sol\":2545:2559  cert.issueDate */\n      0x60\n      add\n      mload\n        /* \"CertificateRegistry.sol\":2533:2544  _formatDate */\n      tag_55\n        /* \"CertificateRegistry.sol\":2533:2560  _formatDate(cert.issueDate) */\n      jump\t// in\n    tag_54:\n        /* \"CertificateRegistry.sol\":2503:2560  string memory formattedDate = _formatDate(cert.issueDate) */\n      swap1\n      pop\n        /* \"CertificateRegistry.sol\":2593:2597  cert */\n      dup2\n        /* \"CertificateRegistry.sol\":2593:2605  cert.student */\n      0x00\n      add\n      mload\n        /* \"CertificateRegistry.sol\":2620:2624  cert */\n      dup3\n        /* \"CertificateRegistry.sol\":2620:2636  cert.studentName */\n      0x20\n      add\n      mload\n        /* \"CertificateRegistry.sol\":2651:2655  cert */\n      dup4\n        /* \"CertificateRegistry.sol\":2651:2666  cert.courseName */\n      0x40\n      add\n      mload\n        /* \"CertificateRegistry.sol\":2681:2694  formattedDate */\n      dup4\n        /* \"CertificateRegistry.sol\":2709:2713  cert */\n      dup6\n        /* \"CertificateRegistry.sol\":2709:2720  cert.exists */\n      0x80\n      add\n      mload\n        /* \"CertificateRegistry.sol\":2571:2731  return (... */\n      swap7\n      pop\n      swap7\n      pop\n      swap7\n      pop\n      swap7\n      pop\n      swap7\n      pop\n      pop\n      pop\n        /* \"CertificateRegistry.sol\":2154:2739  function verifyCertificate(bytes32 certId)... */\n      swap2\n      swap4\n      swap6\n      swap1\n      swap3\n      swap5\n      pop\n      jump\t// out\n        /* \"@openzeppelin/contracts/access/Ownable.sol\":1638:1723  function owner() public view virtual returns (address) {... */\n    tag_18:\n        /* \"@openzeppelin/contracts/access/Ownable.sol\":1684:1691  address */\n      0x00\n        /* \"@openzeppelin/contracts/access/Ownable.sol\":1710:1716  _owner */\n      0x00\n      0x00\n      swap1\n      sload\n      swap1\n      0x0100\n      exp\n      swap1\n      div\n      0xffffffffffffffffffffffffffffffffffffffff\n      and\n        /* \"@openzeppelin/contracts/access/Ownable.sol\":1703:1716  return _owner */\n      swap1\n      pop\n        /* \"@openzeppelin/contracts/access/Ownable.sol\":1638:1723  function owner() public view virtual returns (address) {... */\n      swap1\n      jump\t// out\n        /* \"CertificateRegistry.sol\":1010:1761  function issueCertificate(... */\n    tag_24:\n        /* \"CertificateRegistry.sol\":1200:1214  bytes32 certId */\n      0x00\n        /* \"@openzeppelin/contracts/access/Ownable.sol\":1531:1544  _checkOwner() */\n      tag_58\n        /* \"@openzeppelin/contracts/access/Ownable.sol\":1531:1542  _checkOwner */\n      tag_38\n        /* \"@openzeppelin/contracts/access/Ownable.sol\":1531:1544  _checkOwner() */\n      jump\t// in\n    tag_58:\n        /* \"CertificateRegistry.sol\":1263:1270  student */\n      dup7\n        /* \"CertificateRegistry.sol\":1272:1283  studentName */\n      dup7\n      dup7\n        /* \"CertificateRegistry.sol\":1285:1295  courseName */\n      dup7\n      dup7\n        /* \"CertificateRegistry.sol\":1297:1306  issueDate */\n      dup7\n        /* \"CertificateRegistry.sol\":1246:1307  abi.encodePacked(student, studentName, courseName, issueDate) */\n      add(0x20, mload(0x40))\n      tag_60\n      swap7\n      swap6\n      swap5\n      swap4\n      swap3\n      swap2\n      swap1\n      tag_61\n      jump\t// in\n    tag_60:\n      mload(0x40)\n      0x20\n      dup2\n      dup4\n      sub\n      sub\n      dup2\n      mstore\n      swap1\n      0x40\n      mstore\n        /* \"CertificateRegistry.sol\":1236:1308  keccak256(abi.encodePacked(student, studentName, courseName, issueDate)) */\n      dup1\n      mload\n      swap1\n      0x20\n      add\n      keccak256\n        /* \"CertificateRegistry.sol\":1227:1308  certId = keccak256(abi.encodePacked(student, studentName, courseName, issueDate)) */\n      swap1\n      pop\n        /* \"CertificateRegistry.sol\":1328:1340  certificates */\n      0x01\n        /* \"CertificateRegistry.sol\":1328:1348  certificates[certId] */\n      0x00\n        /* \"CertificateRegistry.sol\":1341:1347  certId */\n      dup3\n        /* \"CertificateRegistry.sol\":1328:1348  certificates[certId] */\n      dup2\n      mstore\n      0x20\n      add\n      swap1\n      dup2\n      mstore\n      0x20\n      add\n      0x00\n      keccak256\n        /* \"CertificateRegistry.sol\":1328:1355  certificates[certId].exists */\n      0x04\n      add\n      0x00\n      swap1\n      sload\n      swap1\n      0x0100\n      exp\n      swap1\n      div\n      0xff\n      and\n        /* \"CertificateRegistry.sol\":1327:1355  !certificates[certId].exists */\n      iszero\n        /* \"CertificateRegistry.sol\":1319:1382  require(!certificates[certId].exists, \"Certificado ja emitido\") */\n      tag_62\n      jumpi\n      mload(0x40)\n      0x08c379a000000000000000000000000000000000000000000000000000000000\n      dup2\n      mstore\n      0x04\n      add\n      tag_63\n      swap1\n      tag_64\n      jump\t// in\n    tag_63:\n      mload(0x40)\n      dup1\n      swap2\n      sub\n      swap1\n      revert\n    tag_62:\n        /* \"CertificateRegistry.sol\":1418:1611  Certificate({... */\n      mload(0x40)\n      dup1\n      0xa0\n      add\n      0x40\n      mstore\n      dup1\n        /* \"CertificateRegistry.sol\":1454:1461  student */\n      dup9\n        /* \"CertificateRegistry.sol\":1418:1611  Certificate({... */\n      0xffffffffffffffffffffffffffffffffffffffff\n      and\n      dup2\n      mstore\n      0x20\n      add\n        /* \"CertificateRegistry.sol\":1489:1500  studentName */\n      dup8\n      dup8\n        /* \"CertificateRegistry.sol\":1418:1611  Certificate({... */\n      dup1\n      dup1\n      0x1f\n      add\n      0x20\n      dup1\n      swap2\n      div\n      mul\n      0x20\n      add\n      mload(0x40)\n      swap1\n      dup2\n      add\n      0x40\n      mstore\n      dup1\n      swap4\n      swap3\n      swap2\n      swap1\n      dup2\n      dup2\n      mstore\n      0x20\n      add\n      dup4\n      dup4\n      dup1\n      dup3\n      dup5\n      calldatacopy\n      0x00\n      dup2\n      dup5\n      add\n      mstore\n      not(0x1f)\n      0x1f\n      dup3\n      add\n      and\n      swap1\n      pop\n      dup1\n      dup4\n      add\n      swap3\n      pop\n      pop\n      pop\n      pop\n      pop\n      pop\n      pop\n      dup2\n      mstore\n      0x20\n      add\n        /* \"CertificateRegistry.sol\":1527:1537  courseName */\n      dup6\n      dup6\n        /* \"CertificateRegistry.sol\":1418:1611  Certificate({... */\n      dup1\n      dup1\n      0x1f\n      add\n      0x20\n      dup1\n      swap2\n      div\n      mul\n      0x20\n      add\n      mload(0x40)\n      swap1\n      dup2\n      add\n      0x40\n      mstore\n      dup1\n      swap4\n      swap3\n      swap2\n      swap1\n      dup2\n      dup2\n      mstore\n      0x20\n      add\n      dup4\n      dup4\n      dup1\n      dup3\n      dup5\n      calldatacopy\n      0x00\n      dup2\n      dup5\n      add\n      mstore\n      not(0x1f)\n      0x1f\n      dup3\n      add\n      and\n      swap1\n      pop\n      dup1\n      dup4\n      add\n      swap3\n      pop\n      pop\n      pop\n      pop\n      pop\n      pop\n      pop\n      dup2\n      mstore\n      0x20\n      add\n        /* \"CertificateRegistry.sol\":1563:1572  issueDate */\n      dup4\n        /* \"CertificateRegistry.sol\":1418:1611  Certificate({... */\n      dup2\n      mstore\n      0x20\n      add\n        /* \"CertificateRegistry.sol\":1595:1599  true */\n      0x01\n        /* \"CertificateRegistry.sol\":1418:1611  Certificate({... */\n      iszero\n      iszero\n      dup2\n      mstore\n      pop\n        /* \"CertificateRegistry.sol\":1395:1407  certificates */\n      0x01\n        /* \"CertificateRegistry.sol\":1395:1415  certificates[certId] */\n      0x00\n        /* \"CertificateRegistry.sol\":1408:1414  certId */\n      dup4\n        /* \"CertificateRegistry.sol\":1395:1415  certificates[certId] */\n      dup2\n      mstore\n      0x20\n      add\n      swap1\n      dup2\n      mstore\n      0x20\n      add\n      0x00\n      keccak256\n        /* \"CertificateRegistry.sol\":1395:1611  certificates[certId] = Certificate({... */\n      0x00\n      dup3\n      add\n      mload\n      dup2\n      0x00\n      add\n      exp(0x0100, 0x00)\n      dup2\n      sload\n      dup2\n      0xffffffffffffffffffffffffffffffffffffffff\n      mul\n      not\n      and\n      swap1\n      dup4\n      0xffffffffffffffffffffffffffffffffffffffff\n      and\n      mul\n      or\n      swap1\n      sstore\n      pop\n      0x20\n      dup3\n      add\n      mload\n      dup2\n      0x01\n      add\n      swap1\n      dup2\n      tag_65\n      swap2\n      swap1\n      tag_66\n      jump\t// in\n    tag_65:\n      pop\n      0x40\n      dup3\n      add\n      mload\n      dup2\n      0x02\n      add\n      swap1\n      dup2\n      tag_67\n      swap2\n      swap1\n      tag_66\n      jump\t// in\n    tag_67:\n      pop\n      0x60\n      dup3\n      add\n      mload\n      dup2\n      0x03\n      add\n      sstore\n      0x80\n      dup3\n      add\n      mload\n      dup2\n      0x04\n      add\n      exp(0x0100, 0x00)\n      dup2\n      sload\n      dup2\n      0xff\n      mul\n      not\n      and\n      swap1\n      dup4\n      iszero\n      iszero\n      mul\n      or\n      swap1\n      sstore\n      pop\n      swap1\n      pop\n      pop\n        /* \"CertificateRegistry.sol\":1622:1643  certificatesByStudent */\n      0x02\n        /* \"CertificateRegistry.sol\":1622:1652  certificatesByStudent[student] */\n      0x00\n        /* \"CertificateRegistry.sol\":1644:1651  student */\n      dup9\n        /* \"CertificateRegistry.sol\":1622:1652  certificatesByStudent[student] */\n      0xffffffffffffffffffffffffffffffffffffffff\n      and\n      0xffffffffffffffffffffffffffffffffffffffff\n      and\n      dup2\n      mstore\n      0x20\n      add\n      swap1\n      dup2\n      mstore\n      0x20\n      add\n      0x00\n      keccak256\n        /* \"CertificateRegistry.sol\":1658:1664  certId */\n      dup2\n        /* \"CertificateRegistry.sol\":1622:1665  certificatesByStudent[student].push(certId) */\n      swap1\n      dup1\n      0x01\n      dup2\n      sload\n      add\n      dup1\n      dup3\n      sstore\n      dup1\n      swap2\n      pop\n      pop\n      0x01\n      swap1\n      sub\n      swap1\n      0x00\n      mstore\n      keccak256(0x00, 0x20)\n      add\n      0x00\n      swap1\n      swap2\n      swap1\n      swap2\n      swap1\n      swap2\n      pop\n      sstore\n        /* \"CertificateRegistry.sol\":1709:1716  student */\n      dup7\n        /* \"CertificateRegistry.sol\":1683:1753  CertificateIssued(certId, student, studentName, courseName, issueDate) */\n      0xffffffffffffffffffffffffffffffffffffffff\n      and\n        /* \"CertificateRegistry.sol\":1701:1707  certId */\n      dup2\n        /* \"CertificateRegistry.sol\":1683:1753  CertificateIssued(certId, student, studentName, courseName, issueDate) */\n      0xcfb808e158eb5b2513f100885a131cecbae307b39a4218a2178e5d15d44df97a\n        /* \"CertificateRegistry.sol\":1718:1729  studentName */\n      dup9\n      dup9\n        /* \"CertificateRegistry.sol\":1731:1741  courseName */\n      dup9\n      dup9\n        /* \"CertificateRegistry.sol\":1743:1752  issueDate */\n      dup9\n        /* \"CertificateRegistry.sol\":1683:1753  CertificateIssued(certId, student, studentName, courseName, issueDate) */\n      mload(0x40)\n      tag_69\n      swap6\n      swap5\n      swap4\n      swap3\n      swap2\n      swap1\n      tag_70\n      jump\t// in\n    tag_69:\n      mload(0x40)\n      dup1\n      swap2\n      sub\n      swap1\n      log3\n        /* \"CertificateRegistry.sol\":1010:1761  function issueCertificate(... */\n      swap7\n      swap6\n      pop\n      pop\n      pop\n      pop\n      pop\n      pop\n      jump\t// out\n        /* \"CertificateRegistry.sol\":2919:3071  function getCertificatesByStudent(address student) external view returns (bytes32[] memory ids) {... */\n    tag_30:\n        /* \"CertificateRegistry.sol\":2993:3013  bytes32[] memory ids */\n      0x60\n        /* \"CertificateRegistry.sol\":3033:3054  certificatesByStudent */\n      0x02\n        /* \"CertificateRegistry.sol\":3033:3063  certificatesByStudent[student] */\n      0x00\n        /* \"CertificateRegistry.sol\":3055:3062  student */\n      dup4\n        /* \"CertificateRegistry.sol\":3033:3063  certificatesByStudent[student] */\n      0xffffffffffffffffffffffffffffffffffffffff\n      and\n      0xffffffffffffffffffffffffffffffffffffffff\n      and\n      dup2\n      mstore\n      0x20\n      add\n      swap1\n      dup2\n      mstore\n      0x20\n      add\n      0x00\n      keccak256\n        /* \"CertificateRegistry.sol\":3026:3063  return certificatesByStudent[student] */\n      dup1\n      sload\n      dup1\n      0x20\n      mul\n      0x20\n      add\n      mload(0x40)\n      swap1\n      dup2\n      add\n      0x40\n      mstore\n      dup1\n      swap3\n      swap2\n      swap1\n      dup2\n      dup2\n      mstore\n      0x20\n      add\n      dup3\n      dup1\n      sload\n      dup1\n      iszero\n      tag_72\n      jumpi\n      0x20\n      mul\n      dup3\n      add\n      swap2\n      swap1\n      0x00\n      mstore\n      keccak256(0x00, 0x20)\n      swap1\n    tag_73:\n      dup2\n      sload\n      dup2\n      mstore\n      0x20\n      add\n      swap1\n      0x01\n      add\n      swap1\n      dup1\n      dup4\n      gt\n      tag_73\n      jumpi\n    tag_72:\n      pop\n      pop\n      pop\n      pop\n      pop\n      swap1\n      pop\n        /* \"CertificateRegistry.sol\":2919:3071  function getCertificatesByStudent(address student) external view returns (bytes32[] memory ids) {... */\n      swap2\n      swap1\n      pop\n      jump\t// out\n        /* \"@openzeppelin/contracts/access/Ownable.sol\":2543:2758  function transferOwnership(address newOwner) public virtual onlyOwner {... */\n    tag_35:\n        /* \"@openzeppelin/contracts/access/Ownable.sol\":1531:1544  _checkOwner() */\n      tag_75\n        /* \"@openzeppelin/contracts/access/Ownable.sol\":1531:1542  _checkOwner */\n      tag_38\n        /* \"@openzeppelin/contracts/access/Ownable.sol\":1531:1544  _checkOwner() */\n      jump\t// in\n    tag_75:\n        /* \"@openzeppelin/contracts/access/Ownable.sol\":2647:2648  0 */\n      0x00\n        /* \"@openzeppelin/contracts/access/Ownable.sol\":2627:2649  newOwner == address(0) */\n      0xffffffffffffffffffffffffffffffffffffffff\n      and\n        /* \"@openzeppelin/contracts/access/Ownable.sol\":2627:2635  newOwner */\n      dup2\n        /* \"@openzeppelin/contracts/access/Ownable.sol\":2627:2649  newOwner == address(0) */\n      0xffffffffffffffffffffffffffffffffffffffff\n      and\n      sub\n        /* \"@openzeppelin/contracts/access/Ownable.sol\":2623:2714  if (newOwner == address(0)) {... */\n      tag_77\n      jumpi\n        /* \"@openzeppelin/contracts/access/Ownable.sol\":2700:2701  0 */\n      0x00\n        /* \"@openzeppelin/contracts/access/Ownable.sol\":2672:2703  OwnableInvalidOwner(address(0)) */\n      mload(0x40)\n      0x1e4fbdf700000000000000000000000000000000000000000000000000000000\n      dup2\n      mstore\n      0x04\n      add\n      tag_78\n      swap2\n      swap1\n      tag_20\n      jump\t// in\n    tag_78:\n      mload(0x40)\n      dup1\n      swap2\n      sub\n      swap1\n      revert\n        /* \"@openzeppelin/contracts/access/Ownable.sol\":2623:2714  if (newOwner == address(0)) {... */\n    tag_77:\n        /* \"@openzeppelin/contracts/access/Ownable.sol\":2723:2751  _transferOwnership(newOwner) */\n      tag_79\n        /* \"@openzeppelin/contracts/access/Ownable.sol\":2742:2750  newOwner */\n      dup2\n        /* \"@openzeppelin/contracts/access/Ownable.sol\":2723:2741  _transferOwnership */\n      tag_41\n        /* \"@openzeppelin/contracts/access/Ownable.sol\":2723:2751  _transferOwnership(newOwner) */\n      jump\t// in\n    tag_79:\n        /* \"@openzeppelin/contracts/access/Ownable.sol\":2543:2758  function transferOwnership(address newOwner) public virtual onlyOwner {... */\n      pop\n      jump\t// out\n        /* \"@openzeppelin/contracts/access/Ownable.sol\":1796:1958  function _checkOwner() internal view virtual {... */\n    tag_38:\n        /* \"@openzeppelin/contracts/access/Ownable.sol\":1866:1878  _msgSender() */\n      tag_81\n        /* \"@openzeppelin/contracts/access/Ownable.sol\":1866:1876  _msgSender */\n      tag_82\n        /* \"@openzeppelin/contracts/access/Ownable.sol\":1866:1878  _msgSender() */\n      jump\t// in\n    tag_81:\n        /* \"@openzeppelin/contracts/access/Ownable.sol\":1855:1878  owner() != _msgSender() */\n      0xffffffffffffffffffffffffffffffffffffffff\n      and\n        /* \"@openzeppelin/contracts/access/Ownable.sol\":1855:1862  owner() */\n      tag_83\n        /* \"@openzeppelin/contracts/access/Ownable.sol\":1855:1860  owner */\n      tag_18\n        /* \"@openzeppelin/contracts/access/Ownable.sol\":1855:1862  owner() */\n      jump\t// in\n    tag_83:\n        /* \"@openzeppelin/contracts/access/Ownable.sol\":1855:1878  owner() != _msgSender() */\n      0xffffffffffffffffffffffffffffffffffffffff\n      and\n      eq\n        /* \"@openzeppelin/contracts/access/Ownable.sol\":1851:1952  if (owner() != _msgSender()) {... */\n      tag_84\n      jumpi\n        /* \"@openzeppelin/contracts/access/Ownable.sol\":1928:1940  _msgSender() */\n      tag_85\n        /* \"@openzeppelin/contracts/access/Ownable.sol\":1928:1938  _msgSender */\n      tag_82\n        /* \"@openzeppelin/contracts/access/Ownable.sol\":1928:1940  _msgSender() */\n      jump\t// in\n    tag_85:\n        /* \"@openzeppelin/contracts/access/Ownable.sol\":1901:1941  OwnableUnauthorizedAccount(_msgSender()) */\n      mload(0x40)\n      0x118cdaa700000000000000000000000000000000000000000000000000000000\n      dup2\n      mstore\n      0x04\n      add\n      tag_86\n      swap2\n      swap1\n      tag_20\n      jump\t// in\n    tag_86:\n      mload(0x40)\n      dup1\n      swap2\n      sub\n      swap1\n      revert\n        /* \"@openzeppelin/contracts/access/Ownable.sol\":1851:1952  if (owner() != _msgSender()) {... */\n    tag_84:\n        /* \"@openzeppelin/contracts/access/Ownable.sol\":1796:1958  function _checkOwner() internal view virtual {... */\n      jump\t// out\n        /* \"@openzeppelin/contracts/access/Ownable.sol\":2912:3099  function _transferOwnership(address newOwner) internal virtual {... */\n    tag_41:\n        /* \"@openzeppelin/contracts/access/Ownable.sol\":2985:3001  address oldOwner */\n      0x00\n        /* \"@openzeppelin/contracts/access/Ownable.sol\":3004:3010  _owner */\n      0x00\n      0x00\n      swap1\n      sload\n      swap1\n      0x0100\n      exp\n      swap1\n      div\n      0xffffffffffffffffffffffffffffffffffffffff\n      and\n        /* \"@openzeppelin/contracts/access/Ownable.sol\":2985:3010  address oldOwner = _owner */\n      swap1\n      pop\n        /* \"@openzeppelin/contracts/access/Ownable.sol\":3029:3037  newOwner */\n      dup2\n        /* \"@openzeppelin/contracts/access/Ownable.sol\":3020:3026  _owner */\n      0x00\n      0x00\n        /* \"@openzeppelin/contracts/access/Ownable.sol\":3020:3037  _owner = newOwner */\n      0x0100\n      exp\n      dup2\n      sload\n      dup2\n      0xffffffffffffffffffffffffffffffffffffffff\n      mul\n      not\n      and\n      swap1\n      dup4\n      0xffffffffffffffffffffffffffffffffffffffff\n      and\n      mul\n      or\n      swap1\n      sstore\n      pop\n        /* \"@openzeppelin/contracts/access/Ownable.sol\":3083:3091  newOwner */\n      dup2\n        /* \"@openzeppelin/contracts/access/Ownable.sol\":3052:3092  OwnershipTransferred(oldOwner, newOwner) */\n      0xffffffffffffffffffffffffffffffffffffffff\n      and\n        /* \"@openzeppelin/contracts/access/Ownable.sol\":3073:3081  oldOwner */\n      dup2\n        /* \"@openzeppelin/contracts/access/Ownable.sol\":3052:3092  OwnershipTransferred(oldOwner, newOwner) */\n      0xffffffffffffffffffffffffffffffffffffffff\n      and\n      0x8be0079c531659141344cd1fd0a4f28419497f9722a3daafe3b4186f6b6457e0\n      mload(0x40)\n      mload(0x40)\n      dup1\n      swap2\n      sub\n      swap1\n      log3\n        /* \"@openzeppelin/contracts/access/Ownable.sol\":2975:3099  {... */\n      pop\n        /* \"@openzeppelin/contracts/access/Ownable.sol\":2912:3099  function _transferOwnership(address newOwner) internal virtual {... */\n      pop\n      jump\t// out\n        /* \"CertificateRegistry.sol\":3162:3710  function _formatDate(uint256 timestamp) internal pure returns (string memory) {... */\n    tag_55:\n        /* \"CertificateRegistry.sol\":3225:3238  string memory */\n      0x60\n        /* \"CertificateRegistry.sol\":3251:3273  uint256 daysSinceEpoch */\n      0x00\n        /* \"CertificateRegistry.sol\":3288:3293  86400 */\n      0x015180\n        /* \"CertificateRegistry.sol\":3276:3285  timestamp */\n      dup4\n        /* \"CertificateRegistry.sol\":3276:3293  timestamp / 86400 */\n      tag_89\n      swap2\n      swap1\n      tag_90\n      jump\t// in\n    tag_89:\n        /* \"CertificateRegistry.sol\":3251:3293  uint256 daysSinceEpoch = timestamp / 86400 */\n      swap1\n      pop\n        /* \"CertificateRegistry.sol\":3304:3316  uint256 year */\n      0x00\n        /* \"CertificateRegistry.sol\":3343:3346  365 */\n      0x016d\n        /* \"CertificateRegistry.sol\":3326:3340  daysSinceEpoch */\n      dup3\n        /* \"CertificateRegistry.sol\":3326:3346  daysSinceEpoch / 365 */\n      tag_91\n      swap2\n      swap1\n      tag_90\n      jump\t// in\n    tag_91:\n        /* \"CertificateRegistry.sol\":3319:3323  1970 */\n      0x07b2\n        /* \"CertificateRegistry.sol\":3319:3346  1970 + daysSinceEpoch / 365 */\n      tag_92\n      swap2\n      swap1\n      tag_93\n      jump\t// in\n    tag_92:\n        /* \"CertificateRegistry.sol\":3304:3346  uint256 year = 1970 + daysSinceEpoch / 365 */\n      swap1\n      pop\n        /* \"CertificateRegistry.sol\":3357:3370  uint256 month */\n      0x00\n        /* \"CertificateRegistry.sol\":3403:3404  1 */\n      0x01\n        /* \"CertificateRegistry.sol\":3398:3400  30 */\n      0x1e\n        /* \"CertificateRegistry.sol\":3391:3394  365 */\n      0x016d\n        /* \"CertificateRegistry.sol\":3374:3388  daysSinceEpoch */\n      dup6\n        /* \"CertificateRegistry.sol\":3374:3394  daysSinceEpoch % 365 */\n      tag_94\n      swap2\n      swap1\n      tag_95\n      jump\t// in\n    tag_94:\n        /* \"CertificateRegistry.sol\":3373:3400  (daysSinceEpoch % 365) / 30 */\n      tag_96\n      swap2\n      swap1\n      tag_90\n      jump\t// in\n    tag_96:\n        /* \"CertificateRegistry.sol\":3373:3404  (daysSinceEpoch % 365) / 30 + 1 */\n      tag_97\n      swap2\n      swap1\n      tag_93\n      jump\t// in\n    tag_97:\n        /* \"CertificateRegistry.sol\":3357:3404  uint256 month = (daysSinceEpoch % 365) / 30 + 1 */\n      swap1\n      pop\n        /* \"CertificateRegistry.sol\":3415:3426  uint256 day */\n      0x00\n        /* \"CertificateRegistry.sol\":3459:3460  1 */\n      0x01\n        /* \"CertificateRegistry.sol\":3454:3456  30 */\n      0x1e\n        /* \"CertificateRegistry.sol\":3447:3450  365 */\n      0x016d\n        /* \"CertificateRegistry.sol\":3430:3444  daysSinceEpoch */\n      dup7\n        /* \"CertificateRegistry.sol\":3430:3450  daysSinceEpoch % 365 */\n      tag_98\n      swap2\n      swap1\n      tag_95\n      jump\t// in\n    tag_98:\n        /* \"CertificateRegistry.sol\":3429:3456  (daysSinceEpoch % 365) % 30 */\n      tag_99\n      swap2\n      swap1\n      tag_95\n      jump\t// in\n    tag_99:\n        /* \"CertificateRegistry.sol\":3429:3460  (daysSinceEpoch % 365) % 30 + 1 */\n      tag_100\n      swap2\n      swap1\n      tag_93\n      jump\t// in\n    tag_100:\n        /* \"CertificateRegistry.sol\":3415:3460  uint256 day = (daysSinceEpoch % 365) % 30 + 1 */\n      swap1\n      pop\n        /* \"CertificateRegistry.sol\":3536:3552  _uintToStr(year) */\n      tag_101\n        /* \"CertificateRegistry.sol\":3547:3551  year */\n      dup4\n        /* \"CertificateRegistry.sol\":3536:3546  _uintToStr */\n      tag_102\n        /* \"CertificateRegistry.sol\":3536:3552  _uintToStr(year) */\n      jump\t// in\n    tag_101:\n        /* \"CertificateRegistry.sol\":3584:3586  10 */\n      0x0a\n        /* \"CertificateRegistry.sol\":3576:3581  month */\n      dup4\n        /* \"CertificateRegistry.sol\":3576:3586  month < 10 */\n      lt\n        /* \"CertificateRegistry.sol\":3576:3597  month < 10 ? \"0\" : \"\" */\n      tag_103\n      jumpi\n      mload(0x40)\n      dup1\n      0x20\n      add\n      0x40\n      mstore\n      dup1\n      0x00\n      dup2\n      mstore\n      pop\n      jump(tag_104)\n    tag_103:\n      mload(0x40)\n      dup1\n      0x40\n      add\n      0x40\n      mstore\n      dup1\n      0x01\n      dup2\n      mstore\n      0x20\n      add\n      0x3000000000000000000000000000000000000000000000000000000000000000\n      dup2\n      mstore\n      pop\n    tag_104:\n        /* \"CertificateRegistry.sol\":3599:3616  _uintToStr(month) */\n      tag_105\n        /* \"CertificateRegistry.sol\":3610:3615  month */\n      dup5\n        /* \"CertificateRegistry.sol\":3599:3609  _uintToStr */\n      tag_102\n        /* \"CertificateRegistry.sol\":3599:3616  _uintToStr(month) */\n      jump\t// in\n    tag_105:\n        /* \"CertificateRegistry.sol\":3646:3648  10 */\n      0x0a\n        /* \"CertificateRegistry.sol\":3640:3643  day */\n      dup5\n        /* \"CertificateRegistry.sol\":3640:3648  day < 10 */\n      lt\n        /* \"CertificateRegistry.sol\":3640:3659  day < 10 ? \"0\" : \"\" */\n      tag_106\n      jumpi\n      mload(0x40)\n      dup1\n      0x20\n      add\n      0x40\n      mstore\n      dup1\n      0x00\n      dup2\n      mstore\n      pop\n      jump(tag_107)\n    tag_106:\n      mload(0x40)\n      dup1\n      0x40\n      add\n      0x40\n      mstore\n      dup1\n      0x01\n      dup2\n      mstore\n      0x20\n      add\n      0x3000000000000000000000000000000000000000000000000000000000000000\n      dup2\n      mstore\n      pop\n    tag_107:\n        /* \"CertificateRegistry.sol\":3661:3676  _uintToStr(day) */\n      tag_108\n        /* \"CertificateRegistry.sol\":3672:3675  day */\n      dup6\n        /* \"CertificateRegistry.sol\":3661:3671  _uintToStr */\n      tag_102\n        /* \"CertificateRegistry.sol\":3661:3676  _uintToStr(day) */\n      jump\t// in\n    tag_108:\n        /* \"CertificateRegistry.sol\":3501:3691  abi.encodePacked(... */\n      add(0x20, mload(0x40))\n      tag_109\n      swap6\n      swap5\n      swap4\n      swap3\n      swap2\n      swap1\n      tag_110\n      jump\t// in\n    tag_109:\n      mload(0x40)\n      0x20\n      dup2\n      dup4\n      sub\n      sub\n      dup2\n      mstore\n      swap1\n      0x40\n      mstore\n        /* \"CertificateRegistry.sol\":3473:3702  return string(... */\n      swap5\n      pop\n      pop\n      pop\n      pop\n      pop\n        /* \"CertificateRegistry.sol\":3162:3710  function _formatDate(uint256 timestamp) internal pure returns (string memory) {... */\n      swap2\n      swap1\n      pop\n      jump\t// out\n        /* \"@openzeppelin/contracts/utils/Context.sol\":656:752  function _msgSender() internal view virtual returns (address) {... */\n    tag_82:\n        /* \"@openzeppelin/contracts/utils/Context.sol\":709:716  address */\n      0x00\n        /* \"@openzeppelin/contracts/utils/Context.sol\":735:745  msg.sender */\n      caller\n        /* \"@openzeppelin/contracts/utils/Context.sol\":728:745  return msg.sender */\n      swap1\n      pop\n        /* \"@openzeppelin/contracts/utils/Context.sol\":656:752  function _msgSender() internal view virtual returns (address) {... */\n      swap1\n      jump\t// out\n        /* \"CertificateRegistry.sol\":3718:4226  function _uintToStr(uint256 value) internal pure returns (string memory) {... */\n    tag_102:\n        /* \"CertificateRegistry.sol\":3776:3789  string memory */\n      0x60\n        /* \"CertificateRegistry.sol\":3815:3816  0 */\n      0x00\n        /* \"CertificateRegistry.sol\":3806:3811  value */\n      dup3\n        /* \"CertificateRegistry.sol\":3806:3816  value == 0 */\n      sub\n        /* \"CertificateRegistry.sol\":3802:3828  if (value == 0) return \"0\" */\n      tag_113\n      jumpi\n        /* \"CertificateRegistry.sol\":3818:3828  return \"0\" */\n      mload(0x40)\n      dup1\n      0x40\n      add\n      0x40\n      mstore\n      dup1\n      0x01\n      dup2\n      mstore\n      0x20\n      add\n      0x3000000000000000000000000000000000000000000000000000000000000000\n      dup2\n      mstore\n      pop\n      swap1\n      pop\n      jump(tag_112)\n        /* \"CertificateRegistry.sol\":3802:3828  if (value == 0) return \"0\" */\n    tag_113:\n        /* \"CertificateRegistry.sol\":3839:3851  uint256 temp */\n      0x00\n        /* \"CertificateRegistry.sol\":3854:3859  value */\n      dup3\n        /* \"CertificateRegistry.sol\":3839:3859  uint256 temp = value */\n      swap1\n      pop\n        /* \"CertificateRegistry.sol\":3870:3884  uint256 digits */\n      0x00\n        /* \"CertificateRegistry.sol\":3895:3973  while (temp != 0) {... */\n    tag_114:\n        /* \"CertificateRegistry.sol\":3910:3911  0 */\n      0x00\n        /* \"CertificateRegistry.sol\":3902:3906  temp */\n      dup3\n        /* \"CertificateRegistry.sol\":3902:3911  temp != 0 */\n      eq\n        /* \"CertificateRegistry.sol\":3895:3973  while (temp != 0) {... */\n      tag_115\n      jumpi\n        /* \"CertificateRegistry.sol\":3928:3936  digits++ */\n      dup1\n      dup1\n      tag_116\n      swap1\n      tag_117\n      jump\t// in\n    tag_116:\n      swap2\n      pop\n      pop\n        /* \"CertificateRegistry.sol\":3959:3961  10 */\n      0x0a\n        /* \"CertificateRegistry.sol\":3951:3961  temp /= 10 */\n      dup3\n      tag_118\n      swap2\n      swap1\n      tag_90\n      jump\t// in\n    tag_118:\n      swap2\n      pop\n        /* \"CertificateRegistry.sol\":3895:3973  while (temp != 0) {... */\n      jump(tag_114)\n    tag_115:\n        /* \"CertificateRegistry.sol\":3983:4002  bytes memory buffer */\n      0x00\n        /* \"CertificateRegistry.sol\":4015:4021  digits */\n      dup2\n        /* \"CertificateRegistry.sol\":4005:4022  new bytes(digits) */\n      0xffffffffffffffff\n      dup2\n      gt\n      iszero\n      tag_119\n      jumpi\n      tag_120\n      tag_121\n      jump\t// in\n    tag_120:\n    tag_119:\n      mload(0x40)\n      swap1\n      dup1\n      dup3\n      mstore\n      dup1\n      0x1f\n      add\n      not(0x1f)\n      and\n      0x20\n      add\n      dup3\n      add\n      0x40\n      mstore\n      dup1\n      iszero\n      tag_122\n      jumpi\n      dup2\n      0x20\n      add\n      0x01\n      dup3\n      mul\n      dup1\n      calldatasize\n      dup4\n      calldatacopy\n      dup1\n      dup3\n      add\n      swap2\n      pop\n      pop\n      swap1\n      pop\n    tag_122:\n      pop\n        /* \"CertificateRegistry.sol\":3983:4022  bytes memory buffer = new bytes(digits) */\n      swap1\n      pop\n        /* \"CertificateRegistry.sol\":4033:4187  while (value != 0) {... */\n    tag_123:\n        /* \"CertificateRegistry.sol\":4049:4050  0 */\n      0x00\n        /* \"CertificateRegistry.sol\":4040:4045  value */\n      dup6\n        /* \"CertificateRegistry.sol\":4040:4050  value != 0 */\n      eq\n        /* \"CertificateRegistry.sol\":4033:4187  while (value != 0) {... */\n      tag_124\n      jumpi\n        /* \"CertificateRegistry.sol\":4077:4078  1 */\n      0x01\n        /* \"CertificateRegistry.sol\":4067:4078  digits -= 1 */\n      dup3\n      tag_125\n      swap2\n      swap1\n      tag_126\n      jump\t// in\n    tag_125:\n      swap2\n      pop\n        /* \"CertificateRegistry.sol\":4144:4146  10 */\n      0x0a\n        /* \"CertificateRegistry.sol\":4136:4141  value */\n      dup6\n        /* \"CertificateRegistry.sol\":4136:4146  value % 10 */\n      tag_127\n      swap2\n      swap1\n      tag_95\n      jump\t// in\n    tag_127:\n        /* \"CertificateRegistry.sol\":4123:4125  48 */\n      0x30\n        /* \"CertificateRegistry.sol\":4123:4147  48 + uint256(value % 10) */\n      tag_128\n      swap2\n      swap1\n      tag_93\n      jump\t// in\n    tag_128:\n        /* \"CertificateRegistry.sol\":4110:4149  bytes1(uint8(48 + uint256(value % 10))) */\n      0xf8\n      shl\n        /* \"CertificateRegistry.sol\":4093:4099  buffer */\n      dup2\n        /* \"CertificateRegistry.sol\":4100:4106  digits */\n      dup4\n        /* \"CertificateRegistry.sol\":4093:4107  buffer[digits] */\n      dup2\n      mload\n      dup2\n      lt\n      tag_129\n      jumpi\n      tag_130\n      tag_131\n      jump\t// in\n    tag_130:\n    tag_129:\n      0x20\n      add\n      add\n        /* \"CertificateRegistry.sol\":4093:4149  buffer[digits] = bytes1(uint8(48 + uint256(value % 10))) */\n      swap1\n      not(0xffffffffffffffffffffffffffffffffffffffffffffffffffffffffffffff)\n      and\n      swap1\n      dup2\n      0x00\n      byte\n      swap1\n      mstore8\n      pop\n        /* \"CertificateRegistry.sol\":4173:4175  10 */\n      0x0a\n        /* \"CertificateRegistry.sol\":4164:4175  value /= 10 */\n      dup6\n      tag_132\n      swap2\n      swap1\n      tag_90\n      jump\t// in\n    tag_132:\n      swap5\n      pop\n        /* \"CertificateRegistry.sol\":4033:4187  while (value != 0) {... */\n      jump(tag_123)\n    tag_124:\n        /* \"CertificateRegistry.sol\":4211:4217  buffer */\n      dup1\n        /* \"CertificateRegistry.sol\":4197:4218  return string(buffer) */\n      swap4\n      pop\n      pop\n      pop\n      pop\n        /* \"CertificateRegistry.sol\":3718:4226  function _uintToStr(uint256 value) internal pure returns (string memory) {... */\n    tag_112:\n      swap2\n      swap1\n      pop\n      jump\t// out\n        /* \"#utility.yul\":88:205   */\n    tag_134:\n        /* \"#utility.yul\":197:198   */\n      0x00\n        /* \"#utility.yul\":194:195   */\n      0x00\n        /* \"#utility.yul\":187:199   */\n      revert\n        /* \"#utility.yul\":211:328   */\n    tag_135:\n        /* \"#utility.yul\":320:321   */\n      0x00\n        /* \"#utility.yul\":317:318   */\n      0x00\n        /* \"#utility.yul\":310:322   */\n      revert\n        /* \"#utility.yul\":334:411   */\n    tag_136:\n        /* \"#utility.yul\":371:378   */\n      0x00\n        /* \"#utility.yul\":400:405   */\n      dup2\n        /* \"#utility.yul\":389:405   */\n      swap1\n      pop\n        /* \"#utility.yul\":334:411   */\n      swap2\n      swap1\n      pop\n      jump\t// out\n        /* \"#utility.yul\":417:539   */\n    tag_137:\n        /* \"#utility.yul\":490:514   */\n      tag_206\n        /* \"#utility.yul\":508:513   */\n      dup2\n        /* \"#utility.yul\":490:514   */\n      tag_136\n      jump\t// in\n    tag_206:\n        /* \"#utility.yul\":483:488   */\n      dup2\n        /* \"#utility.yul\":480:515   */\n      eq\n        /* \"#utility.yul\":470:533   */\n      tag_207\n      jumpi\n        /* \"#utility.yul\":529:530   */\n      0x00\n        /* \"#utility.yul\":526:527   */\n      0x00\n        /* \"#utility.yul\":519:531   */\n      revert\n        /* \"#utility.yul\":470:533   */\n    tag_207:\n        /* \"#utility.yul\":417:539   */\n      pop\n      jump\t// out\n        /* \"#utility.yul\":545:684   */\n    tag_138:\n        /* \"#utility.yul\":591:596   */\n      0x00\n        /* \"#utility.yul\":629:635   */\n      dup2\n        /* \"#utility.yul\":616:636   */\n      calldataload\n        /* \"#utility.yul\":607:636   */\n      swap1\n      pop\n        /* \"#utility.yul\":645:678   */\n      tag_209\n        /* \"#utility.yul\":672:677   */\n      dup2\n        /* \"#utility.yul\":645:678   */\n      tag_137\n      jump\t// in\n    tag_209:\n        /* \"#utility.yul\":545:684   */\n      swap3\n      swap2\n      pop\n      pop\n      jump\t// out\n        /* \"#utility.yul\":690:1019   */\n    tag_13:\n        /* \"#utility.yul\":749:755   */\n      0x00\n        /* \"#utility.yul\":798:800   */\n      0x20\n        /* \"#utility.yul\":786:795   */\n      dup3\n        /* \"#utility.yul\":777:784   */\n      dup5\n        /* \"#utility.yul\":773:796   */\n      sub\n        /* \"#utility.yul\":769:801   */\n      slt\n        /* \"#utility.yul\":766:885   */\n      iszero\n      tag_211\n      jumpi\n        /* \"#utility.yul\":804:883   */\n      tag_212\n      tag_134\n      jump\t// in\n    tag_212:\n        /* \"#utility.yul\":766:885   */\n    tag_211:\n        /* \"#utility.yul\":924:925   */\n      0x00\n        /* \"#utility.yul\":949:1002   */\n      tag_213\n        /* \"#utility.yul\":994:1001   */\n      dup5\n        /* \"#utility.yul\":985:991   */\n      dup3\n        /* \"#utility.yul\":974:983   */\n      dup6\n        /* \"#utility.yul\":970:992   */\n      add\n        /* \"#utility.yul\":949:1002   */\n      tag_138\n      jump\t// in\n    tag_213:\n        /* \"#utility.yul\":939:1002   */\n      swap2\n      pop\n        /* \"#utility.yul\":895:1012   */\n      pop\n        /* \"#utility.yul\":690:1019   */\n      swap3\n      swap2\n      pop\n      pop\n      jump\t// out\n        /* \"#utility.yul\":1025:1151   */\n    tag_139:\n        /* \"#utility.yul\":1062:1069   */\n      0x00\n        /* \"#utility.yul\":1102:1144   */\n      0xffffffffffffffffffffffffffffffffffffffff\n        /* \"#utility.yul\":1095:1100   */\n      dup3\n        /* \"#utility.yul\":1091:1145   */\n      and\n        /* \"#utility.yul\":1080:1145   */\n      swap1\n      pop\n        /* \"#utility.yul\":1025:1151   */\n      swap2\n      swap1\n      pop\n      jump\t// out\n        /* \"#utility.yul\":1157:1253   */\n    tag_140:\n        /* \"#utility.yul\":1194:1201   */\n      0x00\n        /* \"#utility.yul\":1223:1247   */\n      tag_216\n        /* \"#utility.yul\":1241:1246   */\n      dup3\n        /* \"#utility.yul\":1223:1247   */\n      tag_139\n      jump\t// in\n    tag_216:\n        /* \"#utility.yul\":1212:1247   */\n      swap1\n      pop\n        /* \"#utility.yul\":1157:1253   */\n      swap2\n      swap1\n      pop\n      jump\t// out\n        /* \"#utility.yul\":1259:1377   */\n    tag_141:\n        /* \"#utility.yul\":1346:1370   */\n      tag_218\n        /* \"#utility.yul\":1364:1369   */\n      dup2\n        /* \"#utility.yul\":1346:1370   */\n      tag_140\n      jump\t// in\n    tag_218:\n        /* \"#utility.yul\":1341:1344   */\n      dup3\n        /* \"#utility.yul\":1334:1371   */\n      mstore\n        /* \"#utility.yul\":1259:1377   */\n      pop\n      pop\n      jump\t// out\n        /* \"#utility.yul\":1383:1482   */\n    tag_142:\n        /* \"#utility.yul\":1435:1441   */\n      0x00\n        /* \"#utility.yul\":1469:1474   */\n      dup2\n        /* \"#utility.yul\":1463:1475   */\n      mload\n        /* \"#utility.yul\":1453:1475   */\n      swap1\n      pop\n        /* \"#utility.yul\":1383:1482   */\n      swap2\n      swap1\n      pop\n      jump\t// out\n        /* \"#utility.yul\":1488:1657   */\n    tag_143:\n        /* \"#utility.yul\":1572:1583   */\n      0x00\n        /* \"#utility.yul\":1606:1612   */\n      dup3\n        /* \"#utility.yul\":1601:1604   */\n      dup3\n        /* \"#utility.yul\":1594:1613   */\n      mstore\n        /* \"#utility.yul\":1646:1650   */\n      0x20\n        /* \"#utility.yul\":1641:1644   */\n      dup3\n        /* \"#utility.yul\":1637:1651   */\n      add\n        /* \"#utility.yul\":1622:1651   */\n      swap1\n      pop\n        /* \"#utility.yul\":1488:1657   */\n      swap3\n      swap2\n      pop\n      pop\n      jump\t// out\n        /* \"#utility.yul\":1663:1802   */\n    tag_144:\n        /* \"#utility.yul\":1752:1758   */\n      dup3\n        /* \"#utility.yul\":1747:1750   */\n      dup2\n        /* \"#utility.yul\":1742:1745   */\n      dup4\n        /* \"#utility.yul\":1736:1759   */\n      mcopy\n        /* \"#utility.yul\":1793:1794   */\n      0x00\n        /* \"#utility.yul\":1784:1790   */\n      dup4\n        /* \"#utility.yul\":1779:1782   */\n      dup4\n        /* \"#utility.yul\":1775:1791   */\n      add\n        /* \"#utility.yul\":1768:1795   */\n      mstore\n        /* \"#utility.yul\":1663:1802   */\n      pop\n      pop\n      pop\n      jump\t// out\n        /* \"#utility.yul\":1808:1910   */\n    tag_145:\n        /* \"#utility.yul\":1849:1855   */\n      0x00\n        /* \"#utility.yul\":1900:1902   */\n      0x1f\n        /* \"#utility.yul\":1896:1903   */\n      not\n        /* \"#utility.yul\":1891:1893   */\n      0x1f\n        /* \"#utility.yul\":1884:1889   */\n      dup4\n        /* \"#utility.yul\":1880:1894   */\n      add\n        /* \"#utility.yul\":1876:1904   */\n      and\n        /* \"#utility.yul\":1866:1904   */\n      swap1\n      pop\n        /* \"#utility.yul\":1808:1910   */\n      swap2\n      swap1\n      pop\n      jump\t// out\n        /* \"#utility.yul\":1916:2293   */\n    tag_146:\n        /* \"#utility.yul\":2004:2007   */\n      0x00\n        /* \"#utility.yul\":2032:2071   */\n      tag_224\n        /* \"#utility.yul\":2065:2070   */\n      dup3\n        /* \"#utility.yul\":2032:2071   */\n      tag_142\n      jump\t// in\n    tag_224:\n        /* \"#utility.yul\":2087:2158   */\n      tag_225\n        /* \"#utility.yul\":2151:2157   */\n      dup2\n        /* \"#utility.yul\":2146:2149   */\n      dup6\n        /* \"#utility.yul\":2087:2158   */\n      tag_143\n      jump\t// in\n    tag_225:\n        /* \"#utility.yul\":2080:2158   */\n      swap4\n      pop\n        /* \"#utility.yul\":2167:2232   */\n      tag_226\n        /* \"#utility.yul\":2225:2231   */\n      dup2\n        /* \"#utility.yul\":2220:2223   */\n      dup6\n        /* \"#utility.yul\":2213:2217   */\n      0x20\n        /* \"#utility.yul\":2206:2211   */\n      dup7\n        /* \"#utility.yul\":2202:2218   */\n      add\n        /* \"#utility.yul\":2167:2232   */\n      tag_144\n      jump\t// in\n    tag_226:\n        /* \"#utility.yul\":2257:2286   */\n      tag_227\n        /* \"#utility.yul\":2279:2285   */\n      dup2\n        /* \"#utility.yul\":2257:2286   */\n      tag_145\n      jump\t// in\n    tag_227:\n        /* \"#utility.yul\":2252:2255   */\n      dup5\n        /* \"#utility.yul\":2248:2287   */\n      add\n        /* \"#utility.yul\":2241:2287   */\n      swap2\n      pop\n        /* \"#utility.yul\":2008:2293   */\n      pop\n        /* \"#utility.yul\":1916:2293   */\n      swap3\n      swap2\n      pop\n      pop\n      jump\t// out\n        /* \"#utility.yul\":2299:2389   */\n    tag_147:\n        /* \"#utility.yul\":2333:2340   */\n      0x00\n        /* \"#utility.yul\":2376:2381   */\n      dup2\n        /* \"#utility.yul\":2369:2382   */\n      iszero\n        /* \"#utility.yul\":2362:2383   */\n      iszero\n        /* \"#utility.yul\":2351:2383   */\n      swap1\n      pop\n        /* \"#utility.yul\":2299:2389   */\n      swap2\n      swap1\n      pop\n      jump\t// out\n        /* \"#utility.yul\":2395:2504   */\n    tag_148:\n        /* \"#utility.yul\":2476:2497   */\n      tag_230\n        /* \"#utility.yul\":2491:2496   */\n      dup2\n        /* \"#utility.yul\":2476:2497   */\n      tag_147\n      jump\t// in\n    tag_230:\n        /* \"#utility.yul\":2471:2474   */\n      dup3\n        /* \"#utility.yul\":2464:2498   */\n      mstore\n        /* \"#utility.yul\":2395:2504   */\n      pop\n      pop\n      jump\t// out\n        /* \"#utility.yul\":2510:3435   */\n    tag_16:\n        /* \"#utility.yul\":2769:2773   */\n      0x00\n        /* \"#utility.yul\":2807:2810   */\n      0xa0\n        /* \"#utility.yul\":2796:2805   */\n      dup3\n        /* \"#utility.yul\":2792:2811   */\n      add\n        /* \"#utility.yul\":2784:2811   */\n      swap1\n      pop\n        /* \"#utility.yul\":2821:2892   */\n      tag_232\n        /* \"#utility.yul\":2889:2890   */\n      0x00\n        /* \"#utility.yul\":2878:2887   */\n      dup4\n        /* \"#utility.yul\":2874:2891   */\n      add\n        /* \"#utility.yul\":2865:2871   */\n      dup9\n        /* \"#utility.yul\":2821:2892   */\n      tag_141\n      jump\t// in\n    tag_232:\n        /* \"#utility.yul\":2939:2948   */\n      dup2\n        /* \"#utility.yul\":2933:2937   */\n      dup2\n        /* \"#utility.yul\":2929:2949   */\n      sub\n        /* \"#utility.yul\":2924:2926   */\n      0x20\n        /* \"#utility.yul\":2913:2922   */\n      dup4\n        /* \"#utility.yul\":2909:2927   */\n      add\n        /* \"#utility.yul\":2902:2950   */\n      mstore\n        /* \"#utility.yul\":2967:3045   */\n      tag_233\n        /* \"#utility.yul\":3040:3044   */\n      dup2\n        /* \"#utility.yul\":3031:3037   */\n      dup8\n        /* \"#utility.yul\":2967:3045   */\n      tag_146\n      jump\t// in\n    tag_233:\n        /* \"#utility.yul\":2959:3045   */\n      swap1\n      pop\n        /* \"#utility.yul\":3092:3101   */\n      dup2\n        /* \"#utility.yul\":3086:3090   */\n      dup2\n        /* \"#utility.yul\":3082:3102   */\n      sub\n        /* \"#utility.yul\":3077:3079   */\n      0x40\n        /* \"#utility.yul\":3066:3075   */\n      dup4\n        /* \"#utility.yul\":3062:3080   */\n      add\n        /* \"#utility.yul\":3055:3103   */\n      mstore\n        /* \"#utility.yul\":3120:3198   */\n      tag_234\n        /* \"#utility.yul\":3193:3197   */\n      dup2\n        /* \"#utility.yul\":3184:3190   */\n      dup7\n        /* \"#utility.yul\":3120:3198   */\n      tag_146\n      jump\t// in\n    tag_234:\n        /* \"#utility.yul\":3112:3198   */\n      swap1\n      pop\n        /* \"#utility.yul\":3245:3254   */\n      dup2\n        /* \"#utility.yul\":3239:3243   */\n      dup2\n        /* \"#utility.yul\":3235:3255   */\n      sub\n        /* \"#utility.yul\":3230:3232   */\n      0x60\n        /* \"#utility.yul\":3219:3228   */\n      dup4\n        /* \"#utility.yul\":3215:3233   */\n      add\n        /* \"#utility.yul\":3208:3256   */\n      mstore\n        /* \"#utility.yul\":3273:3351   */\n      tag_235\n        /* \"#utility.yul\":3346:3350   */\n      dup2\n        /* \"#utility.yul\":3337:3343   */\n      dup6\n        /* \"#utility.yul\":3273:3351   */\n      tag_146\n      jump\t// in\n    tag_235:\n        /* \"#utility.yul\":3265:3351   */\n      swap1\n      pop\n        /* \"#utility.yul\":3361:3428   */\n      tag_236\n        /* \"#utility.yul\":3423:3426   */\n      0x80\n        /* \"#utility.yul\":3412:3421   */\n      dup4\n        /* \"#utility.yul\":3408:3427   */\n      add\n        /* \"#utility.yul\":3399:3405   */\n      dup5\n        /* \"#utility.yul\":3361:3428   */\n      tag_148\n      jump\t// in\n    tag_236:\n        /* \"#utility.yul\":2510:3435   */\n      swap7\n      swap6\n      pop\n      pop\n      pop\n      pop\n      pop\n      pop\n      jump\t// out\n        /* \"#utility.yul\":3441:3663   */\n    tag_20:\n        /* \"#utility.yul\":3534:3538   */\n      0x00\n        /* \"#utility.yul\":3572:3574   */\n      0x20\n        /* \"#utility.yul\":3561:3570   */\n      dup3\n        /* \"#utility.yul\":3557:3575   */\n      add\n        /* \"#utility.yul\":3549:3575   */\n      swap1\n      pop\n        /* \"#utility.yul\":3585:3656   */\n      tag_238\n        /* \"#utility.yul\":3653:3654   */\n      0x00\n        /* \"#utility.yul\":3642:3651   */\n      dup4\n        /* \"#utility.yul\":3638:3655   */\n      add\n        /* \"#utility.yul\":3629:3635   */\n      dup5\n        /* \"#utility.yul\":3585:3656   */\n      tag_141\n      jump\t// in\n    tag_238:\n        /* \"#utility.yul\":3441:3663   */\n      swap3\n      swap2\n      pop\n      pop\n      jump\t// out\n        /* \"#utility.yul\":3669:3791   */\n    tag_149:\n        /* \"#utility.yul\":3742:3766   */\n      tag_240\n        /* \"#utility.yul\":3760:3765   */\n      dup2\n        /* \"#utility.yul\":3742:3766   */\n      tag_140\n      jump\t// in\n    tag_240:\n        /* \"#utility.yul\":3735:3740   */\n      dup2\n        /* \"#utility.yul\":3732:3767   */\n      eq\n        /* \"#utility.yul\":3722:3785   */\n      tag_241\n      jumpi\n        /* \"#utility.yul\":3781:3782   */\n      0x00\n        /* \"#utility.yul\":3778:3779   */\n      0x00\n        /* \"#utility.yul\":3771:3783   */\n      revert\n        /* \"#utility.yul\":3722:3785   */\n    tag_241:\n        /* \"#utility.yul\":3669:3791   */\n      pop\n      jump\t// out\n        /* \"#utility.yul\":3797:3936   */\n    tag_150:\n        /* \"#utility.yul\":3843:3848   */\n      0x00\n        /* \"#utility.yul\":3881:3887   */\n      dup2\n        /* \"#utility.yul\":3868:3888   */\n      calldataload\n        /* \"#utility.yul\":3859:3888   */\n      swap1\n      pop\n        /* \"#utility.yul\":3897:3930   */\n      tag_243\n        /* \"#utility.yul\":3924:3929   */\n      dup2\n        /* \"#utility.yul\":3897:3930   */\n      tag_149\n      jump\t// in\n    tag_243:\n        /* \"#utility.yul\":3797:3936   */\n      swap3\n      swap2\n      pop\n      pop\n      jump\t// out\n        /* \"#utility.yul\":3942:4059   */\n    tag_151:\n        /* \"#utility.yul\":4051:4052   */\n      0x00\n        /* \"#utility.yul\":4048:4049   */\n      0x00\n        /* \"#utility.yul\":4041:4053   */\n      revert\n        /* \"#utility.yul\":4065:4182   */\n    tag_152:\n        /* \"#utility.yul\":4174:4175   */\n      0x00\n        /* \"#utility.yul\":4171:4172   */\n      0x00\n        /* \"#utility.yul\":4164:4176   */\n      revert\n        /* \"#utility.yul\":4188:4305   */\n    tag_153:\n        /* \"#utility.yul\":4297:4298   */\n      0x00\n        /* \"#utility.yul\":4294:4295   */\n      0x00\n        /* \"#utility.yul\":4287:4299   */\n      revert\n        /* \"#utility.yul\":4325:4878   */\n    tag_154:\n        /* \"#utility.yul\":4383:4391   */\n      0x00\n        /* \"#utility.yul\":4393:4399   */\n      0x00\n        /* \"#utility.yul\":4443:4446   */\n      dup4\n        /* \"#utility.yul\":4436:4440   */\n      0x1f\n        /* \"#utility.yul\":4428:4434   */\n      dup5\n        /* \"#utility.yul\":4424:4441   */\n      add\n        /* \"#utility.yul\":4420:4447   */\n      slt\n        /* \"#utility.yul\":4410:4532   */\n      tag_248\n      jumpi\n        /* \"#utility.yul\":4451:4530   */\n      tag_249\n      tag_151\n      jump\t// in\n    tag_249:\n        /* \"#utility.yul\":4410:4532   */\n    tag_248:\n        /* \"#utility.yul\":4564:4570   */\n      dup3\n        /* \"#utility.yul\":4551:4571   */\n      calldataload\n        /* \"#utility.yul\":4541:4571   */\n      swap1\n      pop\n        /* \"#utility.yul\":4594:4612   */\n      0xffffffffffffffff\n        /* \"#utility.yul\":4586:4592   */\n      dup2\n        /* \"#utility.yul\":4583:4613   */\n      gt\n        /* \"#utility.yul\":4580:4697   */\n      iszero\n      tag_250\n      jumpi\n        /* \"#utility.yul\":4616:4695   */\n      tag_251\n      tag_152\n      jump\t// in\n    tag_251:\n        /* \"#utility.yul\":4580:4697   */\n    tag_250:\n        /* \"#utility.yul\":4730:4734   */\n      0x20\n        /* \"#utility.yul\":4722:4728   */\n      dup4\n        /* \"#utility.yul\":4718:4735   */\n      add\n        /* \"#utility.yul\":4706:4735   */\n      swap2\n      pop\n        /* \"#utility.yul\":4784:4787   */\n      dup4\n        /* \"#utility.yul\":4776:4780   */\n      0x01\n        /* \"#utility.yul\":4768:4774   */\n      dup3\n        /* \"#utility.yul\":4764:4781   */\n      mul\n        /* \"#utility.yul\":4754:4762   */\n      dup4\n        /* \"#utility.yul\":4750:4782   */\n      add\n        /* \"#utility.yul\":4747:4788   */\n      gt\n        /* \"#utility.yul\":4744:4872   */\n      iszero\n      tag_252\n      jumpi\n        /* \"#utility.yul\":4791:4870   */\n      tag_253\n      tag_153\n      jump\t// in\n    tag_253:\n        /* \"#utility.yul\":4744:4872   */\n    tag_252:\n        /* \"#utility.yul\":4325:4878   */\n      swap3\n      pop\n      swap3\n      swap1\n      pop\n      jump\t// out\n        /* \"#utility.yul\":4884:4961   */\n    tag_155:\n        /* \"#utility.yul\":4921:4928   */\n      0x00\n        /* \"#utility.yul\":4950:4955   */\n      dup2\n        /* \"#utility.yul\":4939:4955   */\n      swap1\n      pop\n        /* \"#utility.yul\":4884:4961   */\n      swap2\n      swap1\n      pop\n      jump\t// out\n        /* \"#utility.yul\":4967:5089   */\n    tag_156:\n        /* \"#utility.yul\":5040:5064   */\n      tag_256\n        /* \"#utility.yul\":5058:5063   */\n      dup2\n        /* \"#utility.yul\":5040:5064   */\n      tag_155\n      jump\t// in\n    tag_256:\n        /* \"#utility.yul\":5033:5038   */\n      dup2\n        /* \"#utility.yul\":5030:5065   */\n      eq\n        /* \"#utility.yul\":5020:5083   */\n      tag_257\n      jumpi\n        /* \"#utility.yul\":5079:5080   */\n      0x00\n        /* \"#utility.yul\":5076:5077   */\n      0x00\n        /* \"#utility.yul\":5069:5081   */\n      revert\n        /* \"#utility.yul\":5020:5083   */\n    tag_257:\n        /* \"#utility.yul\":4967:5089   */\n      pop\n      jump\t// out\n        /* \"#utility.yul\":5095:5234   */\n    tag_157:\n        /* \"#utility.yul\":5141:5146   */\n      0x00\n        /* \"#utility.yul\":5179:5185   */\n      dup2\n        /* \"#utility.yul\":5166:5186   */\n      calldataload\n        /* \"#utility.yul\":5157:5186   */\n      swap1\n      pop\n        /* \"#utility.yul\":5195:5228   */\n      tag_259\n        /* \"#utility.yul\":5222:5227   */\n      dup2\n        /* \"#utility.yul\":5195:5228   */\n      tag_156\n      jump\t// in\n    tag_259:\n        /* \"#utility.yul\":5095:5234   */\n      swap3\n      swap2\n      pop\n      pop\n      jump\t// out\n        /* \"#utility.yul\":5240:6405   */\n    tag_23:\n        /* \"#utility.yul\":5350:5356   */\n      0x00\n        /* \"#utility.yul\":5358:5364   */\n      0x00\n        /* \"#utility.yul\":5366:5372   */\n      0x00\n        /* \"#utility.yul\":5374:5380   */\n      0x00\n        /* \"#utility.yul\":5382:5388   */\n      0x00\n        /* \"#utility.yul\":5390:5396   */\n      0x00\n        /* \"#utility.yul\":5439:5442   */\n      0x80\n        /* \"#utility.yul\":5427:5436   */\n      dup8\n        /* \"#utility.yul\":5418:5425   */\n      dup10\n        /* \"#utility.yul\":5414:5437   */\n      sub\n        /* \"#utility.yul\":5410:5443   */\n      slt\n        /* \"#utility.yul\":5407:5527   */\n      iszero\n      tag_261\n      jumpi\n        /* \"#utility.yul\":5446:5525   */\n      tag_262\n      tag_134\n      jump\t// in\n    tag_262:\n        /* \"#utility.yul\":5407:5527   */\n    tag_261:\n        /* \"#utility.yul\":5566:5567   */\n      0x00\n        /* \"#utility.yul\":5591:5644   */\n      tag_263\n        /* \"#utility.yul\":5636:5643   */\n      dup10\n        /* \"#utility.yul\":5627:5633   */\n      dup3\n        /* \"#utility.yul\":5616:5625   */\n      dup11\n        /* \"#utility.yul\":5612:5634   */\n      add\n        /* \"#utility.yul\":5591:5644   */\n      tag_150\n      jump\t// in\n    tag_263:\n        /* \"#utility.yul\":5581:5644   */\n      swap7\n      pop\n        /* \"#utility.yul\":5537:5654   */\n      pop\n        /* \"#utility.yul\":5721:5723   */\n      0x20\n        /* \"#utility.yul\":5710:5719   */\n      dup8\n        /* \"#utility.yul\":5706:5724   */\n      add\n        /* \"#utility.yul\":5693:5725   */\n      calldataload\n        /* \"#utility.yul\":5752:5770   */\n      0xffffffffffffffff\n        /* \"#utility.yul\":5744:5750   */\n      dup2\n        /* \"#utility.yul\":5741:5771   */\n      gt\n        /* \"#utility.yul\":5738:5855   */\n      iszero\n      tag_264\n      jumpi\n        /* \"#utility.yul\":5774:5853   */\n      tag_265\n      tag_135\n      jump\t// in\n    tag_265:\n        /* \"#utility.yul\":5738:5855   */\n    tag_264:\n        /* \"#utility.yul\":5887:5952   */\n      tag_266\n        /* \"#utility.yul\":5944:5951   */\n      dup10\n        /* \"#utility.yul\":5935:5941   */\n      dup3\n        /* \"#utility.yul\":5924:5933   */\n      dup11\n        /* \"#utility.yul\":5920:5942   */\n      add\n        /* \"#utility.yul\":5887:5952   */\n      tag_154\n      jump\t// in\n    tag_266:\n        /* \"#utility.yul\":5869:5952   */\n      swap6\n      pop\n      swap6\n      pop\n        /* \"#utility.yul\":5664:5962   */\n      pop\n        /* \"#utility.yul\":6029:6031   */\n      0x40\n        /* \"#utility.yul\":6018:6027   */\n      dup8\n        /* \"#utility.yul\":6014:6032   */\n      add\n        /* \"#utility.yul\":6001:6033   */\n      calldataload\n        /* \"#utility.yul\":6060:6078   */\n      0xffffffffffffffff\n        /* \"#utility.yul\":6052:6058   */\n      dup2\n        /* \"#utility.yul\":6049:6079   */\n      gt\n        /* \"#utility.yul\":6046:6163   */\n      iszero\n      tag_267\n      jumpi\n        /* \"#utility.yul\":6082:6161   */\n      tag_268\n      tag_135\n      jump\t// in\n    tag_268:\n        /* \"#utility.yul\":6046:6163   */\n    tag_267:\n        /* \"#utility.yul\":6195:6260   */\n      tag_269\n        /* \"#utility.yul\":6252:6259   */\n      dup10\n        /* \"#utility.yul\":6243:6249   */\n      dup3\n        /* \"#utility.yul\":6232:6241   */\n      dup11\n        /* \"#utility.yul\":6228:6250   */\n      add\n        /* \"#utility.yul\":6195:6260   */\n      tag_154\n      jump\t// in\n    tag_269:\n        /* \"#utility.yul\":6177:6260   */\n      swap4\n      pop\n      swap4\n      pop\n        /* \"#utility.yul\":5972:6270   */\n      pop\n        /* \"#utility.yul\":6309:6311   */\n      0x60\n        /* \"#utility.yul\":6335:6388   */\n      tag_270\n        /* \"#utility.yul\":6380:6387   */\n      dup10\n        /* \"#utility.yul\":6371:6377   */\n      dup3\n        /* \"#utility.yul\":6360:6369   */\n      dup11\n        /* \"#utility.yul\":6356:6378   */\n      add\n        /* \"#utility.yul\":6335:6388   */\n      tag_157\n      jump\t// in\n    tag_270:\n        /* \"#utility.yul\":6325:6388   */\n      swap2\n      pop\n        /* \"#utility.yul\":6280:6398   */\n      pop\n        /* \"#utility.yul\":5240:6405   */\n      swap3\n      swap6\n      pop\n      swap3\n      swap6\n      pop\n      swap3\n      swap6\n      jump\t// out\n        /* \"#utility.yul\":6411:6529   */\n    tag_158:\n        /* \"#utility.yul\":6498:6522   */\n      tag_272\n        /* \"#utility.yul\":6516:6521   */\n      dup2\n        /* \"#utility.yul\":6498:6522   */\n      tag_136\n      jump\t// in\n    tag_272:\n        /* \"#utility.yul\":6493:6496   */\n      dup3\n        /* \"#utility.yul\":6486:6523   */\n      mstore\n        /* \"#utility.yul\":6411:6529   */\n      pop\n      pop\n      jump\t// out\n        /* \"#utility.yul\":6535:6757   */\n    tag_26:\n        /* \"#utility.yul\":6628:6632   */\n      0x00\n        /* \"#utility.yul\":6666:6668   */\n      0x20\n        /* \"#utility.yul\":6655:6664   */\n      dup3\n        /* \"#utility.yul\":6651:6669   */\n      add\n        /* \"#utility.yul\":6643:6669   */\n      swap1\n      pop\n        /* \"#utility.yul\":6679:6750   */\n      tag_274\n        /* \"#utility.yul\":6747:6748   */\n      0x00\n        /* \"#utility.yul\":6736:6745   */\n      dup4\n        /* \"#utility.yul\":6732:6749   */\n      add\n        /* \"#utility.yul\":6723:6729   */\n      dup5\n        /* \"#utility.yul\":6679:6750   */\n      tag_158\n      jump\t// in\n    tag_274:\n        /* \"#utility.yul\":6535:6757   */\n      swap3\n      swap2\n      pop\n      pop\n      jump\t// out\n        /* \"#utility.yul\":6763:7092   */\n    tag_29:\n        /* \"#utility.yul\":6822:6828   */\n      0x00\n        /* \"#utility.yul\":6871:6873   */\n      0x20\n        /* \"#utility.yul\":6859:6868   */\n      dup3\n        /* \"#utility.yul\":6850:6857   */\n      dup5\n        /* \"#utility.yul\":6846:6869   */\n      sub\n        /* \"#utility.yul\":6842:6874   */\n      slt\n        /* \"#utility.yul\":6839:6958   */\n      iszero\n      tag_276\n      jumpi\n        /* \"#utility.yul\":6877:6956   */\n      tag_277\n      tag_134\n      jump\t// in\n    tag_277:\n        /* \"#utility.yul\":6839:6958   */\n    tag_276:\n        /* \"#utility.yul\":6997:6998   */\n      0x00\n        /* \"#utility.yul\":7022:7075   */\n      tag_278\n        /* \"#utility.yul\":7067:7074   */\n      dup5\n        /* \"#utility.yul\":7058:7064   */\n      dup3\n        /* \"#utility.yul\":7047:7056   */\n      dup6\n        /* \"#utility.yul\":7043:7065   */\n      add\n        /* \"#utility.yul\":7022:7075   */\n      tag_150\n      jump\t// in\n    tag_278:\n        /* \"#utility.yul\":7012:7075   */\n      swap2\n      pop\n        /* \"#utility.yul\":6968:7085   */\n      pop\n        /* \"#utility.yul\":6763:7092   */\n      swap3\n      swap2\n      pop\n      pop\n      jump\t// out\n        /* \"#utility.yul\":7098:7212   */\n    tag_159:\n        /* \"#utility.yul\":7165:7171   */\n      0x00\n        /* \"#utility.yul\":7199:7204   */\n      dup2\n        /* \"#utility.yul\":7193:7205   */\n      mload\n        /* \"#utility.yul\":7183:7205   */\n      swap1\n      pop\n        /* \"#utility.yul\":7098:7212   */\n      swap2\n      swap1\n      pop\n      jump\t// out\n        /* \"#utility.yul\":7218:7402   */\n    tag_160:\n        /* \"#utility.yul\":7317:7328   */\n      0x00\n        /* \"#utility.yul\":7351:7357   */\n      dup3\n        /* \"#utility.yul\":7346:7349   */\n      dup3\n        /* \"#utility.yul\":7339:7358   */\n      mstore\n        /* \"#utility.yul\":7391:7395   */\n      0x20\n        /* \"#utility.yul\":7386:7389   */\n      dup3\n        /* \"#utility.yul\":7382:7396   */\n      add\n        /* \"#utility.yul\":7367:7396   */\n      swap1\n      pop\n        /* \"#utility.yul\":7218:7402   */\n      swap3\n      swap2\n      pop\n      pop\n      jump\t// out\n        /* \"#utility.yul\":7408:7540   */\n    tag_161:\n        /* \"#utility.yul\":7475:7479   */\n      0x00\n        /* \"#utility.yul\":7498:7501   */\n      dup2\n        /* \"#utility.yul\":7490:7501   */\n      swap1\n      pop\n        /* \"#utility.yul\":7528:7532   */\n      0x20\n        /* \"#utility.yul\":7523:7526   */\n      dup3\n        /* \"#utility.yul\":7519:7533   */\n      add\n        /* \"#utility.yul\":7511:7533   */\n      swap1\n      pop\n        /* \"#utility.yul\":7408:7540   */\n      swap2\n      swap1\n      pop\n      jump\t// out\n        /* \"#utility.yul\":7546:7654   */\n    tag_162:\n        /* \"#utility.yul\":7623:7647   */\n      tag_283\n        /* \"#utility.yul\":7641:7646   */\n      dup2\n        /* \"#utility.yul\":7623:7647   */\n      tag_136\n      jump\t// in\n    tag_283:\n        /* \"#utility.yul\":7618:7621   */\n      dup3\n        /* \"#utility.yul\":7611:7648   */\n      mstore\n        /* \"#utility.yul\":7546:7654   */\n      pop\n      pop\n      jump\t// out\n        /* \"#utility.yul\":7660:7839   */\n    tag_163:\n        /* \"#utility.yul\":7729:7739   */\n      0x00\n        /* \"#utility.yul\":7750:7796   */\n      tag_285\n        /* \"#utility.yul\":7792:7795   */\n      dup4\n        /* \"#utility.yul\":7784:7790   */\n      dup4\n        /* \"#utility.yul\":7750:7796   */\n      tag_162\n      jump\t// in\n    tag_285:\n        /* \"#utility.yul\":7828:7832   */\n      0x20\n        /* \"#utility.yul\":7823:7826   */\n      dup4\n        /* \"#utility.yul\":7819:7833   */\n      add\n        /* \"#utility.yul\":7805:7833   */\n      swap1\n      pop\n        /* \"#utility.yul\":7660:7839   */\n      swap3\n      swap2\n      pop\n      pop\n      jump\t// out\n        /* \"#utility.yul\":7845:7958   */\n    tag_164:\n        /* \"#utility.yul\":7915:7919   */\n      0x00\n        /* \"#utility.yul\":7947:7951   */\n      0x20\n        /* \"#utility.yul\":7942:7945   */\n      dup3\n        /* \"#utility.yul\":7938:7952   */\n      add\n        /* \"#utility.yul\":7930:7952   */\n      swap1\n      pop\n        /* \"#utility.yul\":7845:7958   */\n      swap2\n      swap1\n      pop\n      jump\t// out\n        /* \"#utility.yul\":7994:8726   */\n    tag_165:\n        /* \"#utility.yul\":8113:8116   */\n      0x00\n        /* \"#utility.yul\":8142:8196   */\n      tag_288\n        /* \"#utility.yul\":8190:8195   */\n      dup3\n        /* \"#utility.yul\":8142:8196   */\n      tag_159\n      jump\t// in\n    tag_288:\n        /* \"#utility.yul\":8212:8298   */\n      tag_289\n        /* \"#utility.yul\":8291:8297   */\n      dup2\n        /* \"#utility.yul\":8286:8289   */\n      dup6\n        /* \"#utility.yul\":8212:8298   */\n      tag_160\n      jump\t// in\n    tag_289:\n        /* \"#utility.yul\":8205:8298   */\n      swap4\n      pop\n        /* \"#utility.yul\":8322:8378   */\n      tag_290\n        /* \"#utility.yul\":8372:8377   */\n      dup4\n        /* \"#utility.yul\":8322:8378   */\n      tag_161\n      jump\t// in\n    tag_290:\n        /* \"#utility.yul\":8401:8408   */\n      dup1\n        /* \"#utility.yul\":8432:8433   */\n      0x00\n        /* \"#utility.yul\":8417:8701   */\n    tag_291:\n        /* \"#utility.yul\":8442:8448   */\n      dup4\n        /* \"#utility.yul\":8439:8440   */\n      dup2\n        /* \"#utility.yul\":8436:8449   */\n      lt\n        /* \"#utility.yul\":8417:8701   */\n      iszero\n      tag_293\n      jumpi\n        /* \"#utility.yul\":8518:8524   */\n      dup2\n        /* \"#utility.yul\":8512:8525   */\n      mload\n        /* \"#utility.yul\":8545:8608   */\n      tag_294\n        /* \"#utility.yul\":8604:8607   */\n      dup9\n        /* \"#utility.yul\":8589:8602   */\n      dup3\n        /* \"#utility.yul\":8545:8608   */\n      tag_163\n      jump\t// in\n    tag_294:\n        /* \"#utility.yul\":8538:8608   */\n      swap8\n      pop\n        /* \"#utility.yul\":8631:8691   */\n      tag_295\n        /* \"#utility.yul\":8684:8690   */\n      dup4\n        /* \"#utility.yul\":8631:8691   */\n      tag_164\n      jump\t// in\n    tag_295:\n        /* \"#utility.yul\":8621:8691   */\n      swap3\n      pop\n        /* \"#utility.yul\":8477:8701   */\n      pop\n        /* \"#utility.yul\":8464:8465   */\n      0x01\n        /* \"#utility.yul\":8461:8462   */\n      dup2\n        /* \"#utility.yul\":8457:8466   */\n      add\n        /* \"#utility.yul\":8452:8466   */\n      swap1\n      pop\n        /* \"#utility.yul\":8417:8701   */\n      jump(tag_291)\n    tag_293:\n        /* \"#utility.yul\":8421:8435   */\n      pop\n        /* \"#utility.yul\":8717:8720   */\n      dup6\n        /* \"#utility.yul\":8710:8720   */\n      swap4\n      pop\n        /* \"#utility.yul\":8118:8726   */\n      pop\n      pop\n      pop\n        /* \"#utility.yul\":7994:8726   */\n      swap3\n      swap2\n      pop\n      pop\n      jump\t// out\n        /* \"#utility.yul\":8732:9105   */\n    tag_32:\n        /* \"#utility.yul\":8875:8879   */\n      0x00\n        /* \"#utility.yul\":8913:8915   */\n      0x20\n        /* \"#utility.yul\":8902:8911   */\n      dup3\n        /* \"#utility.yul\":8898:8916   */\n      add\n        /* \"#utility.yul\":8890:8916   */\n      swap1\n      pop\n        /* \"#utility.yul\":8962:8971   */\n      dup2\n        /* \"#utility.yul\":8956:8960   */\n      dup2\n        /* \"#utility.yul\":8952:8972   */\n      sub\n        /* \"#utility.yul\":8948:8949   */\n      0x00\n        /* \"#utility.yul\":8937:8946   */\n      dup4\n        /* \"#utility.yul\":8933:8950   */\n      add\n        /* \"#utility.yul\":8926:8973   */\n      mstore\n        /* \"#utility.yul\":8990:9098   */\n      tag_297\n        /* \"#utility.yul\":9093:9097   */\n      dup2\n        /* \"#utility.yul\":9084:9090   */\n      dup5\n        /* \"#utility.yul\":8990:9098   */\n      tag_165\n      jump\t// in\n    tag_297:\n        /* \"#utility.yul\":8982:9098   */\n      swap1\n      pop\n        /* \"#utility.yul\":8732:9105   */\n      swap3\n      swap2\n      pop\n      pop\n      jump\t// out\n        /* \"#utility.yul\":9111:9291   */\n    tag_166:\n        /* \"#utility.yul\":9159:9236   */\n      0x4e487b7100000000000000000000000000000000000000000000000000000000\n        /* \"#utility.yul\":9156:9157   */\n      0x00\n        /* \"#utility.yul\":9149:9237   */\n      mstore\n        /* \"#utility.yul\":9256:9260   */\n      0x22\n        /* \"#utility.yul\":9253:9254   */\n      0x04\n        /* \"#utility.yul\":9246:9261   */\n      mstore\n        /* \"#utility.yul\":9280:9284   */\n      0x24\n        /* \"#utility.yul\":9277:9278   */\n      0x00\n        /* \"#utility.yul\":9270:9285   */\n      revert\n        /* \"#utility.yul\":9297:9617   */\n    tag_44:\n        /* \"#utility.yul\":9341:9347   */\n      0x00\n        /* \"#utility.yul\":9378:9379   */\n      0x02\n        /* \"#utility.yul\":9372:9376   */\n      dup3\n        /* \"#utility.yul\":9368:9380   */\n      div\n        /* \"#utility.yul\":9358:9380   */\n      swap1\n      pop\n        /* \"#utility.yul\":9425:9426   */\n      0x01\n        /* \"#utility.yul\":9419:9423   */\n      dup3\n        /* \"#utility.yul\":9415:9427   */\n      and\n        /* \"#utility.yul\":9446:9464   */\n      dup1\n        /* \"#utility.yul\":9436:9517   */\n      tag_300\n      jumpi\n        /* \"#utility.yul\":9502:9506   */\n      0x7f\n        /* \"#utility.yul\":9494:9500   */\n      dup3\n        /* \"#utility.yul\":9490:9507   */\n      and\n        /* \"#utility.yul\":9480:9507   */\n      swap2\n      pop\n        /* \"#utility.yul\":9436:9517   */\n    tag_300:\n        /* \"#utility.yul\":9564:9566   */\n      0x20\n        /* \"#utility.yul\":9556:9562   */\n      dup3\n        /* \"#utility.yul\":9553:9567   */\n      lt\n        /* \"#utility.yul\":9533:9551   */\n      dup2\n        /* \"#utility.yul\":9530:9568   */\n      sub\n        /* \"#utility.yul\":9527:9611   */\n      tag_301\n      jumpi\n        /* \"#utility.yul\":9583:9601   */\n      tag_302\n      tag_166\n      jump\t// in\n    tag_302:\n        /* \"#utility.yul\":9527:9611   */\n    tag_301:\n        /* \"#utility.yul\":9348:9617   */\n      pop\n        /* \"#utility.yul\":9297:9617   */\n      swap2\n      swap1\n      pop\n      jump\t// out\n        /* \"#utility.yul\":9623:9717   */\n    tag_167:\n        /* \"#utility.yul\":9656:9664   */\n      0x00\n        /* \"#utility.yul\":9704:9709   */\n      dup2\n        /* \"#utility.yul\":9700:9702   */\n      0x60\n        /* \"#utility.yul\":9696:9710   */\n      shl\n        /* \"#utility.yul\":9675:9710   */\n      swap1\n      pop\n        /* \"#utility.yul\":9623:9717   */\n      swap2\n      swap1\n      pop\n      jump\t// out\n        /* \"#utility.yul\":9723:9817   */\n    tag_168:\n        /* \"#utility.yul\":9762:9769   */\n      0x00\n        /* \"#utility.yul\":9791:9811   */\n      tag_305\n        /* \"#utility.yul\":9805:9810   */\n      dup3\n        /* \"#utility.yul\":9791:9811   */\n      tag_167\n      jump\t// in\n    tag_305:\n        /* \"#utility.yul\":9780:9811   */\n      swap1\n      pop\n        /* \"#utility.yul\":9723:9817   */\n      swap2\n      swap1\n      pop\n      jump\t// out\n        /* \"#utility.yul\":9823:9923   */\n    tag_169:\n        /* \"#utility.yul\":9862:9869   */\n      0x00\n        /* \"#utility.yul\":9891:9917   */\n      tag_307\n        /* \"#utility.yul\":9911:9916   */\n      dup3\n        /* \"#utility.yul\":9891:9917   */\n      tag_168\n      jump\t// in\n    tag_307:\n        /* \"#utility.yul\":9880:9917   */\n      swap1\n      pop\n        /* \"#utility.yul\":9823:9923   */\n      swap2\n      swap1\n      pop\n      jump\t// out\n        /* \"#utility.yul\":9929:10086   */\n    tag_170:\n        /* \"#utility.yul\":10034:10079   */\n      tag_309\n        /* \"#utility.yul\":10054:10078   */\n      tag_310\n        /* \"#utility.yul\":10072:10077   */\n      dup3\n        /* \"#utility.yul\":10054:10078   */\n      tag_140\n      jump\t// in\n    tag_310:\n        /* \"#utility.yul\":10034:10079   */\n      tag_169\n      jump\t// in\n    tag_309:\n        /* \"#utility.yul\":10029:10032   */\n      dup3\n        /* \"#utility.yul\":10022:10080   */\n      mstore\n        /* \"#utility.yul\":9929:10086   */\n      pop\n      pop\n      jump\t// out\n        /* \"#utility.yul\":10092:10240   */\n    tag_171:\n        /* \"#utility.yul\":10194:10205   */\n      0x00\n        /* \"#utility.yul\":10231:10234   */\n      dup2\n        /* \"#utility.yul\":10216:10234   */\n      swap1\n      pop\n        /* \"#utility.yul\":10092:10240   */\n      swap3\n      swap2\n      pop\n      pop\n      jump\t// out\n        /* \"#utility.yul\":10246:10394   */\n    tag_172:\n        /* \"#utility.yul\":10344:10350   */\n      dup3\n        /* \"#utility.yul\":10339:10342   */\n      dup2\n        /* \"#utility.yul\":10334:10337   */\n      dup4\n        /* \"#utility.yul\":10321:10351   */\n      calldatacopy\n        /* \"#utility.yul\":10385:10386   */\n      0x00\n        /* \"#utility.yul\":10376:10382   */\n      dup4\n        /* \"#utility.yul\":10371:10374   */\n      dup4\n        /* \"#utility.yul\":10367:10383   */\n      add\n        /* \"#utility.yul\":10360:10387   */\n      mstore\n        /* \"#utility.yul\":10246:10394   */\n      pop\n      pop\n      pop\n      jump\t// out\n        /* \"#utility.yul\":10424:10754   */\n    tag_173:\n        /* \"#utility.yul\":10540:10543   */\n      0x00\n        /* \"#utility.yul\":10561:10650   */\n      tag_314\n        /* \"#utility.yul\":10643:10649   */\n      dup4\n        /* \"#utility.yul\":10638:10641   */\n      dup6\n        /* \"#utility.yul\":10561:10650   */\n      tag_171\n      jump\t// in\n    tag_314:\n        /* \"#utility.yul\":10554:10650   */\n      swap4\n      pop\n        /* \"#utility.yul\":10660:10716   */\n      tag_315\n        /* \"#utility.yul\":10709:10715   */\n      dup4\n        /* \"#utility.yul\":10704:10707   */\n      dup6\n        /* \"#utility.yul\":10697:10702   */\n      dup5\n        /* \"#utility.yul\":10660:10716   */\n      tag_172\n      jump\t// in\n    tag_315:\n        /* \"#utility.yul\":10741:10747   */\n      dup3\n        /* \"#utility.yul\":10736:10739   */\n      dup5\n        /* \"#utility.yul\":10732:10748   */\n      add\n        /* \"#utility.yul\":10725:10748   */\n      swap1\n      pop\n        /* \"#utility.yul\":10424:10754   */\n      swap4\n      swap3\n      pop\n      pop\n      pop\n      jump\t// out\n        /* \"#utility.yul\":10760:10839   */\n    tag_174:\n        /* \"#utility.yul\":10799:10806   */\n      0x00\n        /* \"#utility.yul\":10828:10833   */\n      dup2\n        /* \"#utility.yul\":10817:10833   */\n      swap1\n      pop\n        /* \"#utility.yul\":10760:10839   */\n      swap2\n      swap1\n      pop\n      jump\t// out\n        /* \"#utility.yul\":10845:11002   */\n    tag_175:\n        /* \"#utility.yul\":10950:10995   */\n      tag_318\n        /* \"#utility.yul\":10970:10994   */\n      tag_319\n        /* \"#utility.yul\":10988:10993   */\n      dup3\n        /* \"#utility.yul\":10970:10994   */\n      tag_155\n      jump\t// in\n    tag_319:\n        /* \"#utility.yul\":10950:10995   */\n      tag_174\n      jump\t// in\n    tag_318:\n        /* \"#utility.yul\":10945:10948   */\n      dup3\n        /* \"#utility.yul\":10938:10996   */\n      mstore\n        /* \"#utility.yul\":10845:11002   */\n      pop\n      pop\n      jump\t// out\n        /* \"#utility.yul\":11008:11765   */\n    tag_61:\n        /* \"#utility.yul\":11264:11267   */\n      0x00\n        /* \"#utility.yul\":11279:11354   */\n      tag_321\n        /* \"#utility.yul\":11350:11353   */\n      dup3\n        /* \"#utility.yul\":11341:11347   */\n      dup10\n        /* \"#utility.yul\":11279:11354   */\n      tag_170\n      jump\t// in\n    tag_321:\n        /* \"#utility.yul\":11379:11381   */\n      0x14\n        /* \"#utility.yul\":11374:11377   */\n      dup3\n        /* \"#utility.yul\":11370:11382   */\n      add\n        /* \"#utility.yul\":11363:11382   */\n      swap2\n      pop\n        /* \"#utility.yul\":11399:11504   */\n      tag_322\n        /* \"#utility.yul\":11500:11503   */\n      dup3\n        /* \"#utility.yul\":11491:11497   */\n      dup8\n        /* \"#utility.yul\":11483:11489   */\n      dup10\n        /* \"#utility.yul\":11399:11504   */\n      tag_173\n      jump\t// in\n    tag_322:\n        /* \"#utility.yul\":11392:11504   */\n      swap2\n      pop\n        /* \"#utility.yul\":11521:11626   */\n      tag_323\n        /* \"#utility.yul\":11622:11625   */\n      dup3\n        /* \"#utility.yul\":11613:11619   */\n      dup6\n        /* \"#utility.yul\":11605:11611   */\n      dup8\n        /* \"#utility.yul\":11521:11626   */\n      tag_173\n      jump\t// in\n    tag_323:\n        /* \"#utility.yul\":11514:11626   */\n      swap2\n      pop\n        /* \"#utility.yul\":11636:11711   */\n      tag_324\n        /* \"#utility.yul\":11707:11710   */\n      dup3\n        /* \"#utility.yul\":11698:11704   */\n      dup5\n        /* \"#utility.yul\":11636:11711   */\n      tag_175\n      jump\t// in\n    tag_324:\n        /* \"#utility.yul\":11736:11738   */\n      0x20\n        /* \"#utility.yul\":11731:11734   */\n      dup3\n        /* \"#utility.yul\":11727:11739   */\n      add\n        /* \"#utility.yul\":11720:11739   */\n      swap2\n      pop\n        /* \"#utility.yul\":11756:11759   */\n      dup2\n        /* \"#utility.yul\":11749:11759   */\n      swap1\n      pop\n        /* \"#utility.yul\":11008:11765   */\n      swap8\n      swap7\n      pop\n      pop\n      pop\n      pop\n      pop\n      pop\n      pop\n      jump\t// out\n        /* \"#utility.yul\":11771:11943   */\n    tag_176:\n        /* \"#utility.yul\":11911:11935   */\n      0x436572746966696361646f206a6120656d697469646f00000000000000000000\n        /* \"#utility.yul\":11907:11908   */\n      0x00\n        /* \"#utility.yul\":11899:11905   */\n      dup3\n        /* \"#utility.yul\":11895:11909   */\n      add\n        /* \"#utility.yul\":11888:11936   */\n      mstore\n        /* \"#utility.yul\":11771:11943   */\n      pop\n      jump\t// out\n        /* \"#utility.yul\":11949:12315   */\n    tag_177:\n        /* \"#utility.yul\":12091:12094   */\n      0x00\n        /* \"#utility.yul\":12112:12179   */\n      tag_327\n        /* \"#utility.yul\":12176:12178   */\n      0x16\n        /* \"#utility.yul\":12171:12174   */\n      dup4\n        /* \"#utility.yul\":12112:12179   */\n      tag_143\n      jump\t// in\n    tag_327:\n        /* \"#utility.yul\":12105:12179   */\n      swap2\n      pop\n        /* \"#utility.yul\":12188:12281   */\n      tag_328\n        /* \"#utility.yul\":12277:12280   */\n      dup3\n        /* \"#utility.yul\":12188:12281   */\n      tag_176\n      jump\t// in\n    tag_328:\n        /* \"#utility.yul\":12306:12308   */\n      0x20\n        /* \"#utility.yul\":12301:12304   */\n      dup3\n        /* \"#utility.yul\":12297:12309   */\n      add\n        /* \"#utility.yul\":12290:12309   */\n      swap1\n      pop\n        /* \"#utility.yul\":11949:12315   */\n      swap2\n      swap1\n      pop\n      jump\t// out\n        /* \"#utility.yul\":12321:12740   */\n    tag_64:\n        /* \"#utility.yul\":12487:12491   */\n      0x00\n        /* \"#utility.yul\":12525:12527   */\n      0x20\n        /* \"#utility.yul\":12514:12523   */\n      dup3\n        /* \"#utility.yul\":12510:12528   */\n      add\n        /* \"#utility.yul\":12502:12528   */\n      swap1\n      pop\n        /* \"#utility.yul\":12574:12583   */\n      dup2\n        /* \"#utility.yul\":12568:12572   */\n      dup2\n        /* \"#utility.yul\":12564:12584   */\n      sub\n        /* \"#utility.yul\":12560:12561   */\n      0x00\n        /* \"#utility.yul\":12549:12558   */\n      dup4\n        /* \"#utility.yul\":12545:12562   */\n      add\n        /* \"#utility.yul\":12538:12585   */\n      mstore\n        /* \"#utility.yul\":12602:12733   */\n      tag_330\n        /* \"#utility.yul\":12728:12732   */\n      dup2\n        /* \"#utility.yul\":12602:12733   */\n      tag_177\n      jump\t// in\n    tag_330:\n        /* \"#utility.yul\":12594:12733   */\n      swap1\n      pop\n        /* \"#utility.yul\":12321:12740   */\n      swap2\n      swap1\n      pop\n      jump\t// out\n        /* \"#utility.yul\":12746:12926   */\n    tag_121:\n        /* \"#utility.yul\":12794:12871   */\n      0x4e487b7100000000000000000000000000000000000000000000000000000000\n        /* \"#utility.yul\":12791:12792   */\n      0x00\n        /* \"#utility.yul\":12784:12872   */\n      mstore\n        /* \"#utility.yul\":12891:12895   */\n      0x41\n        /* \"#utility.yul\":12888:12889   */\n      0x04\n        /* \"#utility.yul\":12881:12896   */\n      mstore\n        /* \"#utility.yul\":12915:12919   */\n      0x24\n        /* \"#utility.yul\":12912:12913   */\n      0x00\n        /* \"#utility.yul\":12905:12920   */\n      revert\n        /* \"#utility.yul\":12932:13073   */\n    tag_178:\n        /* \"#utility.yul\":12981:12985   */\n      0x00\n        /* \"#utility.yul\":13004:13007   */\n      dup2\n        /* \"#utility.yul\":12996:13007   */\n      swap1\n      pop\n        /* \"#utility.yul\":13027:13030   */\n      dup2\n        /* \"#utility.yul\":13024:13025   */\n      0x00\n        /* \"#utility.yul\":13017:13031   */\n      mstore\n        /* \"#utility.yul\":13061:13065   */\n      0x20\n        /* \"#utility.yul\":13058:13059   */\n      0x00\n        /* \"#utility.yul\":13048:13066   */\n      keccak256\n        /* \"#utility.yul\":13040:13066   */\n      swap1\n      pop\n        /* \"#utility.yul\":12932:13073   */\n      swap2\n      swap1\n      pop\n      jump\t// out\n        /* \"#utility.yul\":13079:13172   */\n    tag_179:\n        /* \"#utility.yul\":13116:13122   */\n      0x00\n        /* \"#utility.yul\":13163:13165   */\n      0x20\n        /* \"#utility.yul\":13158:13160   */\n      0x1f\n        /* \"#utility.yul\":13151:13156   */\n      dup4\n        /* \"#utility.yul\":13147:13161   */\n      add\n        /* \"#utility.yul\":13143:13166   */\n      div\n        /* \"#utility.yul\":13133:13166   */\n      swap1\n      pop\n        /* \"#utility.yul\":13079:13172   */\n      swap2\n      swap1\n      pop\n      jump\t// out\n        /* \"#utility.yul\":13178:13285   */\n    tag_180:\n        /* \"#utility.yul\":13222:13230   */\n      0x00\n        /* \"#utility.yul\":13272:13277   */\n      dup3\n        /* \"#utility.yul\":13266:13270   */\n      dup3\n        /* \"#utility.yul\":13262:13278   */\n      shl\n        /* \"#utility.yul\":13241:13278   */\n      swap1\n      pop\n        /* \"#utility.yul\":13178:13285   */\n      swap3\n      swap2\n      pop\n      pop\n      jump\t// out\n        /* \"#utility.yul\":13291:13684   */\n    tag_181:\n        /* \"#utility.yul\":13360:13366   */\n      0x00\n        /* \"#utility.yul\":13410:13411   */\n      0x08\n        /* \"#utility.yul\":13398:13408   */\n      dup4\n        /* \"#utility.yul\":13394:13412   */\n      mul\n        /* \"#utility.yul\":13433:13530   */\n      tag_336\n        /* \"#utility.yul\":13463:13529   */\n      0xffffffffffffffffffffffffffffffffffffffffffffffffffffffffffffffff\n        /* \"#utility.yul\":13452:13461   */\n      dup3\n        /* \"#utility.yul\":13433:13530   */\n      tag_180\n      jump\t// in\n    tag_336:\n        /* \"#utility.yul\":13551:13590   */\n      tag_337\n        /* \"#utility.yul\":13581:13589   */\n      dup7\n        /* \"#utility.yul\":13570:13579   */\n      dup4\n        /* \"#utility.yul\":13551:13590   */\n      tag_180\n      jump\t// in\n    tag_337:\n        /* \"#utility.yul\":13539:13590   */\n      swap6\n      pop\n        /* \"#utility.yul\":13623:13627   */\n      dup1\n        /* \"#utility.yul\":13619:13628   */\n      not\n        /* \"#utility.yul\":13612:13617   */\n      dup5\n        /* \"#utility.yul\":13608:13629   */\n      and\n        /* \"#utility.yul\":13599:13629   */\n      swap4\n      pop\n        /* \"#utility.yul\":13672:13676   */\n      dup1\n        /* \"#utility.yul\":13662:13670   */\n      dup7\n        /* \"#utility.yul\":13658:13677   */\n      and\n        /* \"#utility.yul\":13651:13656   */\n      dup5\n        /* \"#utility.yul\":13648:13678   */\n      or\n        /* \"#utility.yul\":13638:13678   */\n      swap3\n      pop\n        /* \"#utility.yul\":13367:13684   */\n      pop\n      pop\n        /* \"#utility.yul\":13291:13684   */\n      swap4\n      swap3\n      pop\n      pop\n      pop\n      jump\t// out\n        /* \"#utility.yul\":13690:13750   */\n    tag_182:\n        /* \"#utility.yul\":13718:13721   */\n      0x00\n        /* \"#utility.yul\":13739:13744   */\n      dup2\n        /* \"#utility.yul\":13732:13744   */\n      swap1\n      pop\n        /* \"#utility.yul\":13690:13750   */\n      swap2\n      swap1\n      pop\n      jump\t// out\n        /* \"#utility.yul\":13756:13898   */\n    tag_183:\n        /* \"#utility.yul\":13806:13815   */\n      0x00\n        /* \"#utility.yul\":13839:13892   */\n      tag_340\n        /* \"#utility.yul\":13857:13891   */\n      tag_341\n        /* \"#utility.yul\":13866:13890   */\n      tag_342\n        /* \"#utility.yul\":13884:13889   */\n      dup5\n        /* \"#utility.yul\":13866:13890   */\n      tag_155\n      jump\t// in\n    tag_342:\n        /* \"#utility.yul\":13857:13891   */\n      tag_182\n      jump\t// in\n    tag_341:\n        /* \"#utility.yul\":13839:13892   */\n      tag_155\n      jump\t// in\n    tag_340:\n        /* \"#utility.yul\":13826:13892   */\n      swap1\n      pop\n        /* \"#utility.yul\":13756:13898   */\n      swap2\n      swap1\n      pop\n      jump\t// out\n        /* \"#utility.yul\":13904:13979   */\n    tag_184:\n        /* \"#utility.yul\":13947:13950   */\n      0x00\n        /* \"#utility.yul\":13968:13973   */\n      dup2\n        /* \"#utility.yul\":13961:13973   */\n      swap1\n      pop\n        /* \"#utility.yul\":13904:13979   */\n      swap2\n      swap1\n      pop\n      jump\t// out\n        /* \"#utility.yul\":13985:14254   */\n    tag_185:\n        /* \"#utility.yul\":14095:14134   */\n      tag_345\n        /* \"#utility.yul\":14126:14133   */\n      dup4\n        /* \"#utility.yul\":14095:14134   */\n      tag_183\n      jump\t// in\n    tag_345:\n        /* \"#utility.yul\":14156:14247   */\n      tag_346\n        /* \"#utility.yul\":14205:14246   */\n      tag_347\n        /* \"#utility.yul\":14229:14245   */\n      dup3\n        /* \"#utility.yul\":14205:14246   */\n      tag_184\n      jump\t// in\n    tag_347:\n        /* \"#utility.yul\":14197:14203   */\n      dup5\n        /* \"#utility.yul\":14190:14194   */\n      dup5\n        /* \"#utility.yul\":14184:14195   */\n      sload\n        /* \"#utility.yul\":14156:14247   */\n      tag_181\n      jump\t// in\n    tag_346:\n        /* \"#utility.yul\":14150:14154   */\n      dup3\n        /* \"#utility.yul\":14143:14248   */\n      sstore\n        /* \"#utility.yul\":14061:14254   */\n      pop\n        /* \"#utility.yul\":13985:14254   */\n      pop\n      pop\n      pop\n      jump\t// out\n        /* \"#utility.yul\":14260:14333   */\n    tag_186:\n        /* \"#utility.yul\":14305:14308   */\n      0x00\n        /* \"#utility.yul\":14326:14327   */\n      0x00\n        /* \"#utility.yul\":14319:14327   */\n      swap1\n      pop\n        /* \"#utility.yul\":14260:14333   */\n      swap1\n      jump\t// out\n        /* \"#utility.yul\":14339:14528   */\n    tag_187:\n        /* \"#utility.yul\":14416:14448   */\n      tag_350\n      tag_186\n      jump\t// in\n    tag_350:\n        /* \"#utility.yul\":14457:14522   */\n      tag_351\n        /* \"#utility.yul\":14515:14521   */\n      dup2\n        /* \"#utility.yul\":14507:14513   */\n      dup5\n        /* \"#utility.yul\":14501:14505   */\n      dup5\n        /* \"#utility.yul\":14457:14522   */\n      tag_185\n      jump\t// in\n    tag_351:\n        /* \"#utility.yul\":14392:14528   */\n      pop\n        /* \"#utility.yul\":14339:14528   */\n      pop\n      pop\n      jump\t// out\n        /* \"#utility.yul\":14534:14720   */\n    tag_188:\n        /* \"#utility.yul\":14594:14714   */\n    tag_353:\n        /* \"#utility.yul\":14611:14614   */\n      dup2\n        /* \"#utility.yul\":14604:14609   */\n      dup2\n        /* \"#utility.yul\":14601:14615   */\n      lt\n        /* \"#utility.yul\":14594:14714   */\n      iszero\n      tag_355\n      jumpi\n        /* \"#utility.yul\":14665:14704   */\n      tag_356\n        /* \"#utility.yul\":14702:14703   */\n      0x00\n        /* \"#utility.yul\":14695:14700   */\n      dup3\n        /* \"#utility.yul\":14665:14704   */\n      tag_187\n      jump\t// in\n    tag_356:\n        /* \"#utility.yul\":14638:14639   */\n      0x01\n        /* \"#utility.yul\":14631:14636   */\n      dup2\n        /* \"#utility.yul\":14627:14640   */\n      add\n        /* \"#utility.yul\":14618:14640   */\n      swap1\n      pop\n        /* \"#utility.yul\":14594:14714   */\n      jump(tag_353)\n    tag_355:\n        /* \"#utility.yul\":14534:14720   */\n      pop\n      pop\n      jump\t// out\n        /* \"#utility.yul\":14726:15269   */\n    tag_189:\n        /* \"#utility.yul\":14827:14829   */\n      0x1f\n        /* \"#utility.yul\":14822:14825   */\n      dup3\n        /* \"#utility.yul\":14819:14830   */\n      gt\n        /* \"#utility.yul\":14816:15262   */\n      iszero\n      tag_358\n      jumpi\n        /* \"#utility.yul\":14861:14899   */\n      tag_359\n        /* \"#utility.yul\":14893:14898   */\n      dup2\n        /* \"#utility.yul\":14861:14899   */\n      tag_178\n      jump\t// in\n    tag_359:\n        /* \"#utility.yul\":14945:14974   */\n      tag_360\n        /* \"#utility.yul\":14963:14973   */\n      dup5\n        /* \"#utility.yul\":14945:14974   */\n      tag_179\n      jump\t// in\n    tag_360:\n        /* \"#utility.yul\":14935:14943   */\n      dup2\n        /* \"#utility.yul\":14931:14975   */\n      add\n        /* \"#utility.yul\":15128:15130   */\n      0x20\n        /* \"#utility.yul\":15116:15126   */\n      dup6\n        /* \"#utility.yul\":15113:15131   */\n      lt\n        /* \"#utility.yul\":15110:15159   */\n      iszero\n      tag_361\n      jumpi\n        /* \"#utility.yul\":15149:15157   */\n      dup2\n        /* \"#utility.yul\":15134:15157   */\n      swap1\n      pop\n        /* \"#utility.yul\":15110:15159   */\n    tag_361:\n        /* \"#utility.yul\":15172:15252   */\n      tag_362\n        /* \"#utility.yul\":15228:15250   */\n      tag_363\n        /* \"#utility.yul\":15246:15249   */\n      dup6\n        /* \"#utility.yul\":15228:15250   */\n      tag_179\n      jump\t// in\n    tag_363:\n        /* \"#utility.yul\":15218:15226   */\n      dup4\n        /* \"#utility.yul\":15214:15251   */\n      add\n        /* \"#utility.yul\":15201:15212   */\n      dup3\n        /* \"#utility.yul\":15172:15252   */\n      tag_188\n      jump\t// in\n    tag_362:\n        /* \"#utility.yul\":14831:15262   */\n      pop\n      pop\n        /* \"#utility.yul\":14816:15262   */\n    tag_358:\n        /* \"#utility.yul\":14726:15269   */\n      pop\n      pop\n      pop\n      jump\t// out\n        /* \"#utility.yul\":15275:15392   */\n    tag_190:\n        /* \"#utility.yul\":15329:15337   */\n      0x00\n        /* \"#utility.yul\":15379:15384   */\n      dup3\n        /* \"#utility.yul\":15373:15377   */\n      dup3\n        /* \"#utility.yul\":15369:15385   */\n      shr\n        /* \"#utility.yul\":15348:15385   */\n      swap1\n      pop\n        /* \"#utility.yul\":15275:15392   */\n      swap3\n      swap2\n      pop\n      pop\n      jump\t// out\n        /* \"#utility.yul\":15398:15567   */\n    tag_191:\n        /* \"#utility.yul\":15442:15448   */\n      0x00\n        /* \"#utility.yul\":15475:15526   */\n      tag_366\n        /* \"#utility.yul\":15523:15524   */\n      0x00\n        /* \"#utility.yul\":15519:15525   */\n      not\n        /* \"#utility.yul\":15511:15516   */\n      dup5\n        /* \"#utility.yul\":15508:15509   */\n      0x08\n        /* \"#utility.yul\":15504:15517   */\n      mul\n        /* \"#utility.yul\":15475:15526   */\n      tag_190\n      jump\t// in\n    tag_366:\n        /* \"#utility.yul\":15471:15527   */\n      not\n        /* \"#utility.yul\":15556:15560   */\n      dup1\n        /* \"#utility.yul\":15550:15554   */\n      dup4\n        /* \"#utility.yul\":15546:15561   */\n      and\n        /* \"#utility.yul\":15536:15561   */\n      swap2\n      pop\n        /* \"#utility.yul\":15449:15567   */\n      pop\n        /* \"#utility.yul\":15398:15567   */\n      swap3\n      swap2\n      pop\n      pop\n      jump\t// out\n        /* \"#utility.yul\":15572:15867   */\n    tag_192:\n        /* \"#utility.yul\":15648:15652   */\n      0x00\n        /* \"#utility.yul\":15794:15823   */\n      tag_368\n        /* \"#utility.yul\":15819:15822   */\n      dup4\n        /* \"#utility.yul\":15813:15817   */\n      dup4\n        /* \"#utility.yul\":15794:15823   */\n      tag_191\n      jump\t// in\n    tag_368:\n        /* \"#utility.yul\":15786:15823   */\n      swap2\n      pop\n        /* \"#utility.yul\":15856:15859   */\n      dup3\n        /* \"#utility.yul\":15853:15854   */\n      0x02\n        /* \"#utility.yul\":15849:15860   */\n      mul\n        /* \"#utility.yul\":15843:15847   */\n      dup3\n        /* \"#utility.yul\":15840:15861   */\n      or\n        /* \"#utility.yul\":15832:15861   */\n      swap1\n      pop\n        /* \"#utility.yul\":15572:15867   */\n      swap3\n      swap2\n      pop\n      pop\n      jump\t// out\n        /* \"#utility.yul\":15872:17267   */\n    tag_66:\n        /* \"#utility.yul\":15989:16026   */\n      tag_370\n        /* \"#utility.yul\":16022:16025   */\n      dup3\n        /* \"#utility.yul\":15989:16026   */\n      tag_142\n      jump\t// in\n    tag_370:\n        /* \"#utility.yul\":16091:16109   */\n      0xffffffffffffffff\n        /* \"#utility.yul\":16083:16089   */\n      dup2\n        /* \"#utility.yul\":16080:16110   */\n      gt\n        /* \"#utility.yul\":16077:16133   */\n      iszero\n      tag_371\n      jumpi\n        /* \"#utility.yul\":16113:16131   */\n      tag_372\n      tag_121\n      jump\t// in\n    tag_372:\n        /* \"#utility.yul\":16077:16133   */\n    tag_371:\n        /* \"#utility.yul\":16157:16195   */\n      tag_373\n        /* \"#utility.yul\":16189:16193   */\n      dup3\n        /* \"#utility.yul\":16183:16194   */\n      sload\n        /* \"#utility.yul\":16157:16195   */\n      tag_44\n      jump\t// in\n    tag_373:\n        /* \"#utility.yul\":16242:16309   */\n      tag_374\n        /* \"#utility.yul\":16302:16308   */\n      dup3\n        /* \"#utility.yul\":16294:16300   */\n      dup3\n        /* \"#utility.yul\":16288:16292   */\n      dup6\n        /* \"#utility.yul\":16242:16309   */\n      tag_189\n      jump\t// in\n    tag_374:\n        /* \"#utility.yul\":16336:16337   */\n      0x00\n        /* \"#utility.yul\":16360:16364   */\n      0x20\n        /* \"#utility.yul\":16347:16364   */\n      swap1\n      pop\n        /* \"#utility.yul\":16392:16394   */\n      0x1f\n        /* \"#utility.yul\":16384:16390   */\n      dup4\n        /* \"#utility.yul\":16381:16395   */\n      gt\n        /* \"#utility.yul\":16409:16410   */\n      0x01\n        /* \"#utility.yul\":16404:17022   */\n      dup2\n      eq\n      tag_376\n      jumpi\n        /* \"#utility.yul\":17066:17067   */\n      0x00\n        /* \"#utility.yul\":17083:17089   */\n      dup5\n        /* \"#utility.yul\":17080:17157   */\n      iszero\n      tag_377\n      jumpi\n        /* \"#utility.yul\":17132:17141   */\n      dup3\n        /* \"#utility.yul\":17127:17130   */\n      dup8\n        /* \"#utility.yul\":17123:17142   */\n      add\n        /* \"#utility.yul\":17117:17143   */\n      mload\n        /* \"#utility.yul\":17108:17143   */\n      swap1\n      pop\n        /* \"#utility.yul\":17080:17157   */\n    tag_377:\n        /* \"#utility.yul\":17183:17250   */\n      tag_378\n        /* \"#utility.yul\":17243:17249   */\n      dup6\n        /* \"#utility.yul\":17236:17241   */\n      dup3\n        /* \"#utility.yul\":17183:17250   */\n      tag_192\n      jump\t// in\n    tag_378:\n        /* \"#utility.yul\":17177:17181   */\n      dup7\n        /* \"#utility.yul\":17170:17251   */\n      sstore\n        /* \"#utility.yul\":17039:17261   */\n      pop\n        /* \"#utility.yul\":16374:17261   */\n      jump(tag_375)\n        /* \"#utility.yul\":16404:17022   */\n    tag_376:\n        /* \"#utility.yul\":16456:16460   */\n      0x1f\n        /* \"#utility.yul\":16452:16461   */\n      not\n        /* \"#utility.yul\":16444:16450   */\n      dup5\n        /* \"#utility.yul\":16440:16462   */\n      and\n        /* \"#utility.yul\":16490:16527   */\n      tag_379\n        /* \"#utility.yul\":16522:16526   */\n      dup7\n        /* \"#utility.yul\":16490:16527   */\n      tag_178\n      jump\t// in\n    tag_379:\n        /* \"#utility.yul\":16549:16550   */\n      0x00\n        /* \"#utility.yul\":16563:16771   */\n    tag_380:\n        /* \"#utility.yul\":16577:16584   */\n      dup3\n        /* \"#utility.yul\":16574:16575   */\n      dup2\n        /* \"#utility.yul\":16571:16585   */\n      lt\n        /* \"#utility.yul\":16563:16771   */\n      iszero\n      tag_382\n      jumpi\n        /* \"#utility.yul\":16656:16665   */\n      dup5\n        /* \"#utility.yul\":16651:16654   */\n      dup10\n        /* \"#utility.yul\":16647:16666   */\n      add\n        /* \"#utility.yul\":16641:16667   */\n      mload\n        /* \"#utility.yul\":16633:16639   */\n      dup3\n        /* \"#utility.yul\":16626:16668   */\n      sstore\n        /* \"#utility.yul\":16707:16708   */\n      0x01\n        /* \"#utility.yul\":16699:16705   */\n      dup3\n        /* \"#utility.yul\":16695:16709   */\n      add\n        /* \"#utility.yul\":16685:16709   */\n      swap2\n      pop\n        /* \"#utility.yul\":16754:16756   */\n      0x20\n        /* \"#utility.yul\":16743:16752   */\n      dup6\n        /* \"#utility.yul\":16739:16757   */\n      add\n        /* \"#utility.yul\":16726:16757   */\n      swap5\n      pop\n        /* \"#utility.yul\":16600:16604   */\n      0x20\n        /* \"#utility.yul\":16597:16598   */\n      dup2\n        /* \"#utility.yul\":16593:16605   */\n      add\n        /* \"#utility.yul\":16588:16605   */\n      swap1\n      pop\n        /* \"#utility.yul\":16563:16771   */\n      jump(tag_380)\n    tag_382:\n        /* \"#utility.yul\":16799:16805   */\n      dup7\n        /* \"#utility.yul\":16790:16797   */\n      dup4\n        /* \"#utility.yul\":16787:16806   */\n      lt\n        /* \"#utility.yul\":16784:16963   */\n      iszero\n      tag_383\n      jumpi\n        /* \"#utility.yul\":16857:16866   */\n      dup5\n        /* \"#utility.yul\":16852:16855   */\n      dup10\n        /* \"#utility.yul\":16848:16867   */\n      add\n        /* \"#utility.yul\":16842:16868   */\n      mload\n        /* \"#utility.yul\":16900:16948   */\n      tag_384\n        /* \"#utility.yul\":16942:16946   */\n      0x1f\n        /* \"#utility.yul\":16934:16940   */\n      dup10\n        /* \"#utility.yul\":16930:16947   */\n      and\n        /* \"#utility.yul\":16919:16928   */\n      dup3\n        /* \"#utility.yul\":16900:16948   */\n      tag_191\n      jump\t// in\n    tag_384:\n        /* \"#utility.yul\":16892:16898   */\n      dup4\n        /* \"#utility.yul\":16885:16949   */\n      sstore\n        /* \"#utility.yul\":16807:16963   */\n      pop\n        /* \"#utility.yul\":16784:16963   */\n    tag_383:\n        /* \"#utility.yul\":17009:17010   */\n      0x01\n        /* \"#utility.yul\":17005:17006   */\n      0x02\n        /* \"#utility.yul\":16997:17003   */\n      dup9\n        /* \"#utility.yul\":16993:17007   */\n      mul\n        /* \"#utility.yul\":16989:17011   */\n      add\n        /* \"#utility.yul\":16983:16987   */\n      dup9\n        /* \"#utility.yul\":16976:17012   */\n      sstore\n        /* \"#utility.yul\":16411:17022   */\n      pop\n      pop\n      pop\n        /* \"#utility.yul\":16374:17261   */\n    tag_375:\n      pop\n        /* \"#utility.yul\":15964:17267   */\n      pop\n      pop\n      pop\n        /* \"#utility.yul\":15872:17267   */\n      pop\n      pop\n      jump\t// out\n        /* \"#utility.yul\":17297:17614   */\n    tag_193:\n        /* \"#utility.yul\":17395:17398   */\n      0x00\n        /* \"#utility.yul\":17416:17487   */\n      tag_386\n        /* \"#utility.yul\":17480:17486   */\n      dup4\n        /* \"#utility.yul\":17475:17478   */\n      dup6\n        /* \"#utility.yul\":17416:17487   */\n      tag_143\n      jump\t// in\n    tag_386:\n        /* \"#utility.yul\":17409:17487   */\n      swap4\n      pop\n        /* \"#utility.yul\":17497:17553   */\n      tag_387\n        /* \"#utility.yul\":17546:17552   */\n      dup4\n        /* \"#utility.yul\":17541:17544   */\n      dup6\n        /* \"#utility.yul\":17534:17539   */\n      dup5\n        /* \"#utility.yul\":17497:17553   */\n      tag_172\n      jump\t// in\n    tag_387:\n        /* \"#utility.yul\":17578:17607   */\n      tag_388\n        /* \"#utility.yul\":17600:17606   */\n      dup4\n        /* \"#utility.yul\":17578:17607   */\n      tag_145\n      jump\t// in\n    tag_388:\n        /* \"#utility.yul\":17573:17576   */\n      dup5\n        /* \"#utility.yul\":17569:17608   */\n      add\n        /* \"#utility.yul\":17562:17608   */\n      swap1\n      pop\n        /* \"#utility.yul\":17297:17614   */\n      swap4\n      swap3\n      pop\n      pop\n      pop\n      jump\t// out\n        /* \"#utility.yul\":17620:17738   */\n    tag_194:\n        /* \"#utility.yul\":17707:17731   */\n      tag_390\n        /* \"#utility.yul\":17725:17730   */\n      dup2\n        /* \"#utility.yul\":17707:17731   */\n      tag_155\n      jump\t// in\n    tag_390:\n        /* \"#utility.yul\":17702:17705   */\n      dup3\n        /* \"#utility.yul\":17695:17732   */\n      mstore\n        /* \"#utility.yul\":17620:17738   */\n      pop\n      pop\n      jump\t// out\n        /* \"#utility.yul\":17744:18408   */\n    tag_70:\n        /* \"#utility.yul\":17953:17957   */\n      0x00\n        /* \"#utility.yul\":17991:17993   */\n      0x60\n        /* \"#utility.yul\":17980:17989   */\n      dup3\n        /* \"#utility.yul\":17976:17994   */\n      add\n        /* \"#utility.yul\":17968:17994   */\n      swap1\n      pop\n        /* \"#utility.yul\":18040:18049   */\n      dup2\n        /* \"#utility.yul\":18034:18038   */\n      dup2\n        /* \"#utility.yul\":18030:18050   */\n      sub\n        /* \"#utility.yul\":18026:18027   */\n      0x00\n        /* \"#utility.yul\":18015:18024   */\n      dup4\n        /* \"#utility.yul\":18011:18028   */\n      add\n        /* \"#utility.yul\":18004:18051   */\n      mstore\n        /* \"#utility.yul\":18068:18156   */\n      tag_392\n        /* \"#utility.yul\":18151:18155   */\n      dup2\n        /* \"#utility.yul\":18142:18148   */\n      dup8\n        /* \"#utility.yul\":18134:18140   */\n      dup10\n        /* \"#utility.yul\":18068:18156   */\n      tag_193\n      jump\t// in\n    tag_392:\n        /* \"#utility.yul\":18060:18156   */\n      swap1\n      pop\n        /* \"#utility.yul\":18203:18212   */\n      dup2\n        /* \"#utility.yul\":18197:18201   */\n      dup2\n        /* \"#utility.yul\":18193:18213   */\n      sub\n        /* \"#utility.yul\":18188:18190   */\n      0x20\n        /* \"#utility.yul\":18177:18186   */\n      dup4\n        /* \"#utility.yul\":18173:18191   */\n      add\n        /* \"#utility.yul\":18166:18214   */\n      mstore\n        /* \"#utility.yul\":18231:18319   */\n      tag_393\n        /* \"#utility.yul\":18314:18318   */\n      dup2\n        /* \"#utility.yul\":18305:18311   */\n      dup6\n        /* \"#utility.yul\":18297:18303   */\n      dup8\n        /* \"#utility.yul\":18231:18319   */\n      tag_193\n      jump\t// in\n    tag_393:\n        /* \"#utility.yul\":18223:18319   */\n      swap1\n      pop\n        /* \"#utility.yul\":18329:18401   */\n      tag_394\n        /* \"#utility.yul\":18397:18399   */\n      0x40\n        /* \"#utility.yul\":18386:18395   */\n      dup4\n        /* \"#utility.yul\":18382:18400   */\n      add\n        /* \"#utility.yul\":18373:18379   */\n      dup5\n        /* \"#utility.yul\":18329:18401   */\n      tag_194\n      jump\t// in\n    tag_394:\n        /* \"#utility.yul\":17744:18408   */\n      swap7\n      swap6\n      pop\n      pop\n      pop\n      pop\n      pop\n      pop\n      jump\t// out\n        /* \"#utility.yul\":18414:18594   */\n    tag_195:\n        /* \"#utility.yul\":18462:18539   */\n      0x4e487b7100000000000000000000000000000000000000000000000000000000\n        /* \"#utility.yul\":18459:18460   */\n      0x00\n        /* \"#utility.yul\":18452:18540   */\n      mstore\n        /* \"#utility.yul\":18559:18563   */\n      0x12\n        /* \"#utility.yul\":18556:18557   */\n      0x04\n        /* \"#utility.yul\":18549:18564   */\n      mstore\n        /* \"#utility.yul\":18583:18587   */\n      0x24\n        /* \"#utility.yul\":18580:18581   */\n      0x00\n        /* \"#utility.yul\":18573:18588   */\n      revert\n        /* \"#utility.yul\":18600:18780   */\n    tag_196:\n        /* \"#utility.yul\":18648:18725   */\n      0x4e487b7100000000000000000000000000000000000000000000000000000000\n        /* \"#utility.yul\":18645:18646   */\n      0x00\n        /* \"#utility.yul\":18638:18726   */\n      mstore\n        /* \"#utility.yul\":18745:18749   */\n      0x11\n        /* \"#utility.yul\":18742:18743   */\n      0x04\n        /* \"#utility.yul\":18735:18750   */\n      mstore\n        /* \"#utility.yul\":18769:18773   */\n      0x24\n        /* \"#utility.yul\":18766:18767   */\n      0x00\n        /* \"#utility.yul\":18759:18774   */\n      revert\n        /* \"#utility.yul\":18786:18971   */\n    tag_90:\n        /* \"#utility.yul\":18826:18827   */\n      0x00\n        /* \"#utility.yul\":18843:18863   */\n      tag_398\n        /* \"#utility.yul\":18861:18862   */\n      dup3\n        /* \"#utility.yul\":18843:18863   */\n      tag_155\n      jump\t// in\n    tag_398:\n        /* \"#utility.yul\":18838:18863   */\n      swap2\n      pop\n        /* \"#utility.yul\":18877:18897   */\n      tag_399\n        /* \"#utility.yul\":18895:18896   */\n      dup4\n        /* \"#utility.yul\":18877:18897   */\n      tag_155\n      jump\t// in\n    tag_399:\n        /* \"#utility.yul\":18872:18897   */\n      swap3\n      pop\n        /* \"#utility.yul\":18916:18917   */\n      dup3\n        /* \"#utility.yul\":18906:18941   */\n      tag_400\n      jumpi\n        /* \"#utility.yul\":18921:18939   */\n      tag_401\n      tag_195\n      jump\t// in\n    tag_401:\n        /* \"#utility.yul\":18906:18941   */\n    tag_400:\n        /* \"#utility.yul\":18963:18964   */\n      dup3\n        /* \"#utility.yul\":18960:18961   */\n      dup3\n        /* \"#utility.yul\":18956:18965   */\n      div\n        /* \"#utility.yul\":18951:18965   */\n      swap1\n      pop\n        /* \"#utility.yul\":18786:18971   */\n      swap3\n      swap2\n      pop\n      pop\n      jump\t// out\n        /* \"#utility.yul\":18977:19168   */\n    tag_93:\n        /* \"#utility.yul\":19017:19020   */\n      0x00\n        /* \"#utility.yul\":19036:19056   */\n      tag_403\n        /* \"#utility.yul\":19054:19055   */\n      dup3\n        /* \"#utility.yul\":19036:19056   */\n      tag_155\n      jump\t// in\n    tag_403:\n        /* \"#utility.yul\":19031:19056   */\n      swap2\n      pop\n        /* \"#utility.yul\":19070:19090   */\n      tag_404\n        /* \"#utility.yul\":19088:19089   */\n      dup4\n        /* \"#utility.yul\":19070:19090   */\n      tag_155\n      jump\t// in\n    tag_404:\n        /* \"#utility.yul\":19065:19090   */\n      swap3\n      pop\n        /* \"#utility.yul\":19113:19114   */\n      dup3\n        /* \"#utility.yul\":19110:19111   */\n      dup3\n        /* \"#utility.yul\":19106:19115   */\n      add\n        /* \"#utility.yul\":19099:19115   */\n      swap1\n      pop\n        /* \"#utility.yul\":19134:19137   */\n      dup1\n        /* \"#utility.yul\":19131:19132   */\n      dup3\n        /* \"#utility.yul\":19128:19138   */\n      gt\n        /* \"#utility.yul\":19125:19161   */\n      iszero\n      tag_405\n      jumpi\n        /* \"#utility.yul\":19141:19159   */\n      tag_406\n      tag_196\n      jump\t// in\n    tag_406:\n        /* \"#utility.yul\":19125:19161   */\n    tag_405:\n        /* \"#utility.yul\":18977:19168   */\n      swap3\n      swap2\n      pop\n      pop\n      jump\t// out\n        /* \"#utility.yul\":19174:19350   */\n    tag_95:\n        /* \"#utility.yul\":19206:19207   */\n      0x00\n        /* \"#utility.yul\":19223:19243   */\n      tag_408\n        /* \"#utility.yul\":19241:19242   */\n      dup3\n        /* \"#utility.yul\":19223:19243   */\n      tag_155\n      jump\t// in\n    tag_408:\n        /* \"#utility.yul\":19218:19243   */\n      swap2\n      pop\n        /* \"#utility.yul\":19257:19277   */\n      tag_409\n        /* \"#utility.yul\":19275:19276   */\n      dup4\n        /* \"#utility.yul\":19257:19277   */\n      tag_155\n      jump\t// in\n    tag_409:\n        /* \"#utility.yul\":19252:19277   */\n      swap3\n      pop\n        /* \"#utility.yul\":19296:19297   */\n      dup3\n        /* \"#utility.yul\":19286:19321   */\n      tag_410\n      jumpi\n        /* \"#utility.yul\":19301:19319   */\n      tag_411\n      tag_195\n      jump\t// in\n    tag_411:\n        /* \"#utility.yul\":19286:19321   */\n    tag_410:\n        /* \"#utility.yul\":19342:19343   */\n      dup3\n        /* \"#utility.yul\":19339:19340   */\n      dup3\n        /* \"#utility.yul\":19335:19344   */\n      mod\n        /* \"#utility.yul\":19330:19344   */\n      swap1\n      pop\n        /* \"#utility.yul\":19174:19350   */\n      swap3\n      swap2\n      pop\n      pop\n      jump\t// out\n        /* \"#utility.yul\":19356:19746   */\n    tag_197:\n        /* \"#utility.yul\":19462:19465   */\n      0x00\n        /* \"#utility.yul\":19490:19529   */\n      tag_413\n        /* \"#utility.yul\":19523:19528   */\n      dup3\n        /* \"#utility.yul\":19490:19529   */\n      tag_142\n      jump\t// in\n    tag_413:\n        /* \"#utility.yul\":19545:19634   */\n      tag_414\n        /* \"#utility.yul\":19627:19633   */\n      dup2\n        /* \"#utility.yul\":19622:19625   */\n      dup6\n        /* \"#utility.yul\":19545:19634   */\n      tag_171\n      jump\t// in\n    tag_414:\n        /* \"#utility.yul\":19538:19634   */\n      swap4\n      pop\n        /* \"#utility.yul\":19643:19708   */\n      tag_415\n        /* \"#utility.yul\":19701:19707   */\n      dup2\n        /* \"#utility.yul\":19696:19699   */\n      dup6\n        /* \"#utility.yul\":19689:19693   */\n      0x20\n        /* \"#utility.yul\":19682:19687   */\n      dup7\n        /* \"#utility.yul\":19678:19694   */\n      add\n        /* \"#utility.yul\":19643:19708   */\n      tag_144\n      jump\t// in\n    tag_415:\n        /* \"#utility.yul\":19733:19739   */\n      dup1\n        /* \"#utility.yul\":19728:19731   */\n      dup5\n        /* \"#utility.yul\":19724:19740   */\n      add\n        /* \"#utility.yul\":19717:19740   */\n      swap2\n      pop\n        /* \"#utility.yul\":19466:19746   */\n      pop\n        /* \"#utility.yul\":19356:19746   */\n      swap3\n      swap2\n      pop\n      pop\n      jump\t// out\n        /* \"#utility.yul\":19752:19903   */\n    tag_198:\n        /* \"#utility.yul\":19892:19895   */\n      0x2d00000000000000000000000000000000000000000000000000000000000000\n        /* \"#utility.yul\":19888:19889   */\n      0x00\n        /* \"#utility.yul\":19880:19886   */\n      dup3\n        /* \"#utility.yul\":19876:19890   */\n      add\n        /* \"#utility.yul\":19869:19896   */\n      mstore\n        /* \"#utility.yul\":19752:19903   */\n      pop\n      jump\t// out\n        /* \"#utility.yul\":19909:20309   */\n    tag_199:\n        /* \"#utility.yul\":20069:20072   */\n      0x00\n        /* \"#utility.yul\":20090:20174   */\n      tag_418\n        /* \"#utility.yul\":20172:20173   */\n      0x01\n        /* \"#utility.yul\":20167:20170   */\n      dup4\n        /* \"#utility.yul\":20090:20174   */\n      tag_171\n      jump\t// in\n    tag_418:\n        /* \"#utility.yul\":20083:20174   */\n      swap2\n      pop\n        /* \"#utility.yul\":20183:20276   */\n      tag_419\n        /* \"#utility.yul\":20272:20275   */\n      dup3\n        /* \"#utility.yul\":20183:20276   */\n      tag_198\n      jump\t// in\n    tag_419:\n        /* \"#utility.yul\":20301:20302   */\n      0x01\n        /* \"#utility.yul\":20296:20299   */\n      dup3\n        /* \"#utility.yul\":20292:20303   */\n      add\n        /* \"#utility.yul\":20285:20303   */\n      swap1\n      pop\n        /* \"#utility.yul\":19909:20309   */\n      swap2\n      swap1\n      pop\n      jump\t// out\n        /* \"#utility.yul\":20315:21762   */\n    tag_110:\n        /* \"#utility.yul\":20841:20844   */\n      0x00\n        /* \"#utility.yul\":20863:20958   */\n      tag_421\n        /* \"#utility.yul\":20954:20957   */\n      dup3\n        /* \"#utility.yul\":20945:20951   */\n      dup9\n        /* \"#utility.yul\":20863:20958   */\n      tag_197\n      jump\t// in\n    tag_421:\n        /* \"#utility.yul\":20856:20958   */\n      swap2\n      pop\n        /* \"#utility.yul\":20975:21123   */\n      tag_422\n        /* \"#utility.yul\":21119:21122   */\n      dup3\n        /* \"#utility.yul\":20975:21123   */\n      tag_199\n      jump\t// in\n    tag_422:\n        /* \"#utility.yul\":20968:21123   */\n      swap2\n      pop\n        /* \"#utility.yul\":21140:21235   */\n      tag_423\n        /* \"#utility.yul\":21231:21234   */\n      dup3\n        /* \"#utility.yul\":21222:21228   */\n      dup8\n        /* \"#utility.yul\":21140:21235   */\n      tag_197\n      jump\t// in\n    tag_423:\n        /* \"#utility.yul\":21133:21235   */\n      swap2\n      pop\n        /* \"#utility.yul\":21252:21347   */\n      tag_424\n        /* \"#utility.yul\":21343:21346   */\n      dup3\n        /* \"#utility.yul\":21334:21340   */\n      dup7\n        /* \"#utility.yul\":21252:21347   */\n      tag_197\n      jump\t// in\n    tag_424:\n        /* \"#utility.yul\":21245:21347   */\n      swap2\n      pop\n        /* \"#utility.yul\":21364:21512   */\n      tag_425\n        /* \"#utility.yul\":21508:21511   */\n      dup3\n        /* \"#utility.yul\":21364:21512   */\n      tag_199\n      jump\t// in\n    tag_425:\n        /* \"#utility.yul\":21357:21512   */\n      swap2\n      pop\n        /* \"#utility.yul\":21529:21624   */\n      tag_426\n        /* \"#utility.yul\":21620:21623   */\n      dup3\n        /* \"#utility.yul\":21611:21617   */\n      dup6\n        /* \"#utility.yul\":21529:21624   */\n      tag_197\n      jump\t// in\n    tag_426:\n        /* \"#utility.yul\":21522:21624   */\n      swap2\n      pop\n        /* \"#utility.yul\":21641:21736   */\n      tag_427\n        /* \"#utility.yul\":21732:21735   */\n      dup3\n        /* \"#utility.yul\":21723:21729   */\n      dup5\n        /* \"#utility.yul\":21641:21736   */\n      tag_197\n      jump\t// in\n    tag_427:\n        /* \"#utility.yul\":21634:21736   */\n      swap2\n      pop\n        /* \"#utility.yul\":21753:21756   */\n      dup2\n        /* \"#utility.yul\":21746:21756   */\n      swap1\n      pop\n        /* \"#utility.yul\":20315:21762   */\n      swap7\n      swap6\n      pop\n      pop\n      pop\n      pop\n      pop\n      pop\n      jump\t// out\n        /* \"#utility.yul\":21768:22001   */\n    tag_117:\n        /* \"#utility.yul\":21807:21810   */\n      0x00\n        /* \"#utility.yul\":21830:21854   */\n      tag_429\n        /* \"#utility.yul\":21848:21853   */\n      dup3\n        /* \"#utility.yul\":21830:21854   */\n      tag_155\n      jump\t// in\n    tag_429:\n        /* \"#utility.yul\":21821:21854   */\n      swap2\n      pop\n        /* \"#utility.yul\":21876:21942   */\n      0xffffffffffffffffffffffffffffffffffffffffffffffffffffffffffffffff\n        /* \"#utility.yul\":21869:21874   */\n      dup3\n        /* \"#utility.yul\":21866:21943   */\n      sub\n        /* \"#utility.yul\":21863:21966   */\n      tag_430\n      jumpi\n        /* \"#utility.yul\":21946:21964   */\n      tag_431\n      tag_196\n      jump\t// in\n    tag_431:\n        /* \"#utility.yul\":21863:21966   */\n    tag_430:\n        /* \"#utility.yul\":21993:21994   */\n      0x01\n        /* \"#utility.yul\":21986:21991   */\n      dup3\n        /* \"#utility.yul\":21982:21995   */\n      add\n        /* \"#utility.yul\":21975:21995   */\n      swap1\n      pop\n        /* \"#utility.yul\":21768:22001   */\n      swap2\n      swap1\n      pop\n      jump\t// out\n        /* \"#utility.yul\":22007:22201   */\n    tag_126:\n        /* \"#utility.yul\":22047:22051   */\n      0x00\n        /* \"#utility.yul\":22067:22087   */\n      tag_433\n        /* \"#utility.yul\":22085:22086   */\n      dup3\n        /* \"#utility.yul\":22067:22087   */\n      tag_155\n      jump\t// in\n    tag_433:\n        /* \"#utility.yul\":22062:22087   */\n      swap2\n      pop\n        /* \"#utility.yul\":22101:22121   */\n      tag_434\n        /* \"#utility.yul\":22119:22120   */\n      dup4\n        /* \"#utility.yul\":22101:22121   */\n      tag_155\n      jump\t// in\n    tag_434:\n        /* \"#utility.yul\":22096:22121   */\n      swap3\n      pop\n        /* \"#utility.yul\":22145:22146   */\n      dup3\n        /* \"#utility.yul\":22142:22143   */\n      dup3\n        /* \"#utility.yul\":22138:22147   */\n      sub\n        /* \"#utility.yul\":22130:22147   */\n      swap1\n      pop\n        /* \"#utility.yul\":22169:22170   */\n      dup2\n        /* \"#utility.yul\":22163:22167   */\n      dup2\n        /* \"#utility.yul\":22160:22171   */\n      gt\n        /* \"#utility.yul\":22157:22194   */\n      iszero\n      tag_435\n      jumpi\n        /* \"#utility.yul\":22174:22192   */\n      tag_436\n      tag_196\n      jump\t// in\n    tag_436:\n        /* \"#utility.yul\":22157:22194   */\n    tag_435:\n        /* \"#utility.yul\":22007:22201   */\n      swap3\n      swap2\n      pop\n      pop\n      jump\t// out\n        /* \"#utility.yul\":22207:22387   */\n    tag_131:\n        /* \"#utility.yul\":22255:22332   */\n      0x4e487b7100000000000000000000000000000000000000000000000000000000\n        /* \"#utility.yul\":22252:22253   */\n      0x00\n        /* \"#utility.yul\":22245:22333   */\n      mstore\n        /* \"#utility.yul\":22352:22356   */\n      0x32\n        /* \"#utility.yul\":22349:22350   */\n      0x04\n        /* \"#utility.yul\":22342:22357   */\n      mstore\n        /* \"#utility.yul\":22376:22380   */\n      0x24\n        /* \"#utility.yul\":22373:22374   */\n      0x00\n        /* \"#utility.yul\":22366:22381   */\n      revert\n\n    auxdata: 0xa26469706673582212206125bce50bc016240499c54047d6acc8a553fde0e78ab0ea8d904f5a75a2e87a64736f6c634300081e0033\n}\n",
				"bytecode": {
					"linkReferences": {},
					"object": "608060405234801561000f575f5ffd5b50335f73ffffffffffffffffffffffffffffffffffffffff168173ffffffffffffffffffffffffffffffffffffffff1603610081575f6040517f1e4fbdf70000000000000000000000000000000000000000000000000000000081526004016100789190610196565b60405180910390fd5b6100908161009660201b60201c565b506101af565b5f5f5f9054906101000a900473ffffffffffffffffffffffffffffffffffffffff169050815f5f6101000a81548173ffffffffffffffffffffffffffffffffffffffff021916908373ffffffffffffffffffffffffffffffffffffffff1602179055508173ffffffffffffffffffffffffffffffffffffffff168173ffffffffffffffffffffffffffffffffffffffff167f8be0079c531659141344cd1fd0a4f28419497f9722a3daafe3b4186f6b6457e060405160405180910390a35050565b5f73ffffffffffffffffffffffffffffffffffffffff82169050919050565b5f61018082610157565b9050919050565b61019081610176565b82525050565b5f6020820190506101a95f830184610187565b92915050565b61171b806101bc5f395ff3fe608060405234801561000f575f5ffd5b5060043610610060575f3560e01c8063715018a614610064578063850c17681461006e5780638da5cb5b146100a2578063dc02992e146100c0578063ea092518146100f0578063f2fde38b14610120575b5f5ffd5b61006c61013c565b005b61008860048036038101906100839190610bac565b61014f565b604051610099959493929190610ca0565b60405180910390f35b6100aa610346565b6040516100b79190610d06565b60405180910390f35b6100da60048036038101906100d59190610ddd565b61036d565b6040516100e79190610e8f565b60405180910390f35b61010a60048036038101906101059190610ea8565b61063f565b6040516101179190610f8a565b60405180910390f35b61013a60048036038101906101359190610ea8565b6106d2565b005b610144610756565b61014d5f6107dd565b565b5f60608060605f5f60015f8881526020019081526020015f206040518060a00160405290815f82015f9054906101000a900473ffffffffffffffffffffffffffffffffffffffff1673ffffffffffffffffffffffffffffffffffffffff1673ffffffffffffffffffffffffffffffffffffffff1681526020016001820180546101d790610fd7565b80601f016020809104026020016040519081016040528092919081815260200182805461020390610fd7565b801561024e5780601f106102255761010080835404028352916020019161024e565b820191905f5260205f20905b81548152906001019060200180831161023157829003601f168201915b5050505050815260200160028201805461026790610fd7565b80601f016020809104026020016040519081016040528092919081815260200182805461029390610fd7565b80156102de5780601f106102b5576101008083540402835291602001916102de565b820191905f5260205f20905b8154815290600101906020018083116102c157829003601f168201915b5050505050815260200160038201548152602001600482015f9054906101000a900460ff16151515158152505090505f61031b826060015161089e565b9050815f01518260200151836040015183856080015196509650965096509650505091939590929450565b5f5f5f9054906101000a900473ffffffffffffffffffffffffffffffffffffffff16905090565b5f610376610756565b868686868686604051602001610391969594939291906110a8565b60405160208183030381529060405280519060200120905060015f8281526020019081526020015f206004015f9054906101000a900460ff161561040a576040517f08c379a00000000000000000000000000000000000000000000000000000000081526004016104019061113b565b60405180910390fd5b6040518060a001604052808873ffffffffffffffffffffffffffffffffffffffff16815260200187878080601f0160208091040260200160405190810160405280939291908181526020018383808284375f81840152601f19601f82011690508083019250505050505050815260200185858080601f0160208091040260200160405190810160405280939291908181526020018383808284375f81840152601f19601f8201169050808301925050505050505081526020018381526020016001151581525060015f8381526020019081526020015f205f820151815f015f6101000a81548173ffffffffffffffffffffffffffffffffffffffff021916908373ffffffffffffffffffffffffffffffffffffffff160217905550602082015181600101908161053a9190611326565b5060408201518160020190816105509190611326565b50606082015181600301556080820151816004015f6101000a81548160ff02191690831515021790555090505060025f8873ffffffffffffffffffffffffffffffffffffffff1673ffffffffffffffffffffffffffffffffffffffff1681526020019081526020015f2081908060018154018082558091505060019003905f5260205f20015f90919091909150558673ffffffffffffffffffffffffffffffffffffffff16817fcfb808e158eb5b2513f100885a131cecbae307b39a4218a2178e5d15d44df97a888888888860405161062d959493929190611430565b60405180910390a39695505050505050565b606060025f8373ffffffffffffffffffffffffffffffffffffffff1673ffffffffffffffffffffffffffffffffffffffff1681526020019081526020015f208054806020026020016040519081016040528092919081815260200182805480156106c657602002820191905f5260205f20905b8154815260200190600101908083116106b2575b50505050509050919050565b6106da610756565b5f73ffffffffffffffffffffffffffffffffffffffff168173ffffffffffffffffffffffffffffffffffffffff160361074a575f6040517f1e4fbdf70000000000000000000000000000000000000000000000000000000081526004016107419190610d06565b60405180910390fd5b610753816107dd565b50565b61075e610a11565b73ffffffffffffffffffffffffffffffffffffffff1661077c610346565b73ffffffffffffffffffffffffffffffffffffffff16146107db5761079f610a11565b6040517f118cdaa70000000000000000000000000000000000000000000000000000000081526004016107d29190610d06565b60405180910390fd5b565b5f5f5f9054906101000a900473ffffffffffffffffffffffffffffffffffffffff169050815f5f6101000a81548173ffffffffffffffffffffffffffffffffffffffff021916908373ffffffffffffffffffffffffffffffffffffffff1602179055508173ffffffffffffffffffffffffffffffffffffffff168173ffffffffffffffffffffffffffffffffffffffff167f8be0079c531659141344cd1fd0a4f28419497f9722a3daafe3b4186f6b6457e060405160405180910390a35050565b60605f62015180836108b091906114d1565b90505f61016d826108c191906114d1565b6107b26108ce9190611501565b90505f6001601e61016d856108e39190611534565b6108ed91906114d1565b6108f79190611501565b90505f6001601e61016d8661090c9190611534565b6109169190611534565b6109209190611501565b905061092b83610a18565b600a83106109475760405180602001604052805f81525061097e565b6040518060400160405280600181526020017f30000000000000000000000000000000000000000000000000000000000000008152505b61098784610a18565b600a84106109a35760405180602001604052805f8152506109da565b6040518060400160405280600181526020017f30000000000000000000000000000000000000000000000000000000000000008152505b6109e385610a18565b6040516020016109f79594939291906115de565b604051602081830303815290604052945050505050919050565b5f33905090565b60605f8203610a5e576040518060400160405280600181526020017f30000000000000000000000000000000000000000000000000000000000000008152509050610b6c565b5f8290505f5b5f8214610a8d578080610a769061163e565b915050600a82610a8691906114d1565b9150610a64565b5f8167ffffffffffffffff811115610aa857610aa7611159565b5b6040519080825280601f01601f191660200182016040528015610ada5781602001600182028036833780820191505090505b5090505b5f8514610b6557600182610af29190611685565b9150600a85610b019190611534565b6030610b0d9190611501565b60f81b818381518110610b2357610b226116b8565b5b60200101907effffffffffffffffffffffffffffffffffffffffffffffffffffffffffffff191690815f1a905350600a85610b5e91906114d1565b9450610ade565b8093505050505b919050565b5f5ffd5b5f5ffd5b5f819050919050565b610b8b81610b79565b8114610b95575f5ffd5b50565b5f81359050610ba681610b82565b92915050565b5f60208284031215610bc157610bc0610b71565b5b5f610bce84828501610b98565b91505092915050565b5f73ffffffffffffffffffffffffffffffffffffffff82169050919050565b5f610c0082610bd7565b9050919050565b610c1081610bf6565b82525050565b5f81519050919050565b5f82825260208201905092915050565b8281835e5f83830152505050565b5f601f19601f8301169050919050565b5f610c5882610c16565b610c628185610c20565b9350610c72818560208601610c30565b610c7b81610c3e565b840191505092915050565b5f8115159050919050565b610c9a81610c86565b82525050565b5f60a082019050610cb35f830188610c07565b8181036020830152610cc58187610c4e565b90508181036040830152610cd98186610c4e565b90508181036060830152610ced8185610c4e565b9050610cfc6080830184610c91565b9695505050505050565b5f602082019050610d195f830184610c07565b92915050565b610d2881610bf6565b8114610d32575f5ffd5b50565b5f81359050610d4381610d1f565b92915050565b5f5ffd5b5f5ffd5b5f5ffd5b5f5f83601f840112610d6a57610d69610d49565b5b8235905067ffffffffffffffff811115610d8757610d86610d4d565b5b602083019150836001820283011115610da357610da2610d51565b5b9250929050565b5f819050919050565b610dbc81610daa565b8114610dc6575f5ffd5b50565b5f81359050610dd781610db3565b92915050565b5f5f5f5f5f5f60808789031215610df757610df6610b71565b5b5f610e0489828a01610d35565b965050602087013567ffffffffffffffff811115610e2557610e24610b75565b5b610e3189828a01610d55565b9550955050604087013567ffffffffffffffff811115610e5457610e53610b75565b5b610e6089828a01610d55565b93509350506060610e7389828a01610dc9565b9150509295509295509295565b610e8981610b79565b82525050565b5f602082019050610ea25f830184610e80565b92915050565b5f60208284031215610ebd57610ebc610b71565b5b5f610eca84828501610d35565b91505092915050565b5f81519050919050565b5f82825260208201905092915050565b5f819050602082019050919050565b610f0581610b79565b82525050565b5f610f168383610efc565b60208301905092915050565b5f602082019050919050565b5f610f3882610ed3565b610f428185610edd565b9350610f4d83610eed565b805f5b83811015610f7d578151610f648882610f0b565b9750610f6f83610f22565b925050600181019050610f50565b5085935050505092915050565b5f6020820190508181035f830152610fa28184610f2e565b905092915050565b7f4e487b71000000000000000000000000000000000000000000000000000000005f52602260045260245ffd5b5f6002820490506001821680610fee57607f821691505b60208210810361100157611000610faa565b5b50919050565b5f8160601b9050919050565b5f61101d82611007565b9050919050565b5f61102e82611013565b9050919050565b61104661104182610bf6565b611024565b82525050565b5f81905092915050565b828183375f83830152505050565b5f61106f838561104c565b935061107c838584611056565b82840190509392505050565b5f819050919050565b6110a261109d82610daa565b611088565b82525050565b5f6110b38289611035565b6014820191506110c4828789611064565b91506110d1828587611064565b91506110dd8284611091565b602082019150819050979650505050505050565b7f436572746966696361646f206a6120656d697469646f000000000000000000005f82015250565b5f611125601683610c20565b9150611130826110f1565b602082019050919050565b5f6020820190508181035f83015261115281611119565b9050919050565b7f4e487b71000000000000000000000000000000000000000000000000000000005f52604160045260245ffd5b5f819050815f5260205f209050919050565b5f6020601f8301049050919050565b5f82821b905092915050565b5f600883026111e27fffffffffffffffffffffffffffffffffffffffffffffffffffffffffffffffff826111a7565b6111ec86836111a7565b95508019841693508086168417925050509392505050565b5f819050919050565b5f61122761122261121d84610daa565b611204565b610daa565b9050919050565b5f819050919050565b6112408361120d565b61125461124c8261122e565b8484546111b3565b825550505050565b5f5f905090565b61126b61125c565b611276818484611237565b505050565b5b818110156112995761128e5f82611263565b60018101905061127c565b5050565b601f8211156112de576112af81611186565b6112b884611198565b810160208510156112c7578190505b6112db6112d385611198565b83018261127b565b50505b505050565b5f82821c905092915050565b5f6112fe5f19846008026112e3565b1980831691505092915050565b5f61131683836112ef565b9150826002028217905092915050565b61132f82610c16565b67ffffffffffffffff81111561134857611347611159565b5b6113528254610fd7565b61135d82828561129d565b5f60209050601f83116001811461138e575f841561137c578287015190505b611386858261130b565b8655506113ed565b601f19841661139c86611186565b5f5b828110156113c35784890151825560018201915060208501945060208101905061139e565b868310156113e057848901516113dc601f8916826112ef565b8355505b6001600288020188555050505b505050505050565b5f6114008385610c20565b935061140d838584611056565b61141683610c3e565b840190509392505050565b61142a81610daa565b82525050565b5f6060820190508181035f8301526114498187896113f5565b9050818103602083015261145e8185876113f5565b905061146d6040830184611421565b9695505050505050565b7f4e487b71000000000000000000000000000000000000000000000000000000005f52601260045260245ffd5b7f4e487b71000000000000000000000000000000000000000000000000000000005f52601160045260245ffd5b5f6114db82610daa565b91506114e683610daa565b9250826114f6576114f5611477565b5b828204905092915050565b5f61150b82610daa565b915061151683610daa565b925082820190508082111561152e5761152d6114a4565b5b92915050565b5f61153e82610daa565b915061154983610daa565b92508261155957611558611477565b5b828206905092915050565b5f61156e82610c16565b611578818561104c565b9350611588818560208601610c30565b80840191505092915050565b7f2d000000000000000000000000000000000000000000000000000000000000005f82015250565b5f6115c860018361104c565b91506115d382611594565b600182019050919050565b5f6115e98288611564565b91506115f4826115bc565b91506116008287611564565b915061160c8286611564565b9150611617826115bc565b91506116238285611564565b915061162f8284611564565b91508190509695505050505050565b5f61164882610daa565b91507fffffffffffffffffffffffffffffffffffffffffffffffffffffffffffffffff820361167a576116796114a4565b5b600182019050919050565b5f61168f82610daa565b915061169a83610daa565b92508282039050818111156116b2576116b16114a4565b5b92915050565b7f4e487b71000000000000000000000000000000000000000000000000000000005f52603260045260245ffdfea26469706673582212206125bce50bc016240499c54047d6acc8a553fde0e78ab0ea8d904f5a75a2e87a64736f6c634300081e0033",
					"opcodes": "PUSH1 0x80 PUSH1 0x40 MSTORE CALLVALUE DUP1 ISZERO PUSH2 0xF JUMPI PUSH0 PUSH0 REVERT JUMPDEST POP CALLER PUSH0 PUSH20 0xFFFFFFFFFFFFFFFFFFFFFFFFFFFFFFFFFFFFFFFF AND DUP2 PUSH20 0xFFFFFFFFFFFFFFFFFFFFFFFFFFFFFFFFFFFFFFFF AND SUB PUSH2 0x81 JUMPI PUSH0 PUSH1 0x40 MLOAD PUSH32 0x1E4FBDF700000000000000000000000000000000000000000000000000000000 DUP2 MSTORE PUSH1 0x4 ADD PUSH2 0x78 SWAP2 SWAP1 PUSH2 0x196 JUMP JUMPDEST PUSH1 0x40 MLOAD DUP1 SWAP2 SUB SWAP1 REVERT JUMPDEST PUSH2 0x90 DUP2 PUSH2 0x96 PUSH1 0x20 SHL PUSH1 0x20 SHR JUMP JUMPDEST POP PUSH2 0x1AF JUMP JUMPDEST PUSH0 PUSH0 PUSH0 SWAP1 SLOAD SWAP1 PUSH2 0x100 EXP SWAP1 DIV PUSH20 0xFFFFFFFFFFFFFFFFFFFFFFFFFFFFFFFFFFFFFFFF AND SWAP1 POP DUP2 PUSH0 PUSH0 PUSH2 0x100 EXP DUP2 SLOAD DUP2 PUSH20 0xFFFFFFFFFFFFFFFFFFFFFFFFFFFFFFFFFFFFFFFF MUL NOT AND SWAP1 DUP4 PUSH20 0xFFFFFFFFFFFFFFFFFFFFFFFFFFFFFFFFFFFFFFFF AND MUL OR SWAP1 SSTORE POP DUP2 PUSH20 0xFFFFFFFFFFFFFFFFFFFFFFFFFFFFFFFFFFFFFFFF AND DUP2 PUSH20 0xFFFFFFFFFFFFFFFFFFFFFFFFFFFFFFFFFFFFFFFF AND PUSH32 0x8BE0079C531659141344CD1FD0A4F28419497F9722A3DAAFE3B4186F6B6457E0 PUSH1 0x40 MLOAD PUSH1 0x40 MLOAD DUP1 SWAP2 SUB SWAP1 LOG3 POP POP JUMP JUMPDEST PUSH0 PUSH20 0xFFFFFFFFFFFFFFFFFFFFFFFFFFFFFFFFFFFFFFFF DUP3 AND SWAP1 POP SWAP2 SWAP1 POP JUMP JUMPDEST PUSH0 PUSH2 0x180 DUP3 PUSH2 0x157 JUMP JUMPDEST SWAP1 POP SWAP2 SWAP1 POP JUMP JUMPDEST PUSH2 0x190 DUP2 PUSH2 0x176 JUMP JUMPDEST DUP3 MSTORE POP POP JUMP JUMPDEST PUSH0 PUSH1 0x20 DUP3 ADD SWAP1 POP PUSH2 0x1A9 PUSH0 DUP4 ADD DUP5 PUSH2 0x187 JUMP JUMPDEST SWAP3 SWAP2 POP POP JUMP JUMPDEST PUSH2 0x171B DUP1 PUSH2 0x1BC PUSH0 CODECOPY PUSH0 RETURN INVALID PUSH1 0x80 PUSH1 0x40 MSTORE CALLVALUE DUP1 ISZERO PUSH2 0xF JUMPI PUSH0 PUSH0 REVERT JUMPDEST POP PUSH1 0x4 CALLDATASIZE LT PUSH2 0x60 JUMPI PUSH0 CALLDATALOAD PUSH1 0xE0 SHR DUP1 PUSH4 0x715018A6 EQ PUSH2 0x64 JUMPI DUP1 PUSH4 0x850C1768 EQ PUSH2 0x6E JUMPI DUP1 PUSH4 0x8DA5CB5B EQ PUSH2 0xA2 JUMPI DUP1 PUSH4 0xDC02992E EQ PUSH2 0xC0 JUMPI DUP1 PUSH4 0xEA092518 EQ PUSH2 0xF0 JUMPI DUP1 PUSH4 0xF2FDE38B EQ PUSH2 0x120 JUMPI JUMPDEST PUSH0 PUSH0 REVERT JUMPDEST PUSH2 0x6C PUSH2 0x13C JUMP JUMPDEST STOP JUMPDEST PUSH2 0x88 PUSH1 0x4 DUP1 CALLDATASIZE SUB DUP2 ADD SWAP1 PUSH2 0x83 SWAP2 SWAP1 PUSH2 0xBAC JUMP JUMPDEST PUSH2 0x14F JUMP JUMPDEST PUSH1 0x40 MLOAD PUSH2 0x99 SWAP6 SWAP5 SWAP4 SWAP3 SWAP2 SWAP1 PUSH2 0xCA0 JUMP JUMPDEST PUSH1 0x40 MLOAD DUP1 SWAP2 SUB SWAP1 RETURN JUMPDEST PUSH2 0xAA PUSH2 0x346 JUMP JUMPDEST PUSH1 0x40 MLOAD PUSH2 0xB7 SWAP2 SWAP1 PUSH2 0xD06 JUMP JUMPDEST PUSH1 0x40 MLOAD DUP1 SWAP2 SUB SWAP1 RETURN JUMPDEST PUSH2 0xDA PUSH1 0x4 DUP1 CALLDATASIZE SUB DUP2 ADD SWAP1 PUSH2 0xD5 SWAP2 SWAP1 PUSH2 0xDDD JUMP JUMPDEST PUSH2 0x36D JUMP JUMPDEST PUSH1 0x40 MLOAD PUSH2 0xE7 SWAP2 SWAP1 PUSH2 0xE8F JUMP JUMPDEST PUSH1 0x40 MLOAD DUP1 SWAP2 SUB SWAP1 RETURN JUMPDEST PUSH2 0x10A PUSH1 0x4 DUP1 CALLDATASIZE SUB DUP2 ADD SWAP1 PUSH2 0x105 SWAP2 SWAP1 PUSH2 0xEA8 JUMP JUMPDEST PUSH2 0x63F JUMP JUMPDEST PUSH1 0x40 MLOAD PUSH2 0x117 SWAP2 SWAP1 PUSH2 0xF8A JUMP JUMPDEST PUSH1 0x40 MLOAD DUP1 SWAP2 SUB SWAP1 RETURN JUMPDEST PUSH2 0x13A PUSH1 0x4 DUP1 CALLDATASIZE SUB DUP2 ADD SWAP1 PUSH2 0x135 SWAP2 SWAP1 PUSH2 0xEA8 JUMP JUMPDEST PUSH2 0x6D2 JUMP JUMPDEST STOP JUMPDEST PUSH2 0x144 PUSH2 0x756 JUMP JUMPDEST PUSH2 0x14D PUSH0 PUSH2 0x7DD JUMP JUMPDEST JUMP JUMPDEST PUSH0 PUSH1 0x60 DUP1 PUSH1 0x60 PUSH0 PUSH0 PUSH1 0x1 PUSH0 DUP9 DUP2 MSTORE PUSH1 0x20 ADD SWAP1 DUP2 MSTORE PUSH1 0x20 ADD PUSH0 KECCAK256 PUSH1 0x40 MLOAD DUP1 PUSH1 0xA0 ADD PUSH1 0x40 MSTORE SWAP1 DUP2 PUSH0 DUP3 ADD PUSH0 SWAP1 SLOAD SWAP1 PUSH2 0x100 EXP SWAP1 DIV PUSH20 0xFFFFFFFFFFFFFFFFFFFFFFFFFFFFFFFFFFFFFFFF AND PUSH20 0xFFFFFFFFFFFFFFFFFFFFFFFFFFFFFFFFFFFFFFFF AND PUSH20 0xFFFFFFFFFFFFFFFFFFFFFFFFFFFFFFFFFFFFFFFF AND DUP2 MSTORE PUSH1 0x20 ADD PUSH1 0x1 DUP3 ADD DUP1 SLOAD PUSH2 0x1D7 SWAP1 PUSH2 0xFD7 JUMP JUMPDEST DUP1 PUSH1 0x1F ADD PUSH1 0x20 DUP1 SWAP2 DIV MUL PUSH1 0x20 ADD PUSH1 0x40 MLOAD SWAP1 DUP2 ADD PUSH1 0x40 MSTORE DUP1 SWAP3 SWAP2 SWAP1 DUP2 DUP2 MSTORE PUSH1 0x20 ADD DUP3 DUP1 SLOAD PUSH2 0x203 SWAP1 PUSH2 0xFD7 JUMP JUMPDEST DUP1 ISZERO PUSH2 0x24E JUMPI DUP1 PUSH1 0x1F LT PUSH2 0x225 JUMPI PUSH2 0x100 DUP1 DUP4 SLOAD DIV MUL DUP4 MSTORE SWAP2 PUSH1 0x20 ADD SWAP2 PUSH2 0x24E JUMP JUMPDEST DUP3 ADD SWAP2 SWAP1 PUSH0 MSTORE PUSH1 0x20 PUSH0 KECCAK256 SWAP1 JUMPDEST DUP2 SLOAD DUP2 MSTORE SWAP1 PUSH1 0x1 ADD SWAP1 PUSH1 0x20 ADD DUP1 DUP4 GT PUSH2 0x231 JUMPI DUP3 SWAP1 SUB PUSH1 0x1F AND DUP3 ADD SWAP2 JUMPDEST POP POP POP POP POP DUP2 MSTORE PUSH1 0x20 ADD PUSH1 0x2 DUP3 ADD DUP1 SLOAD PUSH2 0x267 SWAP1 PUSH2 0xFD7 JUMP JUMPDEST DUP1 PUSH1 0x1F ADD PUSH1 0x20 DUP1 SWAP2 DIV MUL PUSH1 0x20 ADD PUSH1 0x40 MLOAD SWAP1 DUP2 ADD PUSH1 0x40 MSTORE DUP1 SWAP3 SWAP2 SWAP1 DUP2 DUP2 MSTORE PUSH1 0x20 ADD DUP3 DUP1 SLOAD PUSH2 0x293 SWAP1 PUSH2 0xFD7 JUMP JUMPDEST DUP1 ISZERO PUSH2 0x2DE JUMPI DUP1 PUSH1 0x1F LT PUSH2 0x2B5 JUMPI PUSH2 0x100 DUP1 DUP4 SLOAD DIV MUL DUP4 MSTORE SWAP2 PUSH1 0x20 ADD SWAP2 PUSH2 0x2DE JUMP JUMPDEST DUP3 ADD SWAP2 SWAP1 PUSH0 MSTORE PUSH1 0x20 PUSH0 KECCAK256 SWAP1 JUMPDEST DUP2 SLOAD DUP2 MSTORE SWAP1 PUSH1 0x1 ADD SWAP1 PUSH1 0x20 ADD DUP1 DUP4 GT PUSH2 0x2C1 JUMPI DUP3 SWAP1 SUB PUSH1 0x1F AND DUP3 ADD SWAP2 JUMPDEST POP POP POP POP POP DUP2 MSTORE PUSH1 0x20 ADD PUSH1 0x3 DUP3 ADD SLOAD DUP2 MSTORE PUSH1 0x20 ADD PUSH1 0x4 DUP3 ADD PUSH0 SWAP1 SLOAD SWAP1 PUSH2 0x100 EXP SWAP1 DIV PUSH1 0xFF AND ISZERO ISZERO ISZERO ISZERO DUP2 MSTORE POP POP SWAP1 POP PUSH0 PUSH2 0x31B DUP3 PUSH1 0x60 ADD MLOAD PUSH2 0x89E JUMP JUMPDEST SWAP1 POP DUP2 PUSH0 ADD MLOAD DUP3 PUSH1 0x20 ADD MLOAD DUP4 PUSH1 0x40 ADD MLOAD DUP4 DUP6 PUSH1 0x80 ADD MLOAD SWAP7 POP SWAP7 POP SWAP7 POP SWAP7 POP SWAP7 POP POP POP SWAP2 SWAP4 SWAP6 SWAP1 SWAP3 SWAP5 POP JUMP JUMPDEST PUSH0 PUSH0 PUSH0 SWAP1 SLOAD SWAP1 PUSH2 0x100 EXP SWAP1 DIV PUSH20 0xFFFFFFFFFFFFFFFFFFFFFFFFFFFFFFFFFFFFFFFF AND SWAP1 POP SWAP1 JUMP JUMPDEST PUSH0 PUSH2 0x376 PUSH2 0x756 JUMP JUMPDEST DUP7 DUP7 DUP7 DUP7 DUP7 DUP7 PUSH1 0x40 MLOAD PUSH1 0x20 ADD PUSH2 0x391 SWAP7 SWAP6 SWAP5 SWAP4 SWAP3 SWAP2 SWAP1 PUSH2 0x10A8 JUMP JUMPDEST PUSH1 0x40 MLOAD PUSH1 0x20 DUP2 DUP4 SUB SUB DUP2 MSTORE SWAP1 PUSH1 0x40 MSTORE DUP1 MLOAD SWAP1 PUSH1 0x20 ADD KECCAK256 SWAP1 POP PUSH1 0x1 PUSH0 DUP3 DUP2 MSTORE PUSH1 0x20 ADD SWAP1 DUP2 MSTORE PUSH1 0x20 ADD PUSH0 KECCAK256 PUSH1 0x4 ADD PUSH0 SWAP1 SLOAD SWAP1 PUSH2 0x100 EXP SWAP1 DIV PUSH1 0xFF AND ISZERO PUSH2 0x40A JUMPI PUSH1 0x40 MLOAD PUSH32 0x8C379A000000000000000000000000000000000000000000000000000000000 DUP2 MSTORE PUSH1 0x4 ADD PUSH2 0x401 SWAP1 PUSH2 0x113B JUMP JUMPDEST PUSH1 0x40 MLOAD DUP1 SWAP2 SUB SWAP1 REVERT JUMPDEST PUSH1 0x40 MLOAD DUP1 PUSH1 0xA0 ADD PUSH1 0x40 MSTORE DUP1 DUP9 PUSH20 0xFFFFFFFFFFFFFFFFFFFFFFFFFFFFFFFFFFFFFFFF AND DUP2 MSTORE PUSH1 0x20 ADD DUP8 DUP8 DUP1 DUP1 PUSH1 0x1F ADD PUSH1 0x20 DUP1 SWAP2 DIV MUL PUSH1 0x20 ADD PUSH1 0x40 MLOAD SWAP1 DUP2 ADD PUSH1 0x40 MSTORE DUP1 SWAP4 SWAP3 SWAP2 SWAP1 DUP2 DUP2 MSTORE PUSH1 0x20 ADD DUP4 DUP4 DUP1 DUP3 DUP5 CALLDATACOPY PUSH0 DUP2 DUP5 ADD MSTORE PUSH1 0x1F NOT PUSH1 0x1F DUP3 ADD AND SWAP1 POP DUP1 DUP4 ADD SWAP3 POP POP POP POP POP POP POP DUP2 MSTORE PUSH1 0x20 ADD DUP6 DUP6 DUP1 DUP1 PUSH1 0x1F ADD PUSH1 0x20 DUP1 SWAP2 DIV MUL PUSH1 0x20 ADD PUSH1 0x40 MLOAD SWAP1 DUP2 ADD PUSH1 0x40 MSTORE DUP1 SWAP4 SWAP3 SWAP2 SWAP1 DUP2 DUP2 MSTORE PUSH1 0x20 ADD DUP4 DUP4 DUP1 DUP3 DUP5 CALLDATACOPY PUSH0 DUP2 DUP5 ADD MSTORE PUSH1 0x1F NOT PUSH1 0x1F DUP3 ADD AND SWAP1 POP DUP1 DUP4 ADD SWAP3 POP POP POP POP POP POP POP DUP2 MSTORE PUSH1 0x20 ADD DUP4 DUP2 MSTORE PUSH1 0x20 ADD PUSH1 0x1 ISZERO ISZERO DUP2 MSTORE POP PUSH1 0x1 PUSH0 DUP4 DUP2 MSTORE PUSH1 0x20 ADD SWAP1 DUP2 MSTORE PUSH1 0x20 ADD PUSH0 KECCAK256 PUSH0 DUP3 ADD MLOAD DUP2 PUSH0 ADD PUSH0 PUSH2 0x100 EXP DUP2 SLOAD DUP2 PUSH20 0xFFFFFFFFFFFFFFFFFFFFFFFFFFFFFFFFFFFFFFFF MUL NOT AND SWAP1 DUP4 PUSH20 0xFFFFFFFFFFFFFFFFFFFFFFFFFFFFFFFFFFFFFFFF AND MUL OR SWAP1 SSTORE POP PUSH1 0x20 DUP3 ADD MLOAD DUP2 PUSH1 0x1 ADD SWAP1 DUP2 PUSH2 0x53A SWAP2 SWAP1 PUSH2 0x1326 JUMP JUMPDEST POP PUSH1 0x40 DUP3 ADD MLOAD DUP2 PUSH1 0x2 ADD SWAP1 DUP2 PUSH2 0x550 SWAP2 SWAP1 PUSH2 0x1326 JUMP JUMPDEST POP PUSH1 0x60 DUP3 ADD MLOAD DUP2 PUSH1 0x3 ADD SSTORE PUSH1 0x80 DUP3 ADD MLOAD DUP2 PUSH1 0x4 ADD PUSH0 PUSH2 0x100 EXP DUP2 SLOAD DUP2 PUSH1 0xFF MUL NOT AND SWAP1 DUP4 ISZERO ISZERO MUL OR SWAP1 SSTORE POP SWAP1 POP POP PUSH1 0x2 PUSH0 DUP9 PUSH20 0xFFFFFFFFFFFFFFFFFFFFFFFFFFFFFFFFFFFFFFFF AND PUSH20 0xFFFFFFFFFFFFFFFFFFFFFFFFFFFFFFFFFFFFFFFF AND DUP2 MSTORE PUSH1 0x20 ADD SWAP1 DUP2 MSTORE PUSH1 0x20 ADD PUSH0 KECCAK256 DUP2 SWAP1 DUP1 PUSH1 0x1 DUP2 SLOAD ADD DUP1 DUP3 SSTORE DUP1 SWAP2 POP POP PUSH1 0x1 SWAP1 SUB SWAP1 PUSH0 MSTORE PUSH1 0x20 PUSH0 KECCAK256 ADD PUSH0 SWAP1 SWAP2 SWAP1 SWAP2 SWAP1 SWAP2 POP SSTORE DUP7 PUSH20 0xFFFFFFFFFFFFFFFFFFFFFFFFFFFFFFFFFFFFFFFF AND DUP2 PUSH32 0xCFB808E158EB5B2513F100885A131CECBAE307B39A4218A2178E5D15D44DF97A DUP9 DUP9 DUP9 DUP9 DUP9 PUSH1 0x40 MLOAD PUSH2 0x62D SWAP6 SWAP5 SWAP4 SWAP3 SWAP2 SWAP1 PUSH2 0x1430 JUMP JUMPDEST PUSH1 0x40 MLOAD DUP1 SWAP2 SUB SWAP1 LOG3 SWAP7 SWAP6 POP POP POP POP POP POP JUMP JUMPDEST PUSH1 0x60 PUSH1 0x2 PUSH0 DUP4 PUSH20 0xFFFFFFFFFFFFFFFFFFFFFFFFFFFFFFFFFFFFFFFF AND PUSH20 0xFFFFFFFFFFFFFFFFFFFFFFFFFFFFFFFFFFFFFFFF AND DUP2 MSTORE PUSH1 0x20 ADD SWAP1 DUP2 MSTORE PUSH1 0x20 ADD PUSH0 KECCAK256 DUP1 SLOAD DUP1 PUSH1 0x20 MUL PUSH1 0x20 ADD PUSH1 0x40 MLOAD SWAP1 DUP2 ADD PUSH1 0x40 MSTORE DUP1 SWAP3 SWAP2 SWAP1 DUP2 DUP2 MSTORE PUSH1 0x20 ADD DUP3 DUP1 SLOAD DUP1 ISZERO PUSH2 0x6C6 JUMPI PUSH1 0x20 MUL DUP3 ADD SWAP2 SWAP1 PUSH0 MSTORE PUSH1 0x20 PUSH0 KECCAK256 SWAP1 JUMPDEST DUP2 SLOAD DUP2 MSTORE PUSH1 0x20 ADD SWAP1 PUSH1 0x1 ADD SWAP1 DUP1 DUP4 GT PUSH2 0x6B2 JUMPI JUMPDEST POP POP POP POP POP SWAP1 POP SWAP2 SWAP1 POP JUMP JUMPDEST PUSH2 0x6DA PUSH2 0x756 JUMP JUMPDEST PUSH0 PUSH20 0xFFFFFFFFFFFFFFFFFFFFFFFFFFFFFFFFFFFFFFFF AND DUP2 PUSH20 0xFFFFFFFFFFFFFFFFFFFFFFFFFFFFFFFFFFFFFFFF AND SUB PUSH2 0x74A JUMPI PUSH0 PUSH1 0x40 MLOAD PUSH32 0x1E4FBDF700000000000000000000000000000000000000000000000000000000 DUP2 MSTORE PUSH1 0x4 ADD PUSH2 0x741 SWAP2 SWAP1 PUSH2 0xD06 JUMP JUMPDEST PUSH1 0x40 MLOAD DUP1 SWAP2 SUB SWAP1 REVERT JUMPDEST PUSH2 0x753 DUP2 PUSH2 0x7DD JUMP JUMPDEST POP JUMP JUMPDEST PUSH2 0x75E PUSH2 0xA11 JUMP JUMPDEST PUSH20 0xFFFFFFFFFFFFFFFFFFFFFFFFFFFFFFFFFFFFFFFF AND PUSH2 0x77C PUSH2 0x346 JUMP JUMPDEST PUSH20 0xFFFFFFFFFFFFFFFFFFFFFFFFFFFFFFFFFFFFFFFF AND EQ PUSH2 0x7DB JUMPI PUSH2 0x79F PUSH2 0xA11 JUMP JUMPDEST PUSH1 0x40 MLOAD PUSH32 0x118CDAA700000000000000000000000000000000000000000000000000000000 DUP2 MSTORE PUSH1 0x4 ADD PUSH2 0x7D2 SWAP2 SWAP1 PUSH2 0xD06 JUMP JUMPDEST PUSH1 0x40 MLOAD DUP1 SWAP2 SUB SWAP1 REVERT JUMPDEST JUMP JUMPDEST PUSH0 PUSH0 PUSH0 SWAP1 SLOAD SWAP1 PUSH2 0x100 EXP SWAP1 DIV PUSH20 0xFFFFFFFFFFFFFFFFFFFFFFFFFFFFFFFFFFFFFFFF AND SWAP1 POP DUP2 PUSH0 PUSH0 PUSH2 0x100 EXP DUP2 SLOAD DUP2 PUSH20 0xFFFFFFFFFFFFFFFFFFFFFFFFFFFFFFFFFFFFFFFF MUL NOT AND SWAP1 DUP4 PUSH20 0xFFFFFFFFFFFFFFFFFFFFFFFFFFFFFFFFFFFFFFFF AND MUL OR SWAP1 SSTORE POP DUP2 PUSH20 0xFFFFFFFFFFFFFFFFFFFFFFFFFFFFFFFFFFFFFFFF AND DUP2 PUSH20 0xFFFFFFFFFFFFFFFFFFFFFFFFFFFFFFFFFFFFFFFF AND PUSH32 0x8BE0079C531659141344CD1FD0A4F28419497F9722A3DAAFE3B4186F6B6457E0 PUSH1 0x40 MLOAD PUSH1 0x40 MLOAD DUP1 SWAP2 SUB SWAP1 LOG3 POP POP JUMP JUMPDEST PUSH1 0x60 PUSH0 PUSH3 0x15180 DUP4 PUSH2 0x8B0 SWAP2 SWAP1 PUSH2 0x14D1 JUMP JUMPDEST SWAP1 POP PUSH0 PUSH2 0x16D DUP3 PUSH2 0x8C1 SWAP2 SWAP1 PUSH2 0x14D1 JUMP JUMPDEST PUSH2 0x7B2 PUSH2 0x8CE SWAP2 SWAP1 PUSH2 0x1501 JUMP JUMPDEST SWAP1 POP PUSH0 PUSH1 0x1 PUSH1 0x1E PUSH2 0x16D DUP6 PUSH2 0x8E3 SWAP2 SWAP1 PUSH2 0x1534 JUMP JUMPDEST PUSH2 0x8ED SWAP2 SWAP1 PUSH2 0x14D1 JUMP JUMPDEST PUSH2 0x8F7 SWAP2 SWAP1 PUSH2 0x1501 JUMP JUMPDEST SWAP1 POP PUSH0 PUSH1 0x1 PUSH1 0x1E PUSH2 0x16D DUP7 PUSH2 0x90C SWAP2 SWAP1 PUSH2 0x1534 JUMP JUMPDEST PUSH2 0x916 SWAP2 SWAP1 PUSH2 0x1534 JUMP JUMPDEST PUSH2 0x920 SWAP2 SWAP1 PUSH2 0x1501 JUMP JUMPDEST SWAP1 POP PUSH2 0x92B DUP4 PUSH2 0xA18 JUMP JUMPDEST PUSH1 0xA DUP4 LT PUSH2 0x947 JUMPI PUSH1 0x40 MLOAD DUP1 PUSH1 0x20 ADD PUSH1 0x40 MSTORE DUP1 PUSH0 DUP2 MSTORE POP PUSH2 0x97E JUMP JUMPDEST PUSH1 0x40 MLOAD DUP1 PUSH1 0x40 ADD PUSH1 0x40 MSTORE DUP1 PUSH1 0x1 DUP2 MSTORE PUSH1 0x20 ADD PUSH32 0x3000000000000000000000000000000000000000000000000000000000000000 DUP2 MSTORE POP JUMPDEST PUSH2 0x987 DUP5 PUSH2 0xA18 JUMP JUMPDEST PUSH1 0xA DUP5 LT PUSH2 0x9A3 JUMPI PUSH1 0x40 MLOAD DUP1 PUSH1 0x20 ADD PUSH1 0x40 MSTORE DUP1 PUSH0 DUP2 MSTORE POP PUSH2 0x9DA JUMP JUMPDEST PUSH1 0x40 MLOAD DUP1 PUSH1 0x40 ADD PUSH1 0x40 MSTORE DUP1 PUSH1 0x1 DUP2 MSTORE PUSH1 0x20 ADD PUSH32 0x3000000000000000000000000000000000000000000000000000000000000000 DUP2 MSTORE POP JUMPDEST PUSH2 0x9E3 DUP6 PUSH2 0xA18 JUMP JUMPDEST PUSH1 0x40 MLOAD PUSH1 0x20 ADD PUSH2 0x9F7 SWAP6 SWAP5 SWAP4 SWAP3 SWAP2 SWAP1 PUSH2 0x15DE JUMP JUMPDEST PUSH1 0x40 MLOAD PUSH1 0x20 DUP2 DUP4 SUB SUB DUP2 MSTORE SWAP1 PUSH1 0x40 MSTORE SWAP5 POP POP POP POP POP SWAP2 SWAP1 POP JUMP JUMPDEST PUSH0 CALLER SWAP1 POP SWAP1 JUMP JUMPDEST PUSH1 0x60 PUSH0 DUP3 SUB PUSH2 0xA5E JUMPI PUSH1 0x40 MLOAD DUP1 PUSH1 0x40 ADD PUSH1 0x40 MSTORE DUP1 PUSH1 0x1 DUP2 MSTORE PUSH1 0x20 ADD PUSH32 0x3000000000000000000000000000000000000000000000000000000000000000 DUP2 MSTORE POP SWAP1 POP PUSH2 0xB6C JUMP JUMPDEST PUSH0 DUP3 SWAP1 POP PUSH0 JUMPDEST PUSH0 DUP3 EQ PUSH2 0xA8D JUMPI DUP1 DUP1 PUSH2 0xA76 SWAP1 PUSH2 0x163E JUMP JUMPDEST SWAP2 POP POP PUSH1 0xA DUP3 PUSH2 0xA86 SWAP2 SWAP1 PUSH2 0x14D1 JUMP JUMPDEST SWAP2 POP PUSH2 0xA64 JUMP JUMPDEST PUSH0 DUP2 PUSH8 0xFFFFFFFFFFFFFFFF DUP2 GT ISZERO PUSH2 0xAA8 JUMPI PUSH2 0xAA7 PUSH2 0x1159 JUMP JUMPDEST JUMPDEST PUSH1 0x40 MLOAD SWAP1 DUP1 DUP3 MSTORE DUP1 PUSH1 0x1F ADD PUSH1 0x1F NOT AND PUSH1 0x20 ADD DUP3 ADD PUSH1 0x40 MSTORE DUP1 ISZERO PUSH2 0xADA JUMPI DUP2 PUSH1 0x20 ADD PUSH1 0x1 DUP3 MUL DUP1 CALLDATASIZE DUP4 CALLDATACOPY DUP1 DUP3 ADD SWAP2 POP POP SWAP1 POP JUMPDEST POP SWAP1 POP JUMPDEST PUSH0 DUP6 EQ PUSH2 0xB65 JUMPI PUSH1 0x1 DUP3 PUSH2 0xAF2 SWAP2 SWAP1 PUSH2 0x1685 JUMP JUMPDEST SWAP2 POP PUSH1 0xA DUP6 PUSH2 0xB01 SWAP2 SWAP1 PUSH2 0x1534 JUMP JUMPDEST PUSH1 0x30 PUSH2 0xB0D SWAP2 SWAP1 PUSH2 0x1501 JUMP JUMPDEST PUSH1 0xF8 SHL DUP2 DUP4 DUP2 MLOAD DUP2 LT PUSH2 0xB23 JUMPI PUSH2 0xB22 PUSH2 0x16B8 JUMP JUMPDEST JUMPDEST PUSH1 0x20 ADD ADD SWAP1 PUSH31 0xFFFFFFFFFFFFFFFFFFFFFFFFFFFFFFFFFFFFFFFFFFFFFFFFFFFFFFFFFFFFFF NOT AND SWAP1 DUP2 PUSH0 BYTE SWAP1 MSTORE8 POP PUSH1 0xA DUP6 PUSH2 0xB5E SWAP2 SWAP1 PUSH2 0x14D1 JUMP JUMPDEST SWAP5 POP PUSH2 0xADE JUMP JUMPDEST DUP1 SWAP4 POP POP POP POP JUMPDEST SWAP2 SWAP1 POP JUMP JUMPDEST PUSH0 PUSH0 REVERT JUMPDEST PUSH0 PUSH0 REVERT JUMPDEST PUSH0 DUP2 SWAP1 POP SWAP2 SWAP1 POP JUMP JUMPDEST PUSH2 0xB8B DUP2 PUSH2 0xB79 JUMP JUMPDEST DUP2 EQ PUSH2 0xB95 JUMPI PUSH0 PUSH0 REVERT JUMPDEST POP JUMP JUMPDEST PUSH0 DUP2 CALLDATALOAD SWAP1 POP PUSH2 0xBA6 DUP2 PUSH2 0xB82 JUMP JUMPDEST SWAP3 SWAP2 POP POP JUMP JUMPDEST PUSH0 PUSH1 0x20 DUP3 DUP5 SUB SLT ISZERO PUSH2 0xBC1 JUMPI PUSH2 0xBC0 PUSH2 0xB71 JUMP JUMPDEST JUMPDEST PUSH0 PUSH2 0xBCE DUP5 DUP3 DUP6 ADD PUSH2 0xB98 JUMP JUMPDEST SWAP2 POP POP SWAP3 SWAP2 POP POP JUMP JUMPDEST PUSH0 PUSH20 0xFFFFFFFFFFFFFFFFFFFFFFFFFFFFFFFFFFFFFFFF DUP3 AND SWAP1 POP SWAP2 SWAP1 POP JUMP JUMPDEST PUSH0 PUSH2 0xC00 DUP3 PUSH2 0xBD7 JUMP JUMPDEST SWAP1 POP SWAP2 SWAP1 POP JUMP JUMPDEST PUSH2 0xC10 DUP2 PUSH2 0xBF6 JUMP JUMPDEST DUP3 MSTORE POP POP JUMP JUMPDEST PUSH0 DUP2 MLOAD SWAP1 POP SWAP2 SWAP1 POP JUMP JUMPDEST PUSH0 DUP3 DUP3 MSTORE PUSH1 0x20 DUP3 ADD SWAP1 POP SWAP3 SWAP2 POP POP JUMP JUMPDEST DUP3 DUP2 DUP4 MCOPY PUSH0 DUP4 DUP4 ADD MSTORE POP POP POP JUMP JUMPDEST PUSH0 PUSH1 0x1F NOT PUSH1 0x1F DUP4 ADD AND SWAP1 POP SWAP2 SWAP1 POP JUMP JUMPDEST PUSH0 PUSH2 0xC58 DUP3 PUSH2 0xC16 JUMP JUMPDEST PUSH2 0xC62 DUP2 DUP6 PUSH2 0xC20 JUMP JUMPDEST SWAP4 POP PUSH2 0xC72 DUP2 DUP6 PUSH1 0x20 DUP7 ADD PUSH2 0xC30 JUMP JUMPDEST PUSH2 0xC7B DUP2 PUSH2 0xC3E JUMP JUMPDEST DUP5 ADD SWAP2 POP POP SWAP3 SWAP2 POP POP JUMP JUMPDEST PUSH0 DUP2 ISZERO ISZERO SWAP1 POP SWAP2 SWAP1 POP JUMP JUMPDEST PUSH2 0xC9A DUP2 PUSH2 0xC86 JUMP JUMPDEST DUP3 MSTORE POP POP JUMP JUMPDEST PUSH0 PUSH1 0xA0 DUP3 ADD SWAP1 POP PUSH2 0xCB3 PUSH0 DUP4 ADD DUP9 PUSH2 0xC07 JUMP JUMPDEST DUP2 DUP2 SUB PUSH1 0x20 DUP4 ADD MSTORE PUSH2 0xCC5 DUP2 DUP8 PUSH2 0xC4E JUMP JUMPDEST SWAP1 POP DUP2 DUP2 SUB PUSH1 0x40 DUP4 ADD MSTORE PUSH2 0xCD9 DUP2 DUP7 PUSH2 0xC4E JUMP JUMPDEST SWAP1 POP DUP2 DUP2 SUB PUSH1 0x60 DUP4 ADD MSTORE PUSH2 0xCED DUP2 DUP6 PUSH2 0xC4E JUMP JUMPDEST SWAP1 POP PUSH2 0xCFC PUSH1 0x80 DUP4 ADD DUP5 PUSH2 0xC91 JUMP JUMPDEST SWAP7 SWAP6 POP POP POP POP POP POP JUMP JUMPDEST PUSH0 PUSH1 0x20 DUP3 ADD SWAP1 POP PUSH2 0xD19 PUSH0 DUP4 ADD DUP5 PUSH2 0xC07 JUMP JUMPDEST SWAP3 SWAP2 POP POP JUMP JUMPDEST PUSH2 0xD28 DUP2 PUSH2 0xBF6 JUMP JUMPDEST DUP2 EQ PUSH2 0xD32 JUMPI PUSH0 PUSH0 REVERT JUMPDEST POP JUMP JUMPDEST PUSH0 DUP2 CALLDATALOAD SWAP1 POP PUSH2 0xD43 DUP2 PUSH2 0xD1F JUMP JUMPDEST SWAP3 SWAP2 POP POP JUMP JUMPDEST PUSH0 PUSH0 REVERT JUMPDEST PUSH0 PUSH0 REVERT JUMPDEST PUSH0 PUSH0 REVERT JUMPDEST PUSH0 PUSH0 DUP4 PUSH1 0x1F DUP5 ADD SLT PUSH2 0xD6A JUMPI PUSH2 0xD69 PUSH2 0xD49 JUMP JUMPDEST JUMPDEST DUP3 CALLDATALOAD SWAP1 POP PUSH8 0xFFFFFFFFFFFFFFFF DUP2 GT ISZERO PUSH2 0xD87 JUMPI PUSH2 0xD86 PUSH2 0xD4D JUMP JUMPDEST JUMPDEST PUSH1 0x20 DUP4 ADD SWAP2 POP DUP4 PUSH1 0x1 DUP3 MUL DUP4 ADD GT ISZERO PUSH2 0xDA3 JUMPI PUSH2 0xDA2 PUSH2 0xD51 JUMP JUMPDEST JUMPDEST SWAP3 POP SWAP3 SWAP1 POP JUMP JUMPDEST PUSH0 DUP2 SWAP1 POP SWAP2 SWAP1 POP JUMP JUMPDEST PUSH2 0xDBC DUP2 PUSH2 0xDAA JUMP JUMPDEST DUP2 EQ PUSH2 0xDC6 JUMPI PUSH0 PUSH0 REVERT JUMPDEST POP JUMP JUMPDEST PUSH0 DUP2 CALLDATALOAD SWAP1 POP PUSH2 0xDD7 DUP2 PUSH2 0xDB3 JUMP JUMPDEST SWAP3 SWAP2 POP POP JUMP JUMPDEST PUSH0 PUSH0 PUSH0 PUSH0 PUSH0 PUSH0 PUSH1 0x80 DUP8 DUP10 SUB SLT ISZERO PUSH2 0xDF7 JUMPI PUSH2 0xDF6 PUSH2 0xB71 JUMP JUMPDEST JUMPDEST PUSH0 PUSH2 0xE04 DUP10 DUP3 DUP11 ADD PUSH2 0xD35 JUMP JUMPDEST SWAP7 POP POP PUSH1 0x20 DUP8 ADD CALLDATALOAD PUSH8 0xFFFFFFFFFFFFFFFF DUP2 GT ISZERO PUSH2 0xE25 JUMPI PUSH2 0xE24 PUSH2 0xB75 JUMP JUMPDEST JUMPDEST PUSH2 0xE31 DUP10 DUP3 DUP11 ADD PUSH2 0xD55 JUMP JUMPDEST SWAP6 POP SWAP6 POP POP PUSH1 0x40 DUP8 ADD CALLDATALOAD PUSH8 0xFFFFFFFFFFFFFFFF DUP2 GT ISZERO PUSH2 0xE54 JUMPI PUSH2 0xE53 PUSH2 0xB75 JUMP JUMPDEST JUMPDEST PUSH2 0xE60 DUP10 DUP3 DUP11 ADD PUSH2 0xD55 JUMP JUMPDEST SWAP4 POP SWAP4 POP POP PUSH1 0x60 PUSH2 0xE73 DUP10 DUP3 DUP11 ADD PUSH2 0xDC9 JUMP JUMPDEST SWAP2 POP POP SWAP3 SWAP6 POP SWAP3 SWAP6 POP SWAP3 SWAP6 JUMP JUMPDEST PUSH2 0xE89 DUP2 PUSH2 0xB79 JUMP JUMPDEST DUP3 MSTORE POP POP JUMP JUMPDEST PUSH0 PUSH1 0x20 DUP3 ADD SWAP1 POP PUSH2 0xEA2 PUSH0 DUP4 ADD DUP5 PUSH2 0xE80 JUMP JUMPDEST SWAP3 SWAP2 POP POP JUMP JUMPDEST PUSH0 PUSH1 0x20 DUP3 DUP5 SUB SLT ISZERO PUSH2 0xEBD JUMPI PUSH2 0xEBC PUSH2 0xB71 JUMP JUMPDEST JUMPDEST PUSH0 PUSH2 0xECA DUP5 DUP3 DUP6 ADD PUSH2 0xD35 JUMP JUMPDEST SWAP2 POP POP SWAP3 SWAP2 POP POP JUMP JUMPDEST PUSH0 DUP2 MLOAD SWAP1 POP SWAP2 SWAP1 POP JUMP JUMPDEST PUSH0 DUP3 DUP3 MSTORE PUSH1 0x20 DUP3 ADD SWAP1 POP SWAP3 SWAP2 POP POP JUMP JUMPDEST PUSH0 DUP2 SWAP1 POP PUSH1 0x20 DUP3 ADD SWAP1 POP SWAP2 SWAP1 POP JUMP JUMPDEST PUSH2 0xF05 DUP2 PUSH2 0xB79 JUMP JUMPDEST DUP3 MSTORE POP POP JUMP JUMPDEST PUSH0 PUSH2 0xF16 DUP4 DUP4 PUSH2 0xEFC JUMP JUMPDEST PUSH1 0x20 DUP4 ADD SWAP1 POP SWAP3 SWAP2 POP POP JUMP JUMPDEST PUSH0 PUSH1 0x20 DUP3 ADD SWAP1 POP SWAP2 SWAP1 POP JUMP JUMPDEST PUSH0 PUSH2 0xF38 DUP3 PUSH2 0xED3 JUMP JUMPDEST PUSH2 0xF42 DUP2 DUP6 PUSH2 0xEDD JUMP JUMPDEST SWAP4 POP PUSH2 0xF4D DUP4 PUSH2 0xEED JUMP JUMPDEST DUP1 PUSH0 JUMPDEST DUP4 DUP2 LT ISZERO PUSH2 0xF7D JUMPI DUP2 MLOAD PUSH2 0xF64 DUP9 DUP3 PUSH2 0xF0B JUMP JUMPDEST SWAP8 POP PUSH2 0xF6F DUP4 PUSH2 0xF22 JUMP JUMPDEST SWAP3 POP POP PUSH1 0x1 DUP2 ADD SWAP1 POP PUSH2 0xF50 JUMP JUMPDEST POP DUP6 SWAP4 POP POP POP POP SWAP3 SWAP2 POP POP JUMP JUMPDEST PUSH0 PUSH1 0x20 DUP3 ADD SWAP1 POP DUP2 DUP2 SUB PUSH0 DUP4 ADD MSTORE PUSH2 0xFA2 DUP2 DUP5 PUSH2 0xF2E JUMP JUMPDEST SWAP1 POP SWAP3 SWAP2 POP POP JUMP JUMPDEST PUSH32 0x4E487B7100000000000000000000000000000000000000000000000000000000 PUSH0 MSTORE PUSH1 0x22 PUSH1 0x4 MSTORE PUSH1 0x24 PUSH0 REVERT JUMPDEST PUSH0 PUSH1 0x2 DUP3 DIV SWAP1 POP PUSH1 0x1 DUP3 AND DUP1 PUSH2 0xFEE JUMPI PUSH1 0x7F DUP3 AND SWAP2 POP JUMPDEST PUSH1 0x20 DUP3 LT DUP2 SUB PUSH2 0x1001 JUMPI PUSH2 0x1000 PUSH2 0xFAA JUMP JUMPDEST JUMPDEST POP SWAP2 SWAP1 POP JUMP JUMPDEST PUSH0 DUP2 PUSH1 0x60 SHL SWAP1 POP SWAP2 SWAP1 POP JUMP JUMPDEST PUSH0 PUSH2 0x101D DUP3 PUSH2 0x1007 JUMP JUMPDEST SWAP1 POP SWAP2 SWAP1 POP JUMP JUMPDEST PUSH0 PUSH2 0x102E DUP3 PUSH2 0x1013 JUMP JUMPDEST SWAP1 POP SWAP2 SWAP1 POP JUMP JUMPDEST PUSH2 0x1046 PUSH2 0x1041 DUP3 PUSH2 0xBF6 JUMP JUMPDEST PUSH2 0x1024 JUMP JUMPDEST DUP3 MSTORE POP POP JUMP JUMPDEST PUSH0 DUP2 SWAP1 POP SWAP3 SWAP2 POP POP JUMP JUMPDEST DUP3 DUP2 DUP4 CALLDATACOPY PUSH0 DUP4 DUP4 ADD MSTORE POP POP POP JUMP JUMPDEST PUSH0 PUSH2 0x106F DUP4 DUP6 PUSH2 0x104C JUMP JUMPDEST SWAP4 POP PUSH2 0x107C DUP4 DUP6 DUP5 PUSH2 0x1056 JUMP JUMPDEST DUP3 DUP5 ADD SWAP1 POP SWAP4 SWAP3 POP POP POP JUMP JUMPDEST PUSH0 DUP2 SWAP1 POP SWAP2 SWAP1 POP JUMP JUMPDEST PUSH2 0x10A2 PUSH2 0x109D DUP3 PUSH2 0xDAA JUMP JUMPDEST PUSH2 0x1088 JUMP JUMPDEST DUP3 MSTORE POP POP JUMP JUMPDEST PUSH0 PUSH2 0x10B3 DUP3 DUP10 PUSH2 0x1035 JUMP JUMPDEST PUSH1 0x14 DUP3 ADD SWAP2 POP PUSH2 0x10C4 DUP3 DUP8 DUP10 PUSH2 0x1064 JUMP JUMPDEST SWAP2 POP PUSH2 0x10D1 DUP3 DUP6 DUP8 PUSH2 0x1064 JUMP JUMPDEST SWAP2 POP PUSH2 0x10DD DUP3 DUP5 PUSH2 0x1091 JUMP JUMPDEST PUSH1 0x20 DUP3 ADD SWAP2 POP DUP2 SWAP1 POP SWAP8 SWAP7 POP POP POP POP POP POP POP JUMP JUMPDEST PUSH32 0x436572746966696361646F206A6120656D697469646F00000000000000000000 PUSH0 DUP3 ADD MSTORE POP JUMP JUMPDEST PUSH0 PUSH2 0x1125 PUSH1 0x16 DUP4 PUSH2 0xC20 JUMP JUMPDEST SWAP2 POP PUSH2 0x1130 DUP3 PUSH2 0x10F1 JUMP JUMPDEST PUSH1 0x20 DUP3 ADD SWAP1 POP SWAP2 SWAP1 POP JUMP JUMPDEST PUSH0 PUSH1 0x20 DUP3 ADD SWAP1 POP DUP2 DUP2 SUB PUSH0 DUP4 ADD MSTORE PUSH2 0x1152 DUP2 PUSH2 0x1119 JUMP JUMPDEST SWAP1 POP SWAP2 SWAP1 POP JUMP JUMPDEST PUSH32 0x4E487B7100000000000000000000000000000000000000000000000000000000 PUSH0 MSTORE PUSH1 0x41 PUSH1 0x4 MSTORE PUSH1 0x24 PUSH0 REVERT JUMPDEST PUSH0 DUP2 SWAP1 POP DUP2 PUSH0 MSTORE PUSH1 0x20 PUSH0 KECCAK256 SWAP1 POP SWAP2 SWAP1 POP JUMP JUMPDEST PUSH0 PUSH1 0x20 PUSH1 0x1F DUP4 ADD DIV SWAP1 POP SWAP2 SWAP1 POP JUMP JUMPDEST PUSH0 DUP3 DUP3 SHL SWAP1 POP SWAP3 SWAP2 POP POP JUMP JUMPDEST PUSH0 PUSH1 0x8 DUP4 MUL PUSH2 0x11E2 PUSH32 0xFFFFFFFFFFFFFFFFFFFFFFFFFFFFFFFFFFFFFFFFFFFFFFFFFFFFFFFFFFFFFFFF DUP3 PUSH2 0x11A7 JUMP JUMPDEST PUSH2 0x11EC DUP7 DUP4 PUSH2 0x11A7 JUMP JUMPDEST SWAP6 POP DUP1 NOT DUP5 AND SWAP4 POP DUP1 DUP7 AND DUP5 OR SWAP3 POP POP POP SWAP4 SWAP3 POP POP POP JUMP JUMPDEST PUSH0 DUP2 SWAP1 POP SWAP2 SWAP1 POP JUMP JUMPDEST PUSH0 PUSH2 0x1227 PUSH2 0x1222 PUSH2 0x121D DUP5 PUSH2 0xDAA JUMP JUMPDEST PUSH2 0x1204 JUMP JUMPDEST PUSH2 0xDAA JUMP JUMPDEST SWAP1 POP SWAP2 SWAP1 POP JUMP JUMPDEST PUSH0 DUP2 SWAP1 POP SWAP2 SWAP1 POP JUMP JUMPDEST PUSH2 0x1240 DUP4 PUSH2 0x120D JUMP JUMPDEST PUSH2 0x1254 PUSH2 0x124C DUP3 PUSH2 0x122E JUMP JUMPDEST DUP5 DUP5 SLOAD PUSH2 0x11B3 JUMP JUMPDEST DUP3 SSTORE POP POP POP POP JUMP JUMPDEST PUSH0 PUSH0 SWAP1 POP SWAP1 JUMP JUMPDEST PUSH2 0x126B PUSH2 0x125C JUMP JUMPDEST PUSH2 0x1276 DUP2 DUP5 DUP5 PUSH2 0x1237 JUMP JUMPDEST POP POP POP JUMP JUMPDEST JUMPDEST DUP2 DUP2 LT ISZERO PUSH2 0x1299 JUMPI PUSH2 0x128E PUSH0 DUP3 PUSH2 0x1263 JUMP JUMPDEST PUSH1 0x1 DUP2 ADD SWAP1 POP PUSH2 0x127C JUMP JUMPDEST POP POP JUMP JUMPDEST PUSH1 0x1F DUP3 GT ISZERO PUSH2 0x12DE JUMPI PUSH2 0x12AF DUP2 PUSH2 0x1186 JUMP JUMPDEST PUSH2 0x12B8 DUP5 PUSH2 0x1198 JUMP JUMPDEST DUP2 ADD PUSH1 0x20 DUP6 LT ISZERO PUSH2 0x12C7 JUMPI DUP2 SWAP1 POP JUMPDEST PUSH2 0x12DB PUSH2 0x12D3 DUP6 PUSH2 0x1198 JUMP JUMPDEST DUP4 ADD DUP3 PUSH2 0x127B JUMP JUMPDEST POP POP JUMPDEST POP POP POP JUMP JUMPDEST PUSH0 DUP3 DUP3 SHR SWAP1 POP SWAP3 SWAP2 POP POP JUMP JUMPDEST PUSH0 PUSH2 0x12FE PUSH0 NOT DUP5 PUSH1 0x8 MUL PUSH2 0x12E3 JUMP JUMPDEST NOT DUP1 DUP4 AND SWAP2 POP POP SWAP3 SWAP2 POP POP JUMP JUMPDEST PUSH0 PUSH2 0x1316 DUP4 DUP4 PUSH2 0x12EF JUMP JUMPDEST SWAP2 POP DUP3 PUSH1 0x2 MUL DUP3 OR SWAP1 POP SWAP3 SWAP2 POP POP JUMP JUMPDEST PUSH2 0x132F DUP3 PUSH2 0xC16 JUMP JUMPDEST PUSH8 0xFFFFFFFFFFFFFFFF DUP2 GT ISZERO PUSH2 0x1348 JUMPI PUSH2 0x1347 PUSH2 0x1159 JUMP JUMPDEST JUMPDEST PUSH2 0x1352 DUP3 SLOAD PUSH2 0xFD7 JUMP JUMPDEST PUSH2 0x135D DUP3 DUP3 DUP6 PUSH2 0x129D JUMP JUMPDEST PUSH0 PUSH1 0x20 SWAP1 POP PUSH1 0x1F DUP4 GT PUSH1 0x1 DUP2 EQ PUSH2 0x138E JUMPI PUSH0 DUP5 ISZERO PUSH2 0x137C JUMPI DUP3 DUP8 ADD MLOAD SWAP1 POP JUMPDEST PUSH2 0x1386 DUP6 DUP3 PUSH2 0x130B JUMP JUMPDEST DUP7 SSTORE POP PUSH2 0x13ED JUMP JUMPDEST PUSH1 0x1F NOT DUP5 AND PUSH2 0x139C DUP7 PUSH2 0x1186 JUMP JUMPDEST PUSH0 JUMPDEST DUP3 DUP2 LT ISZERO PUSH2 0x13C3 JUMPI DUP5 DUP10 ADD MLOAD DUP3 SSTORE PUSH1 0x1 DUP3 ADD SWAP2 POP PUSH1 0x20 DUP6 ADD SWAP5 POP PUSH1 0x20 DUP2 ADD SWAP1 POP PUSH2 0x139E JUMP JUMPDEST DUP7 DUP4 LT ISZERO PUSH2 0x13E0 JUMPI DUP5 DUP10 ADD MLOAD PUSH2 0x13DC PUSH1 0x1F DUP10 AND DUP3 PUSH2 0x12EF JUMP JUMPDEST DUP4 SSTORE POP JUMPDEST PUSH1 0x1 PUSH1 0x2 DUP9 MUL ADD DUP9 SSTORE POP POP POP JUMPDEST POP POP POP POP POP POP JUMP JUMPDEST PUSH0 PUSH2 0x1400 DUP4 DUP6 PUSH2 0xC20 JUMP JUMPDEST SWAP4 POP PUSH2 0x140D DUP4 DUP6 DUP5 PUSH2 0x1056 JUMP JUMPDEST PUSH2 0x1416 DUP4 PUSH2 0xC3E JUMP JUMPDEST DUP5 ADD SWAP1 POP SWAP4 SWAP3 POP POP POP JUMP JUMPDEST PUSH2 0x142A DUP2 PUSH2 0xDAA JUMP JUMPDEST DUP3 MSTORE POP POP JUMP JUMPDEST PUSH0 PUSH1 0x60 DUP3 ADD SWAP1 POP DUP2 DUP2 SUB PUSH0 DUP4 ADD MSTORE PUSH2 0x1449 DUP2 DUP8 DUP10 PUSH2 0x13F5 JUMP JUMPDEST SWAP1 POP DUP2 DUP2 SUB PUSH1 0x20 DUP4 ADD MSTORE PUSH2 0x145E DUP2 DUP6 DUP8 PUSH2 0x13F5 JUMP JUMPDEST SWAP1 POP PUSH2 0x146D PUSH1 0x40 DUP4 ADD DUP5 PUSH2 0x1421 JUMP JUMPDEST SWAP7 SWAP6 POP POP POP POP POP POP JUMP JUMPDEST PUSH32 0x4E487B7100000000000000000000000000000000000000000000000000000000 PUSH0 MSTORE PUSH1 0x12 PUSH1 0x4 MSTORE PUSH1 0x24 PUSH0 REVERT JUMPDEST PUSH32 0x4E487B7100000000000000000000000000000000000000000000000000000000 PUSH0 MSTORE PUSH1 0x11 PUSH1 0x4 MSTORE PUSH1 0x24 PUSH0 REVERT JUMPDEST PUSH0 PUSH2 0x14DB DUP3 PUSH2 0xDAA JUMP JUMPDEST SWAP2 POP PUSH2 0x14E6 DUP4 PUSH2 0xDAA JUMP JUMPDEST SWAP3 POP DUP3 PUSH2 0x14F6 JUMPI PUSH2 0x14F5 PUSH2 0x1477 JUMP JUMPDEST JUMPDEST DUP3 DUP3 DIV SWAP1 POP SWAP3 SWAP2 POP POP JUMP JUMPDEST PUSH0 PUSH2 0x150B DUP3 PUSH2 0xDAA JUMP JUMPDEST SWAP2 POP PUSH2 0x1516 DUP4 PUSH2 0xDAA JUMP JUMPDEST SWAP3 POP DUP3 DUP3 ADD SWAP1 POP DUP1 DUP3 GT ISZERO PUSH2 0x152E JUMPI PUSH2 0x152D PUSH2 0x14A4 JUMP JUMPDEST JUMPDEST SWAP3 SWAP2 POP POP JUMP JUMPDEST PUSH0 PUSH2 0x153E DUP3 PUSH2 0xDAA JUMP JUMPDEST SWAP2 POP PUSH2 0x1549 DUP4 PUSH2 0xDAA JUMP JUMPDEST SWAP3 POP DUP3 PUSH2 0x1559 JUMPI PUSH2 0x1558 PUSH2 0x1477 JUMP JUMPDEST JUMPDEST DUP3 DUP3 MOD SWAP1 POP SWAP3 SWAP2 POP POP JUMP JUMPDEST PUSH0 PUSH2 0x156E DUP3 PUSH2 0xC16 JUMP JUMPDEST PUSH2 0x1578 DUP2 DUP6 PUSH2 0x104C JUMP JUMPDEST SWAP4 POP PUSH2 0x1588 DUP2 DUP6 PUSH1 0x20 DUP7 ADD PUSH2 0xC30 JUMP JUMPDEST DUP1 DUP5 ADD SWAP2 POP POP SWAP3 SWAP2 POP POP JUMP JUMPDEST PUSH32 0x2D00000000000000000000000000000000000000000000000000000000000000 PUSH0 DUP3 ADD MSTORE POP JUMP JUMPDEST PUSH0 PUSH2 0x15C8 PUSH1 0x1 DUP4 PUSH2 0x104C JUMP JUMPDEST SWAP2 POP PUSH2 0x15D3 DUP3 PUSH2 0x1594 JUMP JUMPDEST PUSH1 0x1 DUP3 ADD SWAP1 POP SWAP2 SWAP1 POP JUMP JUMPDEST PUSH0 PUSH2 0x15E9 DUP3 DUP9 PUSH2 0x1564 JUMP JUMPDEST SWAP2 POP PUSH2 0x15F4 DUP3 PUSH2 0x15BC JUMP JUMPDEST SWAP2 POP PUSH2 0x1600 DUP3 DUP8 PUSH2 0x1564 JUMP JUMPDEST SWAP2 POP PUSH2 0x160C DUP3 DUP7 PUSH2 0x1564 JUMP JUMPDEST SWAP2 POP PUSH2 0x1617 DUP3 PUSH2 0x15BC JUMP JUMPDEST SWAP2 POP PUSH2 0x1623 DUP3 DUP6 PUSH2 0x1564 JUMP JUMPDEST SWAP2 POP PUSH2 0x162F DUP3 DUP5 PUSH2 0x1564 JUMP JUMPDEST SWAP2 POP DUP2 SWAP1 POP SWAP7 SWAP6 POP POP POP POP POP POP JUMP JUMPDEST PUSH0 PUSH2 0x1648 DUP3 PUSH2 0xDAA JUMP JUMPDEST SWAP2 POP PUSH32 0xFFFFFFFFFFFFFFFFFFFFFFFFFFFFFFFFFFFFFFFFFFFFFFFFFFFFFFFFFFFFFFFF DUP3 SUB PUSH2 0x167A JUMPI PUSH2 0x1679 PUSH2 0x14A4 JUMP JUMPDEST JUMPDEST PUSH1 0x1 DUP3 ADD SWAP1 POP SWAP2 SWAP1 POP JUMP JUMPDEST PUSH0 PUSH2 0x168F DUP3 PUSH2 0xDAA JUMP JUMPDEST SWAP2 POP PUSH2 0x169A DUP4 PUSH2 0xDAA JUMP JUMPDEST SWAP3 POP DUP3 DUP3 SUB SWAP1 POP DUP2 DUP2 GT ISZERO PUSH2 0x16B2 JUMPI PUSH2 0x16B1 PUSH2 0x14A4 JUMP JUMPDEST JUMPDEST SWAP3 SWAP2 POP POP JUMP JUMPDEST PUSH32 0x4E487B7100000000000000000000000000000000000000000000000000000000 PUSH0 MSTORE PUSH1 0x32 PUSH1 0x4 MSTORE PUSH1 0x24 PUSH0 REVERT INVALID LOG2 PUSH5 0x6970667358 0x22 SLT KECCAK256 PUSH2 0x25BC JUMPF 0xBC0 AND 0x24 DIV SWAP10 0xC5 BLOCKHASH SELFBALANCE 0xD6 0xAC 0xC8 0xA5 MSTORE8 REVERT RJUMP 0xE78A 0xB0 0xEA DUP14 SWAP1 0x4F GAS PUSH22 0xA2E87A64736F6C634300081E00330000000000000000 "
				},
				"gasEstimates": {
					"creation": {
						"codeDepositCost": "1183000",
						"executionCost": "infinite",
						"totalCost": "infinite"
					},
					"external": {
						"getCertificatesByStudent(address)": "infinite",
						"issueCertificate(address,string,string,uint256)": "infinite",
						"owner()": "2536",
						"renounceOwnership()": "infinite",
						"transferOwnership(address)": "infinite",
						"verifyCertificate(bytes32)": "infinite"
					},
					"internal": {
						"_formatDate(uint256)": "infinite",
						"_uintToStr(uint256)": "infinite"
					}
				},
				"methodIdentifiers": {
					"getCertificatesByStudent(address)": "ea092518",
					"issueCertificate(address,string,string,uint256)": "dc02992e",
					"owner()": "8da5cb5b",
					"renounceOwnership()": "715018a6",
					"transferOwnership(address)": "f2fde38b",
					"verifyCertificate(bytes32)": "850c1768"
				}
			},
			"storageLayout": {
				"storage": [
					{
						"astId": 8,
						"contract": "CertificateRegistry.sol:CertificateRegistry",
						"label": "_owner",
						"offset": 0,
						"slot": "0",
						"type": "t_address"
					},
					{
						"astId": 198,
						"contract": "CertificateRegistry.sol:CertificateRegistry",
						"label": "certificates",
						"offset": 0,
						"slot": "1",
						"type": "t_mapping(t_bytes32,t_struct(Certificate)193_storage)"
					},
					{
						"astId": 203,
						"contract": "CertificateRegistry.sol:CertificateRegistry",
						"label": "certificatesByStudent",
						"offset": 0,
						"slot": "2",
						"type": "t_mapping(t_address,t_array(t_bytes32)dyn_storage)"
					}
				],
				"types": {
					"t_address": {
						"encoding": "inplace",
						"label": "address",
						"numberOfBytes": "20"
					},
					"t_array(t_bytes32)dyn_storage": {
						"base": "t_bytes32",
						"encoding": "dynamic_array",
						"label": "bytes32[]",
						"numberOfBytes": "32"
					},
					"t_bool": {
						"encoding": "inplace",
						"label": "bool",
						"numberOfBytes": "1"
					},
					"t_bytes32": {
						"encoding": "inplace",
						"label": "bytes32",
						"numberOfBytes": "32"
					},
					"t_mapping(t_address,t_array(t_bytes32)dyn_storage)": {
						"encoding": "mapping",
						"key": "t_address",
						"label": "mapping(address => bytes32[])",
						"numberOfBytes": "32",
						"value": "t_array(t_bytes32)dyn_storage"
					},
					"t_mapping(t_bytes32,t_struct(Certificate)193_storage)": {
						"encoding": "mapping",
						"key": "t_bytes32",
						"label": "mapping(bytes32 => struct CertificateRegistry.Certificate)",
						"numberOfBytes": "32",
						"value": "t_struct(Certificate)193_storage"
					},
					"t_string_storage": {
						"encoding": "bytes",
						"label": "string",
						"numberOfBytes": "32"
					},
					"t_struct(Certificate)193_storage": {
						"encoding": "inplace",
						"label": "struct CertificateRegistry.Certificate",
						"members": [
							{
								"astId": 184,
								"contract": "CertificateRegistry.sol:CertificateRegistry",
								"label": "student",
								"offset": 0,
								"slot": "0",
								"type": "t_address"
							},
							{
								"astId": 186,
								"contract": "CertificateRegistry.sol:CertificateRegistry",
								"label": "studentName",
								"offset": 0,
								"slot": "1",
								"type": "t_string_storage"
							},
							{
								"astId": 188,
								"contract": "CertificateRegistry.sol:CertificateRegistry",
								"label": "courseName",
								"offset": 0,
								"slot": "2",
								"type": "t_string_storage"
							},
							{
								"astId": 190,
								"contract": "CertificateRegistry.sol:CertificateRegistry",
								"label": "issueDate",
								"offset": 0,
								"slot": "3",
								"type": "t_uint256"
							},
							{
								"astId": 192,
								"contract": "CertificateRegistry.sol:CertificateRegistry",
								"label": "exists",
								"offset": 0,
								"slot": "4",
								"type": "t_bool"
							}
						],
						"numberOfBytes": "160"
					},
					"t_uint256": {
						"encoding": "inplace",
						"label": "uint256",
						"numberOfBytes": "32"
					}
				}
			},
			"userdoc": {
				"kind": "user",
				"methods": {
					"getCertificatesByStudent(address)": {
						"notice": "Retorna lista de IDs de certificados de um aluno."
					},
					"issueCertificate(address,string,string,uint256)": {
						"notice": "Emite um certificado para um aluno. Somente o owner (professor) pode chamar."
					},
					"verifyCertificate(bytes32)": {
						"notice": "Verifica se um certificado existe e retorna seus dados."
					}
				},
				"version": 1
			}
		}
	}
}